{
	"data": {
		"bytecode": {
			"linkReferences": {},
			"object": "608060405234801561001057600080fd5b50615491806100206000396000f3fe608060405234801561001057600080fd5b50600436106100ea5760003560e01c80638813ce121161008c578063c97da22911610066578063c97da2291461026d578063dba82a9c1461028b578063f82e4aee146102a7578063fd9284f1146102c3576100ea565b80638813ce1214610215578063ac0799e514610233578063b87dff891461024f576100ea565b806361bdfd85116100c857806361bdfd851461017157806364cceaef1461018d578063692d51d2146101be5780637c0a6fc1146101f6576100ea565b80632548d05d146100ef578063303941dd146101215780634d1ba7901461013f575b600080fd5b61010960048036038101906101049190613c1e565b6102df565b60405161011893929190613cdb565b60405180910390f35b6101296104b1565b604051610136919061421c565b60405180910390f35b61015960048036038101906101549190613c1e565b610d65565b60405161016893929190613cdb565b60405180910390f35b61018b6004803603810190610186919061453a565b610f37565b005b6101a760048036038101906101a291906146d0565b6112e6565b6040516101b5929190614728565b60405180910390f35b6101d860048036038101906101d391906146d0565b6113b5565b6040516101ed999897969594939291906147b1565b60405180910390f35b6101fe611756565b60405161020c929190614974565b60405180910390f35b61021d611b83565b60405161022a919061421c565b60405180910390f35b61024d600480360381019061024891906149ab565b612437565b005b610257612765565b6040516102649190614b85565b60405180910390f35b610275612d2a565b604051610282919061421c565b60405180910390f35b6102a560048036038101906102a09190614c48565b613640565b005b6102c160048036038101906102bc9190614d7b565b6136bc565b005b6102dd60048036038101906102d89190614e32565b613708565b005b600081815481106102ef57600080fd5b906000526020600020906003020160009150905080600001805461031290614eec565b80601f016020809104026020016040519081016040528092919081815260200182805461033e90614eec565b801561038b5780601f106103605761010080835404028352916020019161038b565b820191906000526020600020905b81548152906001019060200180831161036e57829003601f168201915b5050505050908060010180546103a090614eec565b80601f01602080910402602001604051908101604052809291908181526020018280546103cc90614eec565b80156104195780601f106103ee57610100808354040283529160200191610419565b820191906000526020600020905b8154815290600101906020018083116103fc57829003601f168201915b50505050509080600201805461042e90614eec565b80601f016020809104026020016040519081016040528092919081815260200182805461045a90614eec565b80156104a75780601f1061047c576101008083540402835291602001916104a7565b820191906000526020600020905b81548152906001019060200180831161048a57829003601f168201915b5050505050905083565b6060600060058054905067ffffffffffffffff8111156104d4576104d3614248565b5b60405190808252806020026020018201604052801561050d57816020015b6104fa613a1b565b8152602001906001900390816104f25790505b50905060005b600580549050811015610d5d5760046005828154811061053657610535614f1d565b5b9060005260206000200160405161054d9190614fef565b90815260200160405180910390206040518061016001604052908160008201805461057790614eec565b80601f01602080910402602001604051908101604052809291908181526020018280546105a390614eec565b80156105f05780601f106105c5576101008083540402835291602001916105f0565b820191906000526020600020905b8154815290600101906020018083116105d357829003601f168201915b5050505050815260200160018201805461060990614eec565b80601f016020809104026020016040519081016040528092919081815260200182805461063590614eec565b80156106825780601f1061065757610100808354040283529160200191610682565b820191906000526020600020905b81548152906001019060200180831161066557829003601f168201915b5050505050815260200160028201805461069b90614eec565b80601f01602080910402602001604051908101604052809291908181526020018280546106c790614eec565b80156107145780601f106106e957610100808354040283529160200191610714565b820191906000526020600020905b8154815290600101906020018083116106f757829003601f168201915b5050505050815260200160038201805461072d90614eec565b80601f016020809104026020016040519081016040528092919081815260200182805461075990614eec565b80156107a65780601f1061077b576101008083540402835291602001916107a6565b820191906000526020600020905b81548152906001019060200180831161078957829003601f168201915b5050505050815260200160048201805480602002602001604051908101604052809291908181526020016000905b828210156109bc578382906000526020600020906003020160405180606001604052908160008201805461080790614eec565b80601f016020809104026020016040519081016040528092919081815260200182805461083390614eec565b80156108805780601f1061085557610100808354040283529160200191610880565b820191906000526020600020905b81548152906001019060200180831161086357829003601f168201915b5050505050815260200160018201805461089990614eec565b80601f01602080910402602001604051908101604052809291908181526020018280546108c590614eec565b80156109125780601f106108e757610100808354040283529160200191610912565b820191906000526020600020905b8154815290600101906020018083116108f557829003601f168201915b5050505050815260200160028201805461092b90614eec565b80601f016020809104026020016040519081016040528092919081815260200182805461095790614eec565b80156109a45780601f10610979576101008083540402835291602001916109a4565b820191906000526020600020905b81548152906001019060200180831161098757829003601f168201915b505050505081525050815260200190600101906107d4565b50505050815260200160058201805480602002602001604051908101604052809291908181526020016000905b82821015610bd15783829060005260206000209060030201604051806060016040529081600082018054610a1c90614eec565b80601f0160208091040260200160405190810160405280929190818152602001828054610a4890614eec565b8015610a955780601f10610a6a57610100808354040283529160200191610a95565b820191906000526020600020905b815481529060010190602001808311610a7857829003601f168201915b50505050508152602001600182018054610aae90614eec565b80601f0160208091040260200160405190810160405280929190818152602001828054610ada90614eec565b8015610b275780601f10610afc57610100808354040283529160200191610b27565b820191906000526020600020905b815481529060010190602001808311610b0a57829003601f168201915b50505050508152602001600282018054610b4090614eec565b80601f0160208091040260200160405190810160405280929190818152602001828054610b6c90614eec565b8015610bb95780601f10610b8e57610100808354040283529160200191610bb9565b820191906000526020600020905b815481529060010190602001808311610b9c57829003601f168201915b505050505081525050815260200190600101906109e9565b5050505081526020016006820160009054906101000a900460ff161515151581526020016007820154815260200160088201548152602001600982018054610c1890614eec565b80601f0160208091040260200160405190810160405280929190818152602001828054610c4490614eec565b8015610c915780601f10610c6657610100808354040283529160200191610c91565b820191906000526020600020905b815481529060010190602001808311610c7457829003601f168201915b50505050508152602001600a82018054610caa90614eec565b80601f0160208091040260200160405190810160405280929190818152602001828054610cd690614eec565b8015610d235780601f10610cf857610100808354040283529160200191610d23565b820191906000526020600020905b815481529060010190602001808311610d0657829003601f168201915b505050505081525050828281518110610d3f57610d3e614f1d565b5b60200260200101819052508080610d5590615035565b915050610513565b508091505090565b60018181548110610d7557600080fd5b9060005260206000209060030201600091509050806000018054610d9890614eec565b80601f0160208091040260200160405190810160405280929190818152602001828054610dc490614eec565b8015610e115780601f10610de657610100808354040283529160200191610e11565b820191906000526020600020905b815481529060010190602001808311610df457829003601f168201915b505050505090806001018054610e2690614eec565b80601f0160208091040260200160405190810160405280929190818152602001828054610e5290614eec565b8015610e9f5780601f10610e7457610100808354040283529160200191610e9f565b820191906000526020600020905b815481529060010190602001808311610e8257829003601f168201915b505050505090806002018054610eb490614eec565b80601f0160208091040260200160405190810160405280929190818152602001828054610ee090614eec565b8015610f2d5780601f10610f0257610100808354040283529160200191610f2d565b820191906000526020600020905b815481529060010190602001808311610f1057829003601f168201915b5050505050905083565b610f41828261375e565b6001600288604051610f5391906150ae565b908152602001604051809103902060000160006101000a81548160ff0219169083151502179055506000600487604051610f8d91906150ae565b90815260200160405180910390209050600587908060018154018082558091505060019003906000526020600020016000909190919091509081610fd1919061525c565b5086816001019081610fe3919061525c565b5085816002019081610ff5919061525c565b506000816008018190555060008160060160006101000a81548160ff0219169083151502179055506000816007018190555088816000019081611038919061525c565b5060005b8551811015611189576000604051806060016040528088848151811061106557611064614f1d565b5b60200260200101516000815181106110805761107f614f1d565b5b602002602001015181526020018884815181106110a05761109f614f1d565b5b60200260200101516001815181106110bb576110ba614f1d565b5b602002602001015181526020018884815181106110db576110da614f1d565b5b60200260200101516002815181106110f6576110f5614f1d565b5b60200260200101518152509050826004018190806001815401808255809150506001900390600052602060002090600302016000909190919091506000820151816000019081611146919061525c565b50602082015181600101908161115c919061525c565b506040820151816002019081611172919061525c565b50505050808061118190615035565b91505061103c565b5060005b84518110156112da57600060405180606001604052808784815181106111b6576111b5614f1d565b5b60200260200101516000815181106111d1576111d0614f1d565b5b602002602001015181526020018784815181106111f1576111f0614f1d565b5b602002602001015160018151811061120c5761120b614f1d565b5b6020026020010151815260200187848151811061122c5761122b614f1d565b5b602002602001015160028151811061124757611246614f1d565b5b60200260200101518152509050826005018190806001815401808255809150506001900390600052602060002090600302016000909190919091506000820151816000019081611297919061525c565b5060208201518160010190816112ad919061525c565b5060408201518160020190816112c3919061525c565b5050505080806112d290615035565b91505061118d565b50505050505050505050565b6002818051602081018201805184825260208301602085012081835280955050505050506000915090508060000160009054906101000a900460ff169080600101805461133290614eec565b80601f016020809104026020016040519081016040528092919081815260200182805461135e90614eec565b80156113ab5780601f10611380576101008083540402835291602001916113ab565b820191906000526020600020905b81548152906001019060200180831161138e57829003601f168201915b5050505050905082565b6004818051602081018201805184825260208301602085012081835280955050505050506000915090508060000180546113ee90614eec565b80601f016020809104026020016040519081016040528092919081815260200182805461141a90614eec565b80156114675780601f1061143c57610100808354040283529160200191611467565b820191906000526020600020905b81548152906001019060200180831161144a57829003601f168201915b50505050509080600101805461147c90614eec565b80601f01602080910402602001604051908101604052809291908181526020018280546114a890614eec565b80156114f55780601f106114ca576101008083540402835291602001916114f5565b820191906000526020600020905b8154815290600101906020018083116114d857829003601f168201915b50505050509080600201805461150a90614eec565b80601f016020809104026020016040519081016040528092919081815260200182805461153690614eec565b80156115835780601f1061155857610100808354040283529160200191611583565b820191906000526020600020905b81548152906001019060200180831161156657829003601f168201915b50505050509080600301805461159890614eec565b80601f01602080910402602001604051908101604052809291908181526020018280546115c490614eec565b80156116115780601f106115e657610100808354040283529160200191611611565b820191906000526020600020905b8154815290600101906020018083116115f457829003601f168201915b5050505050908060060160009054906101000a900460ff169080600701549080600801549080600901805461164590614eec565b80601f016020809104026020016040519081016040528092919081815260200182805461167190614eec565b80156116be5780601f10611693576101008083540402835291602001916116be565b820191906000526020600020905b8154815290600101906020018083116116a157829003601f168201915b50505050509080600a0180546116d390614eec565b80601f01602080910402602001604051908101604052809291908181526020018280546116ff90614eec565b801561174c5780601f106117215761010080835404028352916020019161174c565b820191906000526020600020905b81548152906001019060200180831161172f57829003601f168201915b5050505050905089565b6060806000600181805480602002602001604051908101604052809291908181526020016000905b8282101561196657838290600052602060002090600302016040518060600160405290816000820180546117b190614eec565b80601f01602080910402602001604051908101604052809291908181526020018280546117dd90614eec565b801561182a5780601f106117ff5761010080835404028352916020019161182a565b820191906000526020600020905b81548152906001019060200180831161180d57829003601f168201915b5050505050815260200160018201805461184390614eec565b80601f016020809104026020016040519081016040528092919081815260200182805461186f90614eec565b80156118bc5780601f10611891576101008083540402835291602001916118bc565b820191906000526020600020905b81548152906001019060200180831161189f57829003601f168201915b505050505081526020016002820180546118d590614eec565b80601f016020809104026020016040519081016040528092919081815260200182805461190190614eec565b801561194e5780601f106119235761010080835404028352916020019161194e565b820191906000526020600020905b81548152906001019060200180831161193157829003601f168201915b5050505050815250508152602001906001019061177e565b50505050915080805480602002602001604051908101604052809291908181526020016000905b82821015611b7557838290600052602060002090600302016040518060600160405290816000820180546119c090614eec565b80601f01602080910402602001604051908101604052809291908181526020018280546119ec90614eec565b8015611a395780601f10611a0e57610100808354040283529160200191611a39565b820191906000526020600020905b815481529060010190602001808311611a1c57829003601f168201915b50505050508152602001600182018054611a5290614eec565b80601f0160208091040260200160405190810160405280929190818152602001828054611a7e90614eec565b8015611acb5780601f10611aa057610100808354040283529160200191611acb565b820191906000526020600020905b815481529060010190602001808311611aae57829003601f168201915b50505050508152602001600282018054611ae490614eec565b80601f0160208091040260200160405190810160405280929190818152602001828054611b1090614eec565b8015611b5d5780601f10611b3257610100808354040283529160200191611b5d565b820191906000526020600020905b815481529060010190602001808311611b4057829003601f168201915b5050505050815250508152602001906001019061198d565b505050509050915091509091565b6060600060058054905067ffffffffffffffff811115611ba657611ba5614248565b5b604051908082528060200260200182016040528015611bdf57816020015b611bcc613a1b565b815260200190600190039081611bc45790505b50905060005b60058054905081101561242f57600460058281548110611c0857611c07614f1d565b5b90600052602060002001604051611c1f9190614fef565b908152602001604051809103902060405180610160016040529081600082018054611c4990614eec565b80601f0160208091040260200160405190810160405280929190818152602001828054611c7590614eec565b8015611cc25780601f10611c9757610100808354040283529160200191611cc2565b820191906000526020600020905b815481529060010190602001808311611ca557829003601f168201915b50505050508152602001600182018054611cdb90614eec565b80601f0160208091040260200160405190810160405280929190818152602001828054611d0790614eec565b8015611d545780601f10611d2957610100808354040283529160200191611d54565b820191906000526020600020905b815481529060010190602001808311611d3757829003601f168201915b50505050508152602001600282018054611d6d90614eec565b80601f0160208091040260200160405190810160405280929190818152602001828054611d9990614eec565b8015611de65780601f10611dbb57610100808354040283529160200191611de6565b820191906000526020600020905b815481529060010190602001808311611dc957829003601f168201915b50505050508152602001600382018054611dff90614eec565b80601f0160208091040260200160405190810160405280929190818152602001828054611e2b90614eec565b8015611e785780601f10611e4d57610100808354040283529160200191611e78565b820191906000526020600020905b815481529060010190602001808311611e5b57829003601f168201915b5050505050815260200160048201805480602002602001604051908101604052809291908181526020016000905b8282101561208e5783829060005260206000209060030201604051806060016040529081600082018054611ed990614eec565b80601f0160208091040260200160405190810160405280929190818152602001828054611f0590614eec565b8015611f525780601f10611f2757610100808354040283529160200191611f52565b820191906000526020600020905b815481529060010190602001808311611f3557829003601f168201915b50505050508152602001600182018054611f6b90614eec565b80601f0160208091040260200160405190810160405280929190818152602001828054611f9790614eec565b8015611fe45780601f10611fb957610100808354040283529160200191611fe4565b820191906000526020600020905b815481529060010190602001808311611fc757829003601f168201915b50505050508152602001600282018054611ffd90614eec565b80601f016020809104026020016040519081016040528092919081815260200182805461202990614eec565b80156120765780601f1061204b57610100808354040283529160200191612076565b820191906000526020600020905b81548152906001019060200180831161205957829003601f168201915b50505050508152505081526020019060010190611ea6565b50505050815260200160058201805480602002602001604051908101604052809291908181526020016000905b828210156122a357838290600052602060002090600302016040518060600160405290816000820180546120ee90614eec565b80601f016020809104026020016040519081016040528092919081815260200182805461211a90614eec565b80156121675780601f1061213c57610100808354040283529160200191612167565b820191906000526020600020905b81548152906001019060200180831161214a57829003601f168201915b5050505050815260200160018201805461218090614eec565b80601f01602080910402602001604051908101604052809291908181526020018280546121ac90614eec565b80156121f95780601f106121ce576101008083540402835291602001916121f9565b820191906000526020600020905b8154815290600101906020018083116121dc57829003601f168201915b5050505050815260200160028201805461221290614eec565b80601f016020809104026020016040519081016040528092919081815260200182805461223e90614eec565b801561228b5780601f106122605761010080835404028352916020019161228b565b820191906000526020600020905b81548152906001019060200180831161226e57829003601f168201915b505050505081525050815260200190600101906120bb565b5050505081526020016006820160009054906101000a900460ff1615151515815260200160078201548152602001600882015481526020016009820180546122ea90614eec565b80601f016020809104026020016040519081016040528092919081815260200182805461231690614eec565b80156123635780601f1061233857610100808354040283529160200191612363565b820191906000526020600020905b81548152906001019060200180831161234657829003601f168201915b50505050508152602001600a8201805461237c90614eec565b80601f01602080910402602001604051908101604052809291908181526020018280546123a890614eec565b80156123f55780601f106123ca576101008083540402835291602001916123f5565b820191906000526020600020905b8154815290600101906020018083116123d857829003601f168201915b50505050508152505082828151811061241157612410614f1d565b5b6020026020010181905250808061242790615035565b915050611be5565b508091505090565b60038390806001815401808255809150506001900390600052602060002001600090919091909150908161246b919061525c565b50600060028460405161247e91906150ae565b9081526020016040518091039020905060008160000160006101000a81548160ff021916908315150217905550838160010190816124bc919061525c565b5060005b835181101561260d57600060405180606001604052808684815181106124e9576124e8614f1d565b5b602002602001015160008151811061250457612503614f1d565b5b6020026020010151815260200186848151811061252457612523614f1d565b5b602002602001015160018151811061253f5761253e614f1d565b5b6020026020010151815260200186848151811061255f5761255e614f1d565b5b602002602001015160028151811061257a57612579614f1d565b5b602002602001015181525090508260020181908060018154018082558091505060019003906000526020600020906003020160009091909190915060008201518160000190816125ca919061525c565b5060208201518160010190816125e0919061525c565b5060408201518160020190816125f6919061525c565b50505050808061260590615035565b9150506124c0565b5060005b825181101561275e576000604051806060016040528085848151811061263a57612639614f1d565b5b602002602001015160008151811061265557612654614f1d565b5b6020026020010151815260200185848151811061267557612674614f1d565b5b60200260200101516001815181106126905761268f614f1d565b5b602002602001015181526020018584815181106126b0576126af614f1d565b5b60200260200101516002815181106126cb576126ca614f1d565b5b6020026020010151815250905082600301819080600181540180825580915050600190039060005260206000209060030201600090919091909150600082015181600001908161271b919061525c565b506020820151816001019081612731919061525c565b506040820151816002019081612747919061525c565b50505050808061275690615035565b915050612611565b5050505050565b6060600060038054905067ffffffffffffffff81111561278857612787614248565b5b6040519080825280602002602001820160405280156127c157816020015b6127ae613a77565b8152602001906001900390816127a65790505b50905060005b600380549050811015612d22576002600382815481106127ea576127e9614f1d565b5b906000526020600020016040516128019190614fef565b90815260200160405180910390206040518060800160405290816000820160009054906101000a900460ff1615151515815260200160018201805461284590614eec565b80601f016020809104026020016040519081016040528092919081815260200182805461287190614eec565b80156128be5780601f10612893576101008083540402835291602001916128be565b820191906000526020600020905b8154815290600101906020018083116128a157829003601f168201915b5050505050815260200160028201805480602002602001604051908101604052809291908181526020016000905b82821015612ad4578382906000526020600020906003020160405180606001604052908160008201805461291f90614eec565b80601f016020809104026020016040519081016040528092919081815260200182805461294b90614eec565b80156129985780601f1061296d57610100808354040283529160200191612998565b820191906000526020600020905b81548152906001019060200180831161297b57829003601f168201915b505050505081526020016001820180546129b190614eec565b80601f01602080910402602001604051908101604052809291908181526020018280546129dd90614eec565b8015612a2a5780601f106129ff57610100808354040283529160200191612a2a565b820191906000526020600020905b815481529060010190602001808311612a0d57829003601f168201915b50505050508152602001600282018054612a4390614eec565b80601f0160208091040260200160405190810160405280929190818152602001828054612a6f90614eec565b8015612abc5780601f10612a9157610100808354040283529160200191612abc565b820191906000526020600020905b815481529060010190602001808311612a9f57829003601f168201915b505050505081525050815260200190600101906128ec565b50505050815260200160038201805480602002602001604051908101604052809291908181526020016000905b82821015612ce95783829060005260206000209060030201604051806060016040529081600082018054612b3490614eec565b80601f0160208091040260200160405190810160405280929190818152602001828054612b6090614eec565b8015612bad5780601f10612b8257610100808354040283529160200191612bad565b820191906000526020600020905b815481529060010190602001808311612b9057829003601f168201915b50505050508152602001600182018054612bc690614eec565b80601f0160208091040260200160405190810160405280929190818152602001828054612bf290614eec565b8015612c3f5780601f10612c1457610100808354040283529160200191612c3f565b820191906000526020600020905b815481529060010190602001808311612c2257829003601f168201915b50505050508152602001600282018054612c5890614eec565b80601f0160208091040260200160405190810160405280929190818152602001828054612c8490614eec565b8015612cd15780601f10612ca657610100808354040283529160200191612cd1565b820191906000526020600020905b815481529060010190602001808311612cb457829003601f168201915b50505050508152505081526020019060010190612b01565b5050505081525050828281518110612d0457612d03614f1d565b5b60200260200101819052508080612d1a90615035565b9150506127c7565b508091505090565b6060600060058054905067ffffffffffffffff811115612d4d57612d4c614248565b5b604051908082528060200260200182016040528015612d8657816020015b612d73613a1b565b815260200190600190039081612d6b5790505b5090506000805b60058054905081101561363757600460058281548110612db057612daf614f1d565b5b90600052602060002001604051612dc79190614fef565b908152602001604051809103902060060160009054906101000a900460ff161561362457600460058281548110612e0157612e00614f1d565b5b90600052602060002001604051612e189190614fef565b908152602001604051809103902060405180610160016040529081600082018054612e4290614eec565b80601f0160208091040260200160405190810160405280929190818152602001828054612e6e90614eec565b8015612ebb5780601f10612e9057610100808354040283529160200191612ebb565b820191906000526020600020905b815481529060010190602001808311612e9e57829003601f168201915b50505050508152602001600182018054612ed490614eec565b80601f0160208091040260200160405190810160405280929190818152602001828054612f0090614eec565b8015612f4d5780601f10612f2257610100808354040283529160200191612f4d565b820191906000526020600020905b815481529060010190602001808311612f3057829003601f168201915b50505050508152602001600282018054612f6690614eec565b80601f0160208091040260200160405190810160405280929190818152602001828054612f9290614eec565b8015612fdf5780601f10612fb457610100808354040283529160200191612fdf565b820191906000526020600020905b815481529060010190602001808311612fc257829003601f168201915b50505050508152602001600382018054612ff890614eec565b80601f016020809104026020016040519081016040528092919081815260200182805461302490614eec565b80156130715780601f1061304657610100808354040283529160200191613071565b820191906000526020600020905b81548152906001019060200180831161305457829003601f168201915b5050505050815260200160048201805480602002602001604051908101604052809291908181526020016000905b8282101561328757838290600052602060002090600302016040518060600160405290816000820180546130d290614eec565b80601f01602080910402602001604051908101604052809291908181526020018280546130fe90614eec565b801561314b5780601f106131205761010080835404028352916020019161314b565b820191906000526020600020905b81548152906001019060200180831161312e57829003601f168201915b5050505050815260200160018201805461316490614eec565b80601f016020809104026020016040519081016040528092919081815260200182805461319090614eec565b80156131dd5780601f106131b2576101008083540402835291602001916131dd565b820191906000526020600020905b8154815290600101906020018083116131c057829003601f168201915b505050505081526020016002820180546131f690614eec565b80601f016020809104026020016040519081016040528092919081815260200182805461322290614eec565b801561326f5780601f106132445761010080835404028352916020019161326f565b820191906000526020600020905b81548152906001019060200180831161325257829003601f168201915b5050505050815250508152602001906001019061309f565b50505050815260200160058201805480602002602001604051908101604052809291908181526020016000905b8282101561349c57838290600052602060002090600302016040518060600160405290816000820180546132e790614eec565b80601f016020809104026020016040519081016040528092919081815260200182805461331390614eec565b80156133605780601f1061333557610100808354040283529160200191613360565b820191906000526020600020905b81548152906001019060200180831161334357829003601f168201915b5050505050815260200160018201805461337990614eec565b80601f01602080910402602001604051908101604052809291908181526020018280546133a590614eec565b80156133f25780601f106133c7576101008083540402835291602001916133f2565b820191906000526020600020905b8154815290600101906020018083116133d557829003601f168201915b5050505050815260200160028201805461340b90614eec565b80601f016020809104026020016040519081016040528092919081815260200182805461343790614eec565b80156134845780601f1061345957610100808354040283529160200191613484565b820191906000526020600020905b81548152906001019060200180831161346757829003601f168201915b505050505081525050815260200190600101906132b4565b5050505081526020016006820160009054906101000a900460ff1615151515815260200160078201548152602001600882015481526020016009820180546134e390614eec565b80601f016020809104026020016040519081016040528092919081815260200182805461350f90614eec565b801561355c5780601f106135315761010080835404028352916020019161355c565b820191906000526020600020905b81548152906001019060200180831161353f57829003601f168201915b50505050508152602001600a8201805461357590614eec565b80601f01602080910402602001604051908101604052809291908181526020018280546135a190614eec565b80156135ee5780601f106135c3576101008083540402835291602001916135ee565b820191906000526020600020905b8154815290600101906020018083116135d157829003601f168201915b50505050508152505083838151811061360a57613609614f1d565b5b6020026020010181905250818061362090615035565b9250505b808061362f90615035565b915050612d8d565b50819250505090565b600060048560405161365291906150ae565b9081526020016040518091039020905085816000019081613673919061525c565b5083816003019081613685919061525c565b5082816009019081613697919061525c565b508181600a0190816136a99190615389565b5060018160070181905550505050505050565b60006004826040516136ce91906150ae565b9081526020016040518091039020905082816008018190555082816007018190555083816000019081613701919061525c565b5050505050565b600060048360405161371a91906150ae565b90815260200160405180910390209050818160060160006101000a81548160ff02191690831515021790555083816000019081613757919061525c565b5050505050565b60008061376b9190613aa1565b60005b82518110156138b9576000604051806060016040528085848151811061379757613796614f1d565b5b60200260200101516000815181106137b2576137b1614f1d565b5b602002602001015181526020018584815181106137d2576137d1614f1d565b5b60200260200101516001815181106137ed576137ec614f1d565b5b6020026020010151815260200185848151811061380d5761380c614f1d565b5b602002602001015160028151811061382857613827614f1d565b5b6020026020010151815250905060008190806001815401808255809150506001900390600052602060002090600302016000909190919091506000820151816000019081613876919061525c565b50602082015181600101908161388c919061525c565b5060408201518160020190816138a2919061525c565b5050505080806138b190615035565b91505061376e565b50600160006138c89190613ac5565b60005b8151811015613a1657600060405180606001604052808484815181106138f4576138f3614f1d565b5b602002602001015160008151811061390f5761390e614f1d565b5b6020026020010151815260200184848151811061392f5761392e614f1d565b5b602002602001015160018151811061394a57613949614f1d565b5b6020026020010151815260200184848151811061396a57613969614f1d565b5b602002602001015160028151811061398557613984614f1d565b5b60200260200101518152509050600181908060018154018082558091505060019003906000526020600020906003020160009091909190915060008201518160000190816139d3919061525c565b5060208201518160010190816139e9919061525c565b5060408201518160020190816139ff919061525c565b505050508080613a0e90615035565b9150506138cb565b505050565b604051806101600160405280606081526020016060815260200160608152602001606081526020016060815260200160608152602001600015158152602001600081526020016000815260200160608152602001606081525090565b60405180608001604052806000151581526020016060815260200160608152602001606081525090565b5080546000825560030290600052602060002090810190613ac29190613ae9565b50565b5080546000825560030290600052602060002090810190613ae69190613b30565b50565b5b80821115613b2c5760008082016000613b039190613b77565b600182016000613b139190613b77565b600282016000613b239190613b77565b50600301613aea565b5090565b5b80821115613b735760008082016000613b4a9190613b77565b600182016000613b5a9190613b77565b600282016000613b6a9190613b77565b50600301613b31565b5090565b508054613b8390614eec565b6000825580601f10613b955750613bb4565b601f016020900490600052602060002090810190613bb39190613bb7565b5b50565b5b80821115613bd0576000816000905550600101613bb8565b5090565b6000604051905090565b600080fd5b600080fd5b6000819050919050565b613bfb81613be8565b8114613c0657600080fd5b50565b600081359050613c1881613bf2565b92915050565b600060208284031215613c3457613c33613bde565b5b6000613c4284828501613c09565b91505092915050565b600081519050919050565b600082825260208201905092915050565b60005b83811015613c85578082015181840152602081019050613c6a565b60008484015250505050565b6000601f19601f8301169050919050565b6000613cad82613c4b565b613cb78185613c56565b9350613cc7818560208601613c67565b613cd081613c91565b840191505092915050565b60006060820190508181036000830152613cf58186613ca2565b90508181036020830152613d098185613ca2565b90508181036040830152613d1d8184613ca2565b9050949350505050565b600081519050919050565b600082825260208201905092915050565b6000819050602082019050919050565b600082825260208201905092915050565b6000613d6f82613c4b565b613d798185613d53565b9350613d89818560208601613c67565b613d9281613c91565b840191505092915050565b600081519050919050565b600082825260208201905092915050565b6000819050602082019050919050565b60006060830160008301518482036000860152613de68282613d64565b91505060208301518482036020860152613e008282613d64565b91505060408301518482036040860152613e1a8282613d64565b9150508091505092915050565b6000613e338383613dc9565b905092915050565b6000602082019050919050565b6000613e5382613d9d565b613e5d8185613da8565b935083602082028501613e6f85613db9565b8060005b85811015613eab5784840389528151613e8c8582613e27565b9450613e9783613e3b565b925060208a01995050600181019050613e73565b50829750879550505050505092915050565b600081519050919050565b600082825260208201905092915050565b6000819050602082019050919050565b60006060830160008301518482036000860152613f068282613d64565b91505060208301518482036020860152613f208282613d64565b91505060408301518482036040860152613f3a8282613d64565b9150508091505092915050565b6000613f538383613ee9565b905092915050565b6000602082019050919050565b6000613f7382613ebd565b613f7d8185613ec8565b935083602082028501613f8f85613ed9565b8060005b85811015613fcb5784840389528151613fac8582613f47565b9450613fb783613f5b565b925060208a01995050600181019050613f93565b50829750879550505050505092915050565b60008115159050919050565b613ff281613fdd565b82525050565b6000819050919050565b61400b81613ff8565b82525050565b600081519050919050565b600082825260208201905092915050565b600061403882614011565b614042818561401c565b9350614052818560208601613c67565b61405b81613c91565b840191505092915050565b60006101608301600083015184820360008601526140848282613d64565b9150506020830151848203602086015261409e8282613d64565b915050604083015184820360408601526140b88282613d64565b915050606083015184820360608601526140d28282613d64565b915050608083015184820360808601526140ec8282613e48565b91505060a083015184820360a08601526141068282613f68565b91505060c083015161411b60c0860182613fe9565b5060e083015161412e60e0860182614002565b50610100830151614143610100860182614002565b5061012083015184820361012086015261415d8282613d64565b915050610140830151848203610140860152614179828261402d565b9150508091505092915050565b60006141928383614066565b905092915050565b6000602082019050919050565b60006141b282613d27565b6141bc8185613d32565b9350836020820285016141ce85613d43565b8060005b8581101561420a57848403895281516141eb8582614186565b94506141f68361419a565b925060208a019950506001810190506141d2565b50829750879550505050505092915050565b6000602082019050818103600083015261423681846141a7565b905092915050565b600080fd5b600080fd5b7f4e487b7100000000000000000000000000000000000000000000000000000000600052604160045260246000fd5b61428082613c91565b810181811067ffffffffffffffff8211171561429f5761429e614248565b5b80604052505050565b60006142b2613bd4565b90506142be8282614277565b919050565b600067ffffffffffffffff8211156142de576142dd614248565b5b6142e782613c91565b9050602081019050919050565b82818337600083830152505050565b6000614316614311846142c3565b6142a8565b90508281526020810184848401111561433257614331614243565b5b61433d8482856142f4565b509392505050565b600082601f83011261435a5761435961423e565b5b813561436a848260208601614303565b91505092915050565b600067ffffffffffffffff82111561438e5761438d614248565b5b602082029050602081019050919050565b600080fd5b600067ffffffffffffffff8211156143bf576143be614248565b5b602082029050602081019050919050565b60006143e36143de846143a4565b6142a8565b905080838252602082019050602084028301858111156144065761440561439f565b5b835b8181101561444d57803567ffffffffffffffff81111561442b5761442a61423e565b5b8086016144388982614345565b85526020850194505050602081019050614408565b5050509392505050565b600082601f83011261446c5761446b61423e565b5b813561447c8482602086016143d0565b91505092915050565b600061449861449384614373565b6142a8565b905080838252602082019050602084028301858111156144bb576144ba61439f565b5b835b8181101561450257803567ffffffffffffffff8111156144e0576144df61423e565b5b8086016144ed8982614457565b855260208501945050506020810190506144bd565b5050509392505050565b600082601f8301126145215761452061423e565b5b8135614531848260208601614485565b91505092915050565b600080600080600080600080610100898b03121561455b5761455a613bde565b5b600089013567ffffffffffffffff81111561457957614578613be3565b5b6145858b828c01614345565b985050602089013567ffffffffffffffff8111156145a6576145a5613be3565b5b6145b28b828c01614345565b975050604089013567ffffffffffffffff8111156145d3576145d2613be3565b5b6145df8b828c01614345565b965050606089013567ffffffffffffffff811115614600576145ff613be3565b5b61460c8b828c01614345565b955050608089013567ffffffffffffffff81111561462d5761462c613be3565b5b6146398b828c0161450c565b94505060a089013567ffffffffffffffff81111561465a57614659613be3565b5b6146668b828c0161450c565b93505060c089013567ffffffffffffffff81111561468757614686613be3565b5b6146938b828c0161450c565b92505060e089013567ffffffffffffffff8111156146b4576146b3613be3565b5b6146c08b828c0161450c565b9150509295985092959890939650565b6000602082840312156146e6576146e5613bde565b5b600082013567ffffffffffffffff81111561470457614703613be3565b5b61471084828501614345565b91505092915050565b61472281613fdd565b82525050565b600060408201905061473d6000830185614719565b818103602083015261474f8184613ca2565b90509392505050565b61476181613ff8565b82525050565b600082825260208201905092915050565b600061478382614011565b61478d8185614767565b935061479d818560208601613c67565b6147a681613c91565b840191505092915050565b60006101208201905081810360008301526147cc818c613ca2565b905081810360208301526147e0818b613ca2565b905081810360408301526147f4818a613ca2565b905081810360608301526148088189613ca2565b90506148176080830188614719565b61482460a0830187614758565b61483160c0830186614758565b81810360e08301526148438185613ca2565b90508181036101008301526148588184614778565b90509a9950505050505050505050565b600082825260208201905092915050565b600061488482613d9d565b61488e8185614868565b9350836020820285016148a085613db9565b8060005b858110156148dc57848403895281516148bd8582613e27565b94506148c883613e3b565b925060208a019950506001810190506148a4565b50829750879550505050505092915050565b600082825260208201905092915050565b600061490a82613ebd565b61491481856148ee565b93508360208202850161492685613ed9565b8060005b8581101561496257848403895281516149438582613f47565b945061494e83613f5b565b925060208a0199505060018101905061492a565b50829750879550505050505092915050565b6000604082019050818103600083015261498e8185614879565b905081810360208301526149a281846148ff565b90509392505050565b6000806000606084860312156149c4576149c3613bde565b5b600084013567ffffffffffffffff8111156149e2576149e1613be3565b5b6149ee86828701614345565b935050602084013567ffffffffffffffff811115614a0f57614a0e613be3565b5b614a1b8682870161450c565b925050604084013567ffffffffffffffff811115614a3c57614a3b613be3565b5b614a488682870161450c565b9150509250925092565b600081519050919050565b600082825260208201905092915050565b6000819050602082019050919050565b6000608083016000830151614a966000860182613fe9565b5060208301518482036020860152614aae8282613d64565b91505060408301518482036040860152614ac88282613e48565b91505060608301518482036060860152614ae28282613f68565b9150508091505092915050565b6000614afb8383614a7e565b905092915050565b6000602082019050919050565b6000614b1b82614a52565b614b258185614a5d565b935083602082028501614b3785614a6e565b8060005b85811015614b735784840389528151614b548582614aef565b9450614b5f83614b03565b925060208a01995050600181019050614b3b565b50829750879550505050505092915050565b60006020820190508181036000830152614b9f8184614b10565b905092915050565b600067ffffffffffffffff821115614bc257614bc1614248565b5b614bcb82613c91565b9050602081019050919050565b6000614beb614be684614ba7565b6142a8565b905082815260208101848484011115614c0757614c06614243565b5b614c128482856142f4565b509392505050565b600082601f830112614c2f57614c2e61423e565b5b8135614c3f848260208601614bd8565b91505092915050565b600080600080600060a08688031215614c6457614c63613bde565b5b600086013567ffffffffffffffff811115614c8257614c81613be3565b5b614c8e88828901614345565b955050602086013567ffffffffffffffff811115614caf57614cae613be3565b5b614cbb88828901614345565b945050604086013567ffffffffffffffff811115614cdc57614cdb613be3565b5b614ce888828901614345565b935050606086013567ffffffffffffffff811115614d0957614d08613be3565b5b614d1588828901614345565b925050608086013567ffffffffffffffff811115614d3657614d35613be3565b5b614d4288828901614c1a565b9150509295509295909350565b614d5881613ff8565b8114614d6357600080fd5b50565b600081359050614d7581614d4f565b92915050565b600080600060608486031215614d9457614d93613bde565b5b600084013567ffffffffffffffff811115614db257614db1613be3565b5b614dbe86828701614345565b9350506020614dcf86828701614d66565b925050604084013567ffffffffffffffff811115614df057614def613be3565b5b614dfc86828701614345565b9150509250925092565b614e0f81613fdd565b8114614e1a57600080fd5b50565b600081359050614e2c81614e06565b92915050565b600080600060608486031215614e4b57614e4a613bde565b5b600084013567ffffffffffffffff811115614e6957614e68613be3565b5b614e7586828701614345565b935050602084013567ffffffffffffffff811115614e9657614e95613be3565b5b614ea286828701614345565b9250506040614eb386828701614e1d565b9150509250925092565b7f4e487b7100000000000000000000000000000000000000000000000000000000600052602260045260246000fd5b60006002820490506001821680614f0457607f821691505b602082108103614f1757614f16614ebd565b5b50919050565b7f4e487b7100000000000000000000000000000000000000000000000000000000600052603260045260246000fd5b600081905092915050565b60008190508160005260206000209050919050565b60008154614f7981614eec565b614f838186614f4c565b94506001821660008114614f9e5760018114614fb357614fe6565b60ff1983168652811515820286019350614fe6565b614fbc85614f57565b60005b83811015614fde57815481890152600182019150602081019050614fbf565b838801955050505b50505092915050565b6000614ffb8284614f6c565b915081905092915050565b7f4e487b7100000000000000000000000000000000000000000000000000000000600052601160045260246000fd5b600061504082613be8565b91507fffffffffffffffffffffffffffffffffffffffffffffffffffffffffffffffff820361507257615071615006565b5b600182019050919050565b600061508882613c4b565b6150928185614f4c565b93506150a2818560208601613c67565b80840191505092915050565b60006150ba828461507d565b915081905092915050565b60006020601f8301049050919050565b600082821b905092915050565b6000600883026151127fffffffffffffffffffffffffffffffffffffffffffffffffffffffffffffffff826150d5565b61511c86836150d5565b95508019841693508086168417925050509392505050565b6000819050919050565b600061515961515461514f84613be8565b615134565b613be8565b9050919050565b6000819050919050565b6151738361513e565b61518761517f82615160565b8484546150e2565b825550505050565b600090565b61519c61518f565b6151a781848461516a565b505050565b5b818110156151cb576151c0600082615194565b6001810190506151ad565b5050565b601f821115615210576151e181614f57565b6151ea846150c5565b810160208510156151f9578190505b61520d615205856150c5565b8301826151ac565b50505b505050565b600082821c905092915050565b600061523360001984600802615215565b1980831691505092915050565b600061524c8383615222565b9150826002028217905092915050565b61526582613c4b565b67ffffffffffffffff81111561527e5761527d614248565b5b6152888254614eec565b6152938282856151cf565b600060209050601f8311600181146152c657600084156152b4578287015190505b6152be8582615240565b865550615326565b601f1984166152d486614f57565b60005b828110156152fc578489015182556001820191506020850194506020810190506152d7565b868310156153195784890151615315601f891682615222565b8355505b6001600288020188555050505b505050505050565b60008190508160005260206000209050919050565b601f821115615384576153558161532e565b61535e846150c5565b8101602085101561536d578190505b615381615379856150c5565b8301826151ac565b50505b505050565b61539282614011565b67ffffffffffffffff8111156153ab576153aa614248565b5b6153b58254614eec565b6153c0828285615343565b600060209050601f8311600181146153f357600084156153e1578287015190505b6153eb8582615240565b865550615453565b601f1984166154018661532e565b60005b8281101561542957848901518255600182019150602085019450602081019050615404565b868310156154465784890151615442601f891682615222565b8355505b6001600288020188555050505b50505050505056fea2646970667358221220482154592266dbedd71de0a68889782061b6d7d25d8f6a4e59bb5fd3197e2bff64736f6c63430008120033",
			"opcodes": "PUSH1 0x80 PUSH1 0x40 MSTORE CALLVALUE DUP1 ISZERO PUSH2 0x10 JUMPI PUSH1 0x0 DUP1 REVERT JUMPDEST POP PUSH2 0x5491 DUP1 PUSH2 0x20 PUSH1 0x0 CODECOPY PUSH1 0x0 RETURN INVALID PUSH1 0x80 PUSH1 0x40 MSTORE CALLVALUE DUP1 ISZERO PUSH2 0x10 JUMPI PUSH1 0x0 DUP1 REVERT JUMPDEST POP PUSH1 0x4 CALLDATASIZE LT PUSH2 0xEA JUMPI PUSH1 0x0 CALLDATALOAD PUSH1 0xE0 SHR DUP1 PUSH4 0x8813CE12 GT PUSH2 0x8C JUMPI DUP1 PUSH4 0xC97DA229 GT PUSH2 0x66 JUMPI DUP1 PUSH4 0xC97DA229 EQ PUSH2 0x26D JUMPI DUP1 PUSH4 0xDBA82A9C EQ PUSH2 0x28B JUMPI DUP1 PUSH4 0xF82E4AEE EQ PUSH2 0x2A7 JUMPI DUP1 PUSH4 0xFD9284F1 EQ PUSH2 0x2C3 JUMPI PUSH2 0xEA JUMP JUMPDEST DUP1 PUSH4 0x8813CE12 EQ PUSH2 0x215 JUMPI DUP1 PUSH4 0xAC0799E5 EQ PUSH2 0x233 JUMPI DUP1 PUSH4 0xB87DFF89 EQ PUSH2 0x24F JUMPI PUSH2 0xEA JUMP JUMPDEST DUP1 PUSH4 0x61BDFD85 GT PUSH2 0xC8 JUMPI DUP1 PUSH4 0x61BDFD85 EQ PUSH2 0x171 JUMPI DUP1 PUSH4 0x64CCEAEF EQ PUSH2 0x18D JUMPI DUP1 PUSH4 0x692D51D2 EQ PUSH2 0x1BE JUMPI DUP1 PUSH4 0x7C0A6FC1 EQ PUSH2 0x1F6 JUMPI PUSH2 0xEA JUMP JUMPDEST DUP1 PUSH4 0x2548D05D EQ PUSH2 0xEF JUMPI DUP1 PUSH4 0x303941DD EQ PUSH2 0x121 JUMPI DUP1 PUSH4 0x4D1BA790 EQ PUSH2 0x13F JUMPI JUMPDEST PUSH1 0x0 DUP1 REVERT JUMPDEST PUSH2 0x109 PUSH1 0x4 DUP1 CALLDATASIZE SUB DUP2 ADD SWAP1 PUSH2 0x104 SWAP2 SWAP1 PUSH2 0x3C1E JUMP JUMPDEST PUSH2 0x2DF JUMP JUMPDEST PUSH1 0x40 MLOAD PUSH2 0x118 SWAP4 SWAP3 SWAP2 SWAP1 PUSH2 0x3CDB JUMP JUMPDEST PUSH1 0x40 MLOAD DUP1 SWAP2 SUB SWAP1 RETURN JUMPDEST PUSH2 0x129 PUSH2 0x4B1 JUMP JUMPDEST PUSH1 0x40 MLOAD PUSH2 0x136 SWAP2 SWAP1 PUSH2 0x421C JUMP JUMPDEST PUSH1 0x40 MLOAD DUP1 SWAP2 SUB SWAP1 RETURN JUMPDEST PUSH2 0x159 PUSH1 0x4 DUP1 CALLDATASIZE SUB DUP2 ADD SWAP1 PUSH2 0x154 SWAP2 SWAP1 PUSH2 0x3C1E JUMP JUMPDEST PUSH2 0xD65 JUMP JUMPDEST PUSH1 0x40 MLOAD PUSH2 0x168 SWAP4 SWAP3 SWAP2 SWAP1 PUSH2 0x3CDB JUMP JUMPDEST PUSH1 0x40 MLOAD DUP1 SWAP2 SUB SWAP1 RETURN JUMPDEST PUSH2 0x18B PUSH1 0x4 DUP1 CALLDATASIZE SUB DUP2 ADD SWAP1 PUSH2 0x186 SWAP2 SWAP1 PUSH2 0x453A JUMP JUMPDEST PUSH2 0xF37 JUMP JUMPDEST STOP JUMPDEST PUSH2 0x1A7 PUSH1 0x4 DUP1 CALLDATASIZE SUB DUP2 ADD SWAP1 PUSH2 0x1A2 SWAP2 SWAP1 PUSH2 0x46D0 JUMP JUMPDEST PUSH2 0x12E6 JUMP JUMPDEST PUSH1 0x40 MLOAD PUSH2 0x1B5 SWAP3 SWAP2 SWAP1 PUSH2 0x4728 JUMP JUMPDEST PUSH1 0x40 MLOAD DUP1 SWAP2 SUB SWAP1 RETURN JUMPDEST PUSH2 0x1D8 PUSH1 0x4 DUP1 CALLDATASIZE SUB DUP2 ADD SWAP1 PUSH2 0x1D3 SWAP2 SWAP1 PUSH2 0x46D0 JUMP JUMPDEST PUSH2 0x13B5 JUMP JUMPDEST PUSH1 0x40 MLOAD PUSH2 0x1ED SWAP10 SWAP9 SWAP8 SWAP7 SWAP6 SWAP5 SWAP4 SWAP3 SWAP2 SWAP1 PUSH2 0x47B1 JUMP JUMPDEST PUSH1 0x40 MLOAD DUP1 SWAP2 SUB SWAP1 RETURN JUMPDEST PUSH2 0x1FE PUSH2 0x1756 JUMP JUMPDEST PUSH1 0x40 MLOAD PUSH2 0x20C SWAP3 SWAP2 SWAP1 PUSH2 0x4974 JUMP JUMPDEST PUSH1 0x40 MLOAD DUP1 SWAP2 SUB SWAP1 RETURN JUMPDEST PUSH2 0x21D PUSH2 0x1B83 JUMP JUMPDEST PUSH1 0x40 MLOAD PUSH2 0x22A SWAP2 SWAP1 PUSH2 0x421C JUMP JUMPDEST PUSH1 0x40 MLOAD DUP1 SWAP2 SUB SWAP1 RETURN JUMPDEST PUSH2 0x24D PUSH1 0x4 DUP1 CALLDATASIZE SUB DUP2 ADD SWAP1 PUSH2 0x248 SWAP2 SWAP1 PUSH2 0x49AB JUMP JUMPDEST PUSH2 0x2437 JUMP JUMPDEST STOP JUMPDEST PUSH2 0x257 PUSH2 0x2765 JUMP JUMPDEST PUSH1 0x40 MLOAD PUSH2 0x264 SWAP2 SWAP1 PUSH2 0x4B85 JUMP JUMPDEST PUSH1 0x40 MLOAD DUP1 SWAP2 SUB SWAP1 RETURN JUMPDEST PUSH2 0x275 PUSH2 0x2D2A JUMP JUMPDEST PUSH1 0x40 MLOAD PUSH2 0x282 SWAP2 SWAP1 PUSH2 0x421C JUMP JUMPDEST PUSH1 0x40 MLOAD DUP1 SWAP2 SUB SWAP1 RETURN JUMPDEST PUSH2 0x2A5 PUSH1 0x4 DUP1 CALLDATASIZE SUB DUP2 ADD SWAP1 PUSH2 0x2A0 SWAP2 SWAP1 PUSH2 0x4C48 JUMP JUMPDEST PUSH2 0x3640 JUMP JUMPDEST STOP JUMPDEST PUSH2 0x2C1 PUSH1 0x4 DUP1 CALLDATASIZE SUB DUP2 ADD SWAP1 PUSH2 0x2BC SWAP2 SWAP1 PUSH2 0x4D7B JUMP JUMPDEST PUSH2 0x36BC JUMP JUMPDEST STOP JUMPDEST PUSH2 0x2DD PUSH1 0x4 DUP1 CALLDATASIZE SUB DUP2 ADD SWAP1 PUSH2 0x2D8 SWAP2 SWAP1 PUSH2 0x4E32 JUMP JUMPDEST PUSH2 0x3708 JUMP JUMPDEST STOP JUMPDEST PUSH1 0x0 DUP2 DUP2 SLOAD DUP2 LT PUSH2 0x2EF JUMPI PUSH1 0x0 DUP1 REVERT JUMPDEST SWAP1 PUSH1 0x0 MSTORE PUSH1 0x20 PUSH1 0x0 KECCAK256 SWAP1 PUSH1 0x3 MUL ADD PUSH1 0x0 SWAP2 POP SWAP1 POP DUP1 PUSH1 0x0 ADD DUP1 SLOAD PUSH2 0x312 SWAP1 PUSH2 0x4EEC JUMP JUMPDEST DUP1 PUSH1 0x1F ADD PUSH1 0x20 DUP1 SWAP2 DIV MUL PUSH1 0x20 ADD PUSH1 0x40 MLOAD SWAP1 DUP2 ADD PUSH1 0x40 MSTORE DUP1 SWAP3 SWAP2 SWAP1 DUP2 DUP2 MSTORE PUSH1 0x20 ADD DUP3 DUP1 SLOAD PUSH2 0x33E SWAP1 PUSH2 0x4EEC JUMP JUMPDEST DUP1 ISZERO PUSH2 0x38B JUMPI DUP1 PUSH1 0x1F LT PUSH2 0x360 JUMPI PUSH2 0x100 DUP1 DUP4 SLOAD DIV MUL DUP4 MSTORE SWAP2 PUSH1 0x20 ADD SWAP2 PUSH2 0x38B JUMP JUMPDEST DUP3 ADD SWAP2 SWAP1 PUSH1 0x0 MSTORE PUSH1 0x20 PUSH1 0x0 KECCAK256 SWAP1 JUMPDEST DUP2 SLOAD DUP2 MSTORE SWAP1 PUSH1 0x1 ADD SWAP1 PUSH1 0x20 ADD DUP1 DUP4 GT PUSH2 0x36E JUMPI DUP3 SWAP1 SUB PUSH1 0x1F AND DUP3 ADD SWAP2 JUMPDEST POP POP POP POP POP SWAP1 DUP1 PUSH1 0x1 ADD DUP1 SLOAD PUSH2 0x3A0 SWAP1 PUSH2 0x4EEC JUMP JUMPDEST DUP1 PUSH1 0x1F ADD PUSH1 0x20 DUP1 SWAP2 DIV MUL PUSH1 0x20 ADD PUSH1 0x40 MLOAD SWAP1 DUP2 ADD PUSH1 0x40 MSTORE DUP1 SWAP3 SWAP2 SWAP1 DUP2 DUP2 MSTORE PUSH1 0x20 ADD DUP3 DUP1 SLOAD PUSH2 0x3CC SWAP1 PUSH2 0x4EEC JUMP JUMPDEST DUP1 ISZERO PUSH2 0x419 JUMPI DUP1 PUSH1 0x1F LT PUSH2 0x3EE JUMPI PUSH2 0x100 DUP1 DUP4 SLOAD DIV MUL DUP4 MSTORE SWAP2 PUSH1 0x20 ADD SWAP2 PUSH2 0x419 JUMP JUMPDEST DUP3 ADD SWAP2 SWAP1 PUSH1 0x0 MSTORE PUSH1 0x20 PUSH1 0x0 KECCAK256 SWAP1 JUMPDEST DUP2 SLOAD DUP2 MSTORE SWAP1 PUSH1 0x1 ADD SWAP1 PUSH1 0x20 ADD DUP1 DUP4 GT PUSH2 0x3FC JUMPI DUP3 SWAP1 SUB PUSH1 0x1F AND DUP3 ADD SWAP2 JUMPDEST POP POP POP POP POP SWAP1 DUP1 PUSH1 0x2 ADD DUP1 SLOAD PUSH2 0x42E SWAP1 PUSH2 0x4EEC JUMP JUMPDEST DUP1 PUSH1 0x1F ADD PUSH1 0x20 DUP1 SWAP2 DIV MUL PUSH1 0x20 ADD PUSH1 0x40 MLOAD SWAP1 DUP2 ADD PUSH1 0x40 MSTORE DUP1 SWAP3 SWAP2 SWAP1 DUP2 DUP2 MSTORE PUSH1 0x20 ADD DUP3 DUP1 SLOAD PUSH2 0x45A SWAP1 PUSH2 0x4EEC JUMP JUMPDEST DUP1 ISZERO PUSH2 0x4A7 JUMPI DUP1 PUSH1 0x1F LT PUSH2 0x47C JUMPI PUSH2 0x100 DUP1 DUP4 SLOAD DIV MUL DUP4 MSTORE SWAP2 PUSH1 0x20 ADD SWAP2 PUSH2 0x4A7 JUMP JUMPDEST DUP3 ADD SWAP2 SWAP1 PUSH1 0x0 MSTORE PUSH1 0x20 PUSH1 0x0 KECCAK256 SWAP1 JUMPDEST DUP2 SLOAD DUP2 MSTORE SWAP1 PUSH1 0x1 ADD SWAP1 PUSH1 0x20 ADD DUP1 DUP4 GT PUSH2 0x48A JUMPI DUP3 SWAP1 SUB PUSH1 0x1F AND DUP3 ADD SWAP2 JUMPDEST POP POP POP POP POP SWAP1 POP DUP4 JUMP JUMPDEST PUSH1 0x60 PUSH1 0x0 PUSH1 0x5 DUP1 SLOAD SWAP1 POP PUSH8 0xFFFFFFFFFFFFFFFF DUP2 GT ISZERO PUSH2 0x4D4 JUMPI PUSH2 0x4D3 PUSH2 0x4248 JUMP JUMPDEST JUMPDEST PUSH1 0x40 MLOAD SWAP1 DUP1 DUP3 MSTORE DUP1 PUSH1 0x20 MUL PUSH1 0x20 ADD DUP3 ADD PUSH1 0x40 MSTORE DUP1 ISZERO PUSH2 0x50D JUMPI DUP2 PUSH1 0x20 ADD JUMPDEST PUSH2 0x4FA PUSH2 0x3A1B JUMP JUMPDEST DUP2 MSTORE PUSH1 0x20 ADD SWAP1 PUSH1 0x1 SWAP1 SUB SWAP1 DUP2 PUSH2 0x4F2 JUMPI SWAP1 POP JUMPDEST POP SWAP1 POP PUSH1 0x0 JUMPDEST PUSH1 0x5 DUP1 SLOAD SWAP1 POP DUP2 LT ISZERO PUSH2 0xD5D JUMPI PUSH1 0x4 PUSH1 0x5 DUP3 DUP2 SLOAD DUP2 LT PUSH2 0x536 JUMPI PUSH2 0x535 PUSH2 0x4F1D JUMP JUMPDEST JUMPDEST SWAP1 PUSH1 0x0 MSTORE PUSH1 0x20 PUSH1 0x0 KECCAK256 ADD PUSH1 0x40 MLOAD PUSH2 0x54D SWAP2 SWAP1 PUSH2 0x4FEF JUMP JUMPDEST SWAP1 DUP2 MSTORE PUSH1 0x20 ADD PUSH1 0x40 MLOAD DUP1 SWAP2 SUB SWAP1 KECCAK256 PUSH1 0x40 MLOAD DUP1 PUSH2 0x160 ADD PUSH1 0x40 MSTORE SWAP1 DUP2 PUSH1 0x0 DUP3 ADD DUP1 SLOAD PUSH2 0x577 SWAP1 PUSH2 0x4EEC JUMP JUMPDEST DUP1 PUSH1 0x1F ADD PUSH1 0x20 DUP1 SWAP2 DIV MUL PUSH1 0x20 ADD PUSH1 0x40 MLOAD SWAP1 DUP2 ADD PUSH1 0x40 MSTORE DUP1 SWAP3 SWAP2 SWAP1 DUP2 DUP2 MSTORE PUSH1 0x20 ADD DUP3 DUP1 SLOAD PUSH2 0x5A3 SWAP1 PUSH2 0x4EEC JUMP JUMPDEST DUP1 ISZERO PUSH2 0x5F0 JUMPI DUP1 PUSH1 0x1F LT PUSH2 0x5C5 JUMPI PUSH2 0x100 DUP1 DUP4 SLOAD DIV MUL DUP4 MSTORE SWAP2 PUSH1 0x20 ADD SWAP2 PUSH2 0x5F0 JUMP JUMPDEST DUP3 ADD SWAP2 SWAP1 PUSH1 0x0 MSTORE PUSH1 0x20 PUSH1 0x0 KECCAK256 SWAP1 JUMPDEST DUP2 SLOAD DUP2 MSTORE SWAP1 PUSH1 0x1 ADD SWAP1 PUSH1 0x20 ADD DUP1 DUP4 GT PUSH2 0x5D3 JUMPI DUP3 SWAP1 SUB PUSH1 0x1F AND DUP3 ADD SWAP2 JUMPDEST POP POP POP POP POP DUP2 MSTORE PUSH1 0x20 ADD PUSH1 0x1 DUP3 ADD DUP1 SLOAD PUSH2 0x609 SWAP1 PUSH2 0x4EEC JUMP JUMPDEST DUP1 PUSH1 0x1F ADD PUSH1 0x20 DUP1 SWAP2 DIV MUL PUSH1 0x20 ADD PUSH1 0x40 MLOAD SWAP1 DUP2 ADD PUSH1 0x40 MSTORE DUP1 SWAP3 SWAP2 SWAP1 DUP2 DUP2 MSTORE PUSH1 0x20 ADD DUP3 DUP1 SLOAD PUSH2 0x635 SWAP1 PUSH2 0x4EEC JUMP JUMPDEST DUP1 ISZERO PUSH2 0x682 JUMPI DUP1 PUSH1 0x1F LT PUSH2 0x657 JUMPI PUSH2 0x100 DUP1 DUP4 SLOAD DIV MUL DUP4 MSTORE SWAP2 PUSH1 0x20 ADD SWAP2 PUSH2 0x682 JUMP JUMPDEST DUP3 ADD SWAP2 SWAP1 PUSH1 0x0 MSTORE PUSH1 0x20 PUSH1 0x0 KECCAK256 SWAP1 JUMPDEST DUP2 SLOAD DUP2 MSTORE SWAP1 PUSH1 0x1 ADD SWAP1 PUSH1 0x20 ADD DUP1 DUP4 GT PUSH2 0x665 JUMPI DUP3 SWAP1 SUB PUSH1 0x1F AND DUP3 ADD SWAP2 JUMPDEST POP POP POP POP POP DUP2 MSTORE PUSH1 0x20 ADD PUSH1 0x2 DUP3 ADD DUP1 SLOAD PUSH2 0x69B SWAP1 PUSH2 0x4EEC JUMP JUMPDEST DUP1 PUSH1 0x1F ADD PUSH1 0x20 DUP1 SWAP2 DIV MUL PUSH1 0x20 ADD PUSH1 0x40 MLOAD SWAP1 DUP2 ADD PUSH1 0x40 MSTORE DUP1 SWAP3 SWAP2 SWAP1 DUP2 DUP2 MSTORE PUSH1 0x20 ADD DUP3 DUP1 SLOAD PUSH2 0x6C7 SWAP1 PUSH2 0x4EEC JUMP JUMPDEST DUP1 ISZERO PUSH2 0x714 JUMPI DUP1 PUSH1 0x1F LT PUSH2 0x6E9 JUMPI PUSH2 0x100 DUP1 DUP4 SLOAD DIV MUL DUP4 MSTORE SWAP2 PUSH1 0x20 ADD SWAP2 PUSH2 0x714 JUMP JUMPDEST DUP3 ADD SWAP2 SWAP1 PUSH1 0x0 MSTORE PUSH1 0x20 PUSH1 0x0 KECCAK256 SWAP1 JUMPDEST DUP2 SLOAD DUP2 MSTORE SWAP1 PUSH1 0x1 ADD SWAP1 PUSH1 0x20 ADD DUP1 DUP4 GT PUSH2 0x6F7 JUMPI DUP3 SWAP1 SUB PUSH1 0x1F AND DUP3 ADD SWAP2 JUMPDEST POP POP POP POP POP DUP2 MSTORE PUSH1 0x20 ADD PUSH1 0x3 DUP3 ADD DUP1 SLOAD PUSH2 0x72D SWAP1 PUSH2 0x4EEC JUMP JUMPDEST DUP1 PUSH1 0x1F ADD PUSH1 0x20 DUP1 SWAP2 DIV MUL PUSH1 0x20 ADD PUSH1 0x40 MLOAD SWAP1 DUP2 ADD PUSH1 0x40 MSTORE DUP1 SWAP3 SWAP2 SWAP1 DUP2 DUP2 MSTORE PUSH1 0x20 ADD DUP3 DUP1 SLOAD PUSH2 0x759 SWAP1 PUSH2 0x4EEC JUMP JUMPDEST DUP1 ISZERO PUSH2 0x7A6 JUMPI DUP1 PUSH1 0x1F LT PUSH2 0x77B JUMPI PUSH2 0x100 DUP1 DUP4 SLOAD DIV MUL DUP4 MSTORE SWAP2 PUSH1 0x20 ADD SWAP2 PUSH2 0x7A6 JUMP JUMPDEST DUP3 ADD SWAP2 SWAP1 PUSH1 0x0 MSTORE PUSH1 0x20 PUSH1 0x0 KECCAK256 SWAP1 JUMPDEST DUP2 SLOAD DUP2 MSTORE SWAP1 PUSH1 0x1 ADD SWAP1 PUSH1 0x20 ADD DUP1 DUP4 GT PUSH2 0x789 JUMPI DUP3 SWAP1 SUB PUSH1 0x1F AND DUP3 ADD SWAP2 JUMPDEST POP POP POP POP POP DUP2 MSTORE PUSH1 0x20 ADD PUSH1 0x4 DUP3 ADD DUP1 SLOAD DUP1 PUSH1 0x20 MUL PUSH1 0x20 ADD PUSH1 0x40 MLOAD SWAP1 DUP2 ADD PUSH1 0x40 MSTORE DUP1 SWAP3 SWAP2 SWAP1 DUP2 DUP2 MSTORE PUSH1 0x20 ADD PUSH1 0x0 SWAP1 JUMPDEST DUP3 DUP3 LT ISZERO PUSH2 0x9BC JUMPI DUP4 DUP3 SWAP1 PUSH1 0x0 MSTORE PUSH1 0x20 PUSH1 0x0 KECCAK256 SWAP1 PUSH1 0x3 MUL ADD PUSH1 0x40 MLOAD DUP1 PUSH1 0x60 ADD PUSH1 0x40 MSTORE SWAP1 DUP2 PUSH1 0x0 DUP3 ADD DUP1 SLOAD PUSH2 0x807 SWAP1 PUSH2 0x4EEC JUMP JUMPDEST DUP1 PUSH1 0x1F ADD PUSH1 0x20 DUP1 SWAP2 DIV MUL PUSH1 0x20 ADD PUSH1 0x40 MLOAD SWAP1 DUP2 ADD PUSH1 0x40 MSTORE DUP1 SWAP3 SWAP2 SWAP1 DUP2 DUP2 MSTORE PUSH1 0x20 ADD DUP3 DUP1 SLOAD PUSH2 0x833 SWAP1 PUSH2 0x4EEC JUMP JUMPDEST DUP1 ISZERO PUSH2 0x880 JUMPI DUP1 PUSH1 0x1F LT PUSH2 0x855 JUMPI PUSH2 0x100 DUP1 DUP4 SLOAD DIV MUL DUP4 MSTORE SWAP2 PUSH1 0x20 ADD SWAP2 PUSH2 0x880 JUMP JUMPDEST DUP3 ADD SWAP2 SWAP1 PUSH1 0x0 MSTORE PUSH1 0x20 PUSH1 0x0 KECCAK256 SWAP1 JUMPDEST DUP2 SLOAD DUP2 MSTORE SWAP1 PUSH1 0x1 ADD SWAP1 PUSH1 0x20 ADD DUP1 DUP4 GT PUSH2 0x863 JUMPI DUP3 SWAP1 SUB PUSH1 0x1F AND DUP3 ADD SWAP2 JUMPDEST POP POP POP POP POP DUP2 MSTORE PUSH1 0x20 ADD PUSH1 0x1 DUP3 ADD DUP1 SLOAD PUSH2 0x899 SWAP1 PUSH2 0x4EEC JUMP JUMPDEST DUP1 PUSH1 0x1F ADD PUSH1 0x20 DUP1 SWAP2 DIV MUL PUSH1 0x20 ADD PUSH1 0x40 MLOAD SWAP1 DUP2 ADD PUSH1 0x40 MSTORE DUP1 SWAP3 SWAP2 SWAP1 DUP2 DUP2 MSTORE PUSH1 0x20 ADD DUP3 DUP1 SLOAD PUSH2 0x8C5 SWAP1 PUSH2 0x4EEC JUMP JUMPDEST DUP1 ISZERO PUSH2 0x912 JUMPI DUP1 PUSH1 0x1F LT PUSH2 0x8E7 JUMPI PUSH2 0x100 DUP1 DUP4 SLOAD DIV MUL DUP4 MSTORE SWAP2 PUSH1 0x20 ADD SWAP2 PUSH2 0x912 JUMP JUMPDEST DUP3 ADD SWAP2 SWAP1 PUSH1 0x0 MSTORE PUSH1 0x20 PUSH1 0x0 KECCAK256 SWAP1 JUMPDEST DUP2 SLOAD DUP2 MSTORE SWAP1 PUSH1 0x1 ADD SWAP1 PUSH1 0x20 ADD DUP1 DUP4 GT PUSH2 0x8F5 JUMPI DUP3 SWAP1 SUB PUSH1 0x1F AND DUP3 ADD SWAP2 JUMPDEST POP POP POP POP POP DUP2 MSTORE PUSH1 0x20 ADD PUSH1 0x2 DUP3 ADD DUP1 SLOAD PUSH2 0x92B SWAP1 PUSH2 0x4EEC JUMP JUMPDEST DUP1 PUSH1 0x1F ADD PUSH1 0x20 DUP1 SWAP2 DIV MUL PUSH1 0x20 ADD PUSH1 0x40 MLOAD SWAP1 DUP2 ADD PUSH1 0x40 MSTORE DUP1 SWAP3 SWAP2 SWAP1 DUP2 DUP2 MSTORE PUSH1 0x20 ADD DUP3 DUP1 SLOAD PUSH2 0x957 SWAP1 PUSH2 0x4EEC JUMP JUMPDEST DUP1 ISZERO PUSH2 0x9A4 JUMPI DUP1 PUSH1 0x1F LT PUSH2 0x979 JUMPI PUSH2 0x100 DUP1 DUP4 SLOAD DIV MUL DUP4 MSTORE SWAP2 PUSH1 0x20 ADD SWAP2 PUSH2 0x9A4 JUMP JUMPDEST DUP3 ADD SWAP2 SWAP1 PUSH1 0x0 MSTORE PUSH1 0x20 PUSH1 0x0 KECCAK256 SWAP1 JUMPDEST DUP2 SLOAD DUP2 MSTORE SWAP1 PUSH1 0x1 ADD SWAP1 PUSH1 0x20 ADD DUP1 DUP4 GT PUSH2 0x987 JUMPI DUP3 SWAP1 SUB PUSH1 0x1F AND DUP3 ADD SWAP2 JUMPDEST POP POP POP POP POP DUP2 MSTORE POP POP DUP2 MSTORE PUSH1 0x20 ADD SWAP1 PUSH1 0x1 ADD SWAP1 PUSH2 0x7D4 JUMP JUMPDEST POP POP POP POP DUP2 MSTORE PUSH1 0x20 ADD PUSH1 0x5 DUP3 ADD DUP1 SLOAD DUP1 PUSH1 0x20 MUL PUSH1 0x20 ADD PUSH1 0x40 MLOAD SWAP1 DUP2 ADD PUSH1 0x40 MSTORE DUP1 SWAP3 SWAP2 SWAP1 DUP2 DUP2 MSTORE PUSH1 0x20 ADD PUSH1 0x0 SWAP1 JUMPDEST DUP3 DUP3 LT ISZERO PUSH2 0xBD1 JUMPI DUP4 DUP3 SWAP1 PUSH1 0x0 MSTORE PUSH1 0x20 PUSH1 0x0 KECCAK256 SWAP1 PUSH1 0x3 MUL ADD PUSH1 0x40 MLOAD DUP1 PUSH1 0x60 ADD PUSH1 0x40 MSTORE SWAP1 DUP2 PUSH1 0x0 DUP3 ADD DUP1 SLOAD PUSH2 0xA1C SWAP1 PUSH2 0x4EEC JUMP JUMPDEST DUP1 PUSH1 0x1F ADD PUSH1 0x20 DUP1 SWAP2 DIV MUL PUSH1 0x20 ADD PUSH1 0x40 MLOAD SWAP1 DUP2 ADD PUSH1 0x40 MSTORE DUP1 SWAP3 SWAP2 SWAP1 DUP2 DUP2 MSTORE PUSH1 0x20 ADD DUP3 DUP1 SLOAD PUSH2 0xA48 SWAP1 PUSH2 0x4EEC JUMP JUMPDEST DUP1 ISZERO PUSH2 0xA95 JUMPI DUP1 PUSH1 0x1F LT PUSH2 0xA6A JUMPI PUSH2 0x100 DUP1 DUP4 SLOAD DIV MUL DUP4 MSTORE SWAP2 PUSH1 0x20 ADD SWAP2 PUSH2 0xA95 JUMP JUMPDEST DUP3 ADD SWAP2 SWAP1 PUSH1 0x0 MSTORE PUSH1 0x20 PUSH1 0x0 KECCAK256 SWAP1 JUMPDEST DUP2 SLOAD DUP2 MSTORE SWAP1 PUSH1 0x1 ADD SWAP1 PUSH1 0x20 ADD DUP1 DUP4 GT PUSH2 0xA78 JUMPI DUP3 SWAP1 SUB PUSH1 0x1F AND DUP3 ADD SWAP2 JUMPDEST POP POP POP POP POP DUP2 MSTORE PUSH1 0x20 ADD PUSH1 0x1 DUP3 ADD DUP1 SLOAD PUSH2 0xAAE SWAP1 PUSH2 0x4EEC JUMP JUMPDEST DUP1 PUSH1 0x1F ADD PUSH1 0x20 DUP1 SWAP2 DIV MUL PUSH1 0x20 ADD PUSH1 0x40 MLOAD SWAP1 DUP2 ADD PUSH1 0x40 MSTORE DUP1 SWAP3 SWAP2 SWAP1 DUP2 DUP2 MSTORE PUSH1 0x20 ADD DUP3 DUP1 SLOAD PUSH2 0xADA SWAP1 PUSH2 0x4EEC JUMP JUMPDEST DUP1 ISZERO PUSH2 0xB27 JUMPI DUP1 PUSH1 0x1F LT PUSH2 0xAFC JUMPI PUSH2 0x100 DUP1 DUP4 SLOAD DIV MUL DUP4 MSTORE SWAP2 PUSH1 0x20 ADD SWAP2 PUSH2 0xB27 JUMP JUMPDEST DUP3 ADD SWAP2 SWAP1 PUSH1 0x0 MSTORE PUSH1 0x20 PUSH1 0x0 KECCAK256 SWAP1 JUMPDEST DUP2 SLOAD DUP2 MSTORE SWAP1 PUSH1 0x1 ADD SWAP1 PUSH1 0x20 ADD DUP1 DUP4 GT PUSH2 0xB0A JUMPI DUP3 SWAP1 SUB PUSH1 0x1F AND DUP3 ADD SWAP2 JUMPDEST POP POP POP POP POP DUP2 MSTORE PUSH1 0x20 ADD PUSH1 0x2 DUP3 ADD DUP1 SLOAD PUSH2 0xB40 SWAP1 PUSH2 0x4EEC JUMP JUMPDEST DUP1 PUSH1 0x1F ADD PUSH1 0x20 DUP1 SWAP2 DIV MUL PUSH1 0x20 ADD PUSH1 0x40 MLOAD SWAP1 DUP2 ADD PUSH1 0x40 MSTORE DUP1 SWAP3 SWAP2 SWAP1 DUP2 DUP2 MSTORE PUSH1 0x20 ADD DUP3 DUP1 SLOAD PUSH2 0xB6C SWAP1 PUSH2 0x4EEC JUMP JUMPDEST DUP1 ISZERO PUSH2 0xBB9 JUMPI DUP1 PUSH1 0x1F LT PUSH2 0xB8E JUMPI PUSH2 0x100 DUP1 DUP4 SLOAD DIV MUL DUP4 MSTORE SWAP2 PUSH1 0x20 ADD SWAP2 PUSH2 0xBB9 JUMP JUMPDEST DUP3 ADD SWAP2 SWAP1 PUSH1 0x0 MSTORE PUSH1 0x20 PUSH1 0x0 KECCAK256 SWAP1 JUMPDEST DUP2 SLOAD DUP2 MSTORE SWAP1 PUSH1 0x1 ADD SWAP1 PUSH1 0x20 ADD DUP1 DUP4 GT PUSH2 0xB9C JUMPI DUP3 SWAP1 SUB PUSH1 0x1F AND DUP3 ADD SWAP2 JUMPDEST POP POP POP POP POP DUP2 MSTORE POP POP DUP2 MSTORE PUSH1 0x20 ADD SWAP1 PUSH1 0x1 ADD SWAP1 PUSH2 0x9E9 JUMP JUMPDEST POP POP POP POP DUP2 MSTORE PUSH1 0x20 ADD PUSH1 0x6 DUP3 ADD PUSH1 0x0 SWAP1 SLOAD SWAP1 PUSH2 0x100 EXP SWAP1 DIV PUSH1 0xFF AND ISZERO ISZERO ISZERO ISZERO DUP2 MSTORE PUSH1 0x20 ADD PUSH1 0x7 DUP3 ADD SLOAD DUP2 MSTORE PUSH1 0x20 ADD PUSH1 0x8 DUP3 ADD SLOAD DUP2 MSTORE PUSH1 0x20 ADD PUSH1 0x9 DUP3 ADD DUP1 SLOAD PUSH2 0xC18 SWAP1 PUSH2 0x4EEC JUMP JUMPDEST DUP1 PUSH1 0x1F ADD PUSH1 0x20 DUP1 SWAP2 DIV MUL PUSH1 0x20 ADD PUSH1 0x40 MLOAD SWAP1 DUP2 ADD PUSH1 0x40 MSTORE DUP1 SWAP3 SWAP2 SWAP1 DUP2 DUP2 MSTORE PUSH1 0x20 ADD DUP3 DUP1 SLOAD PUSH2 0xC44 SWAP1 PUSH2 0x4EEC JUMP JUMPDEST DUP1 ISZERO PUSH2 0xC91 JUMPI DUP1 PUSH1 0x1F LT PUSH2 0xC66 JUMPI PUSH2 0x100 DUP1 DUP4 SLOAD DIV MUL DUP4 MSTORE SWAP2 PUSH1 0x20 ADD SWAP2 PUSH2 0xC91 JUMP JUMPDEST DUP3 ADD SWAP2 SWAP1 PUSH1 0x0 MSTORE PUSH1 0x20 PUSH1 0x0 KECCAK256 SWAP1 JUMPDEST DUP2 SLOAD DUP2 MSTORE SWAP1 PUSH1 0x1 ADD SWAP1 PUSH1 0x20 ADD DUP1 DUP4 GT PUSH2 0xC74 JUMPI DUP3 SWAP1 SUB PUSH1 0x1F AND DUP3 ADD SWAP2 JUMPDEST POP POP POP POP POP DUP2 MSTORE PUSH1 0x20 ADD PUSH1 0xA DUP3 ADD DUP1 SLOAD PUSH2 0xCAA SWAP1 PUSH2 0x4EEC JUMP JUMPDEST DUP1 PUSH1 0x1F ADD PUSH1 0x20 DUP1 SWAP2 DIV MUL PUSH1 0x20 ADD PUSH1 0x40 MLOAD SWAP1 DUP2 ADD PUSH1 0x40 MSTORE DUP1 SWAP3 SWAP2 SWAP1 DUP2 DUP2 MSTORE PUSH1 0x20 ADD DUP3 DUP1 SLOAD PUSH2 0xCD6 SWAP1 PUSH2 0x4EEC JUMP JUMPDEST DUP1 ISZERO PUSH2 0xD23 JUMPI DUP1 PUSH1 0x1F LT PUSH2 0xCF8 JUMPI PUSH2 0x100 DUP1 DUP4 SLOAD DIV MUL DUP4 MSTORE SWAP2 PUSH1 0x20 ADD SWAP2 PUSH2 0xD23 JUMP JUMPDEST DUP3 ADD SWAP2 SWAP1 PUSH1 0x0 MSTORE PUSH1 0x20 PUSH1 0x0 KECCAK256 SWAP1 JUMPDEST DUP2 SLOAD DUP2 MSTORE SWAP1 PUSH1 0x1 ADD SWAP1 PUSH1 0x20 ADD DUP1 DUP4 GT PUSH2 0xD06 JUMPI DUP3 SWAP1 SUB PUSH1 0x1F AND DUP3 ADD SWAP2 JUMPDEST POP POP POP POP POP DUP2 MSTORE POP POP DUP3 DUP3 DUP2 MLOAD DUP2 LT PUSH2 0xD3F JUMPI PUSH2 0xD3E PUSH2 0x4F1D JUMP JUMPDEST JUMPDEST PUSH1 0x20 MUL PUSH1 0x20 ADD ADD DUP2 SWAP1 MSTORE POP DUP1 DUP1 PUSH2 0xD55 SWAP1 PUSH2 0x5035 JUMP JUMPDEST SWAP2 POP POP PUSH2 0x513 JUMP JUMPDEST POP DUP1 SWAP2 POP POP SWAP1 JUMP JUMPDEST PUSH1 0x1 DUP2 DUP2 SLOAD DUP2 LT PUSH2 0xD75 JUMPI PUSH1 0x0 DUP1 REVERT JUMPDEST SWAP1 PUSH1 0x0 MSTORE PUSH1 0x20 PUSH1 0x0 KECCAK256 SWAP1 PUSH1 0x3 MUL ADD PUSH1 0x0 SWAP2 POP SWAP1 POP DUP1 PUSH1 0x0 ADD DUP1 SLOAD PUSH2 0xD98 SWAP1 PUSH2 0x4EEC JUMP JUMPDEST DUP1 PUSH1 0x1F ADD PUSH1 0x20 DUP1 SWAP2 DIV MUL PUSH1 0x20 ADD PUSH1 0x40 MLOAD SWAP1 DUP2 ADD PUSH1 0x40 MSTORE DUP1 SWAP3 SWAP2 SWAP1 DUP2 DUP2 MSTORE PUSH1 0x20 ADD DUP3 DUP1 SLOAD PUSH2 0xDC4 SWAP1 PUSH2 0x4EEC JUMP JUMPDEST DUP1 ISZERO PUSH2 0xE11 JUMPI DUP1 PUSH1 0x1F LT PUSH2 0xDE6 JUMPI PUSH2 0x100 DUP1 DUP4 SLOAD DIV MUL DUP4 MSTORE SWAP2 PUSH1 0x20 ADD SWAP2 PUSH2 0xE11 JUMP JUMPDEST DUP3 ADD SWAP2 SWAP1 PUSH1 0x0 MSTORE PUSH1 0x20 PUSH1 0x0 KECCAK256 SWAP1 JUMPDEST DUP2 SLOAD DUP2 MSTORE SWAP1 PUSH1 0x1 ADD SWAP1 PUSH1 0x20 ADD DUP1 DUP4 GT PUSH2 0xDF4 JUMPI DUP3 SWAP1 SUB PUSH1 0x1F AND DUP3 ADD SWAP2 JUMPDEST POP POP POP POP POP SWAP1 DUP1 PUSH1 0x1 ADD DUP1 SLOAD PUSH2 0xE26 SWAP1 PUSH2 0x4EEC JUMP JUMPDEST DUP1 PUSH1 0x1F ADD PUSH1 0x20 DUP1 SWAP2 DIV MUL PUSH1 0x20 ADD PUSH1 0x40 MLOAD SWAP1 DUP2 ADD PUSH1 0x40 MSTORE DUP1 SWAP3 SWAP2 SWAP1 DUP2 DUP2 MSTORE PUSH1 0x20 ADD DUP3 DUP1 SLOAD PUSH2 0xE52 SWAP1 PUSH2 0x4EEC JUMP JUMPDEST DUP1 ISZERO PUSH2 0xE9F JUMPI DUP1 PUSH1 0x1F LT PUSH2 0xE74 JUMPI PUSH2 0x100 DUP1 DUP4 SLOAD DIV MUL DUP4 MSTORE SWAP2 PUSH1 0x20 ADD SWAP2 PUSH2 0xE9F JUMP JUMPDEST DUP3 ADD SWAP2 SWAP1 PUSH1 0x0 MSTORE PUSH1 0x20 PUSH1 0x0 KECCAK256 SWAP1 JUMPDEST DUP2 SLOAD DUP2 MSTORE SWAP1 PUSH1 0x1 ADD SWAP1 PUSH1 0x20 ADD DUP1 DUP4 GT PUSH2 0xE82 JUMPI DUP3 SWAP1 SUB PUSH1 0x1F AND DUP3 ADD SWAP2 JUMPDEST POP POP POP POP POP SWAP1 DUP1 PUSH1 0x2 ADD DUP1 SLOAD PUSH2 0xEB4 SWAP1 PUSH2 0x4EEC JUMP JUMPDEST DUP1 PUSH1 0x1F ADD PUSH1 0x20 DUP1 SWAP2 DIV MUL PUSH1 0x20 ADD PUSH1 0x40 MLOAD SWAP1 DUP2 ADD PUSH1 0x40 MSTORE DUP1 SWAP3 SWAP2 SWAP1 DUP2 DUP2 MSTORE PUSH1 0x20 ADD DUP3 DUP1 SLOAD PUSH2 0xEE0 SWAP1 PUSH2 0x4EEC JUMP JUMPDEST DUP1 ISZERO PUSH2 0xF2D JUMPI DUP1 PUSH1 0x1F LT PUSH2 0xF02 JUMPI PUSH2 0x100 DUP1 DUP4 SLOAD DIV MUL DUP4 MSTORE SWAP2 PUSH1 0x20 ADD SWAP2 PUSH2 0xF2D JUMP JUMPDEST DUP3 ADD SWAP2 SWAP1 PUSH1 0x0 MSTORE PUSH1 0x20 PUSH1 0x0 KECCAK256 SWAP1 JUMPDEST DUP2 SLOAD DUP2 MSTORE SWAP1 PUSH1 0x1 ADD SWAP1 PUSH1 0x20 ADD DUP1 DUP4 GT PUSH2 0xF10 JUMPI DUP3 SWAP1 SUB PUSH1 0x1F AND DUP3 ADD SWAP2 JUMPDEST POP POP POP POP POP SWAP1 POP DUP4 JUMP JUMPDEST PUSH2 0xF41 DUP3 DUP3 PUSH2 0x375E JUMP JUMPDEST PUSH1 0x1 PUSH1 0x2 DUP9 PUSH1 0x40 MLOAD PUSH2 0xF53 SWAP2 SWAP1 PUSH2 0x50AE JUMP JUMPDEST SWAP1 DUP2 MSTORE PUSH1 0x20 ADD PUSH1 0x40 MLOAD DUP1 SWAP2 SUB SWAP1 KECCAK256 PUSH1 0x0 ADD PUSH1 0x0 PUSH2 0x100 EXP DUP2 SLOAD DUP2 PUSH1 0xFF MUL NOT AND SWAP1 DUP4 ISZERO ISZERO MUL OR SWAP1 SSTORE POP PUSH1 0x0 PUSH1 0x4 DUP8 PUSH1 0x40 MLOAD PUSH2 0xF8D SWAP2 SWAP1 PUSH2 0x50AE JUMP JUMPDEST SWAP1 DUP2 MSTORE PUSH1 0x20 ADD PUSH1 0x40 MLOAD DUP1 SWAP2 SUB SWAP1 KECCAK256 SWAP1 POP PUSH1 0x5 DUP8 SWAP1 DUP1 PUSH1 0x1 DUP2 SLOAD ADD DUP1 DUP3 SSTORE DUP1 SWAP2 POP POP PUSH1 0x1 SWAP1 SUB SWAP1 PUSH1 0x0 MSTORE PUSH1 0x20 PUSH1 0x0 KECCAK256 ADD PUSH1 0x0 SWAP1 SWAP2 SWAP1 SWAP2 SWAP1 SWAP2 POP SWAP1 DUP2 PUSH2 0xFD1 SWAP2 SWAP1 PUSH2 0x525C JUMP JUMPDEST POP DUP7 DUP2 PUSH1 0x1 ADD SWAP1 DUP2 PUSH2 0xFE3 SWAP2 SWAP1 PUSH2 0x525C JUMP JUMPDEST POP DUP6 DUP2 PUSH1 0x2 ADD SWAP1 DUP2 PUSH2 0xFF5 SWAP2 SWAP1 PUSH2 0x525C JUMP JUMPDEST POP PUSH1 0x0 DUP2 PUSH1 0x8 ADD DUP2 SWAP1 SSTORE POP PUSH1 0x0 DUP2 PUSH1 0x6 ADD PUSH1 0x0 PUSH2 0x100 EXP DUP2 SLOAD DUP2 PUSH1 0xFF MUL NOT AND SWAP1 DUP4 ISZERO ISZERO MUL OR SWAP1 SSTORE POP PUSH1 0x0 DUP2 PUSH1 0x7 ADD DUP2 SWAP1 SSTORE POP DUP9 DUP2 PUSH1 0x0 ADD SWAP1 DUP2 PUSH2 0x1038 SWAP2 SWAP1 PUSH2 0x525C JUMP JUMPDEST POP PUSH1 0x0 JUMPDEST DUP6 MLOAD DUP2 LT ISZERO PUSH2 0x1189 JUMPI PUSH1 0x0 PUSH1 0x40 MLOAD DUP1 PUSH1 0x60 ADD PUSH1 0x40 MSTORE DUP1 DUP9 DUP5 DUP2 MLOAD DUP2 LT PUSH2 0x1065 JUMPI PUSH2 0x1064 PUSH2 0x4F1D JUMP JUMPDEST JUMPDEST PUSH1 0x20 MUL PUSH1 0x20 ADD ADD MLOAD PUSH1 0x0 DUP2 MLOAD DUP2 LT PUSH2 0x1080 JUMPI PUSH2 0x107F PUSH2 0x4F1D JUMP JUMPDEST JUMPDEST PUSH1 0x20 MUL PUSH1 0x20 ADD ADD MLOAD DUP2 MSTORE PUSH1 0x20 ADD DUP9 DUP5 DUP2 MLOAD DUP2 LT PUSH2 0x10A0 JUMPI PUSH2 0x109F PUSH2 0x4F1D JUMP JUMPDEST JUMPDEST PUSH1 0x20 MUL PUSH1 0x20 ADD ADD MLOAD PUSH1 0x1 DUP2 MLOAD DUP2 LT PUSH2 0x10BB JUMPI PUSH2 0x10BA PUSH2 0x4F1D JUMP JUMPDEST JUMPDEST PUSH1 0x20 MUL PUSH1 0x20 ADD ADD MLOAD DUP2 MSTORE PUSH1 0x20 ADD DUP9 DUP5 DUP2 MLOAD DUP2 LT PUSH2 0x10DB JUMPI PUSH2 0x10DA PUSH2 0x4F1D JUMP JUMPDEST JUMPDEST PUSH1 0x20 MUL PUSH1 0x20 ADD ADD MLOAD PUSH1 0x2 DUP2 MLOAD DUP2 LT PUSH2 0x10F6 JUMPI PUSH2 0x10F5 PUSH2 0x4F1D JUMP JUMPDEST JUMPDEST PUSH1 0x20 MUL PUSH1 0x20 ADD ADD MLOAD DUP2 MSTORE POP SWAP1 POP DUP3 PUSH1 0x4 ADD DUP2 SWAP1 DUP1 PUSH1 0x1 DUP2 SLOAD ADD DUP1 DUP3 SSTORE DUP1 SWAP2 POP POP PUSH1 0x1 SWAP1 SUB SWAP1 PUSH1 0x0 MSTORE PUSH1 0x20 PUSH1 0x0 KECCAK256 SWAP1 PUSH1 0x3 MUL ADD PUSH1 0x0 SWAP1 SWAP2 SWAP1 SWAP2 SWAP1 SWAP2 POP PUSH1 0x0 DUP3 ADD MLOAD DUP2 PUSH1 0x0 ADD SWAP1 DUP2 PUSH2 0x1146 SWAP2 SWAP1 PUSH2 0x525C JUMP JUMPDEST POP PUSH1 0x20 DUP3 ADD MLOAD DUP2 PUSH1 0x1 ADD SWAP1 DUP2 PUSH2 0x115C SWAP2 SWAP1 PUSH2 0x525C JUMP JUMPDEST POP PUSH1 0x40 DUP3 ADD MLOAD DUP2 PUSH1 0x2 ADD SWAP1 DUP2 PUSH2 0x1172 SWAP2 SWAP1 PUSH2 0x525C JUMP JUMPDEST POP POP POP POP DUP1 DUP1 PUSH2 0x1181 SWAP1 PUSH2 0x5035 JUMP JUMPDEST SWAP2 POP POP PUSH2 0x103C JUMP JUMPDEST POP PUSH1 0x0 JUMPDEST DUP5 MLOAD DUP2 LT ISZERO PUSH2 0x12DA JUMPI PUSH1 0x0 PUSH1 0x40 MLOAD DUP1 PUSH1 0x60 ADD PUSH1 0x40 MSTORE DUP1 DUP8 DUP5 DUP2 MLOAD DUP2 LT PUSH2 0x11B6 JUMPI PUSH2 0x11B5 PUSH2 0x4F1D JUMP JUMPDEST JUMPDEST PUSH1 0x20 MUL PUSH1 0x20 ADD ADD MLOAD PUSH1 0x0 DUP2 MLOAD DUP2 LT PUSH2 0x11D1 JUMPI PUSH2 0x11D0 PUSH2 0x4F1D JUMP JUMPDEST JUMPDEST PUSH1 0x20 MUL PUSH1 0x20 ADD ADD MLOAD DUP2 MSTORE PUSH1 0x20 ADD DUP8 DUP5 DUP2 MLOAD DUP2 LT PUSH2 0x11F1 JUMPI PUSH2 0x11F0 PUSH2 0x4F1D JUMP JUMPDEST JUMPDEST PUSH1 0x20 MUL PUSH1 0x20 ADD ADD MLOAD PUSH1 0x1 DUP2 MLOAD DUP2 LT PUSH2 0x120C JUMPI PUSH2 0x120B PUSH2 0x4F1D JUMP JUMPDEST JUMPDEST PUSH1 0x20 MUL PUSH1 0x20 ADD ADD MLOAD DUP2 MSTORE PUSH1 0x20 ADD DUP8 DUP5 DUP2 MLOAD DUP2 LT PUSH2 0x122C JUMPI PUSH2 0x122B PUSH2 0x4F1D JUMP JUMPDEST JUMPDEST PUSH1 0x20 MUL PUSH1 0x20 ADD ADD MLOAD PUSH1 0x2 DUP2 MLOAD DUP2 LT PUSH2 0x1247 JUMPI PUSH2 0x1246 PUSH2 0x4F1D JUMP JUMPDEST JUMPDEST PUSH1 0x20 MUL PUSH1 0x20 ADD ADD MLOAD DUP2 MSTORE POP SWAP1 POP DUP3 PUSH1 0x5 ADD DUP2 SWAP1 DUP1 PUSH1 0x1 DUP2 SLOAD ADD DUP1 DUP3 SSTORE DUP1 SWAP2 POP POP PUSH1 0x1 SWAP1 SUB SWAP1 PUSH1 0x0 MSTORE PUSH1 0x20 PUSH1 0x0 KECCAK256 SWAP1 PUSH1 0x3 MUL ADD PUSH1 0x0 SWAP1 SWAP2 SWAP1 SWAP2 SWAP1 SWAP2 POP PUSH1 0x0 DUP3 ADD MLOAD DUP2 PUSH1 0x0 ADD SWAP1 DUP2 PUSH2 0x1297 SWAP2 SWAP1 PUSH2 0x525C JUMP JUMPDEST POP PUSH1 0x20 DUP3 ADD MLOAD DUP2 PUSH1 0x1 ADD SWAP1 DUP2 PUSH2 0x12AD SWAP2 SWAP1 PUSH2 0x525C JUMP JUMPDEST POP PUSH1 0x40 DUP3 ADD MLOAD DUP2 PUSH1 0x2 ADD SWAP1 DUP2 PUSH2 0x12C3 SWAP2 SWAP1 PUSH2 0x525C JUMP JUMPDEST POP POP POP POP DUP1 DUP1 PUSH2 0x12D2 SWAP1 PUSH2 0x5035 JUMP JUMPDEST SWAP2 POP POP PUSH2 0x118D JUMP JUMPDEST POP POP POP POP POP POP POP POP POP POP JUMP JUMPDEST PUSH1 0x2 DUP2 DUP1 MLOAD PUSH1 0x20 DUP2 ADD DUP3 ADD DUP1 MLOAD DUP5 DUP3 MSTORE PUSH1 0x20 DUP4 ADD PUSH1 0x20 DUP6 ADD KECCAK256 DUP2 DUP4 MSTORE DUP1 SWAP6 POP POP POP POP POP POP PUSH1 0x0 SWAP2 POP SWAP1 POP DUP1 PUSH1 0x0 ADD PUSH1 0x0 SWAP1 SLOAD SWAP1 PUSH2 0x100 EXP SWAP1 DIV PUSH1 0xFF AND SWAP1 DUP1 PUSH1 0x1 ADD DUP1 SLOAD PUSH2 0x1332 SWAP1 PUSH2 0x4EEC JUMP JUMPDEST DUP1 PUSH1 0x1F ADD PUSH1 0x20 DUP1 SWAP2 DIV MUL PUSH1 0x20 ADD PUSH1 0x40 MLOAD SWAP1 DUP2 ADD PUSH1 0x40 MSTORE DUP1 SWAP3 SWAP2 SWAP1 DUP2 DUP2 MSTORE PUSH1 0x20 ADD DUP3 DUP1 SLOAD PUSH2 0x135E SWAP1 PUSH2 0x4EEC JUMP JUMPDEST DUP1 ISZERO PUSH2 0x13AB JUMPI DUP1 PUSH1 0x1F LT PUSH2 0x1380 JUMPI PUSH2 0x100 DUP1 DUP4 SLOAD DIV MUL DUP4 MSTORE SWAP2 PUSH1 0x20 ADD SWAP2 PUSH2 0x13AB JUMP JUMPDEST DUP3 ADD SWAP2 SWAP1 PUSH1 0x0 MSTORE PUSH1 0x20 PUSH1 0x0 KECCAK256 SWAP1 JUMPDEST DUP2 SLOAD DUP2 MSTORE SWAP1 PUSH1 0x1 ADD SWAP1 PUSH1 0x20 ADD DUP1 DUP4 GT PUSH2 0x138E JUMPI DUP3 SWAP1 SUB PUSH1 0x1F AND DUP3 ADD SWAP2 JUMPDEST POP POP POP POP POP SWAP1 POP DUP3 JUMP JUMPDEST PUSH1 0x4 DUP2 DUP1 MLOAD PUSH1 0x20 DUP2 ADD DUP3 ADD DUP1 MLOAD DUP5 DUP3 MSTORE PUSH1 0x20 DUP4 ADD PUSH1 0x20 DUP6 ADD KECCAK256 DUP2 DUP4 MSTORE DUP1 SWAP6 POP POP POP POP POP POP PUSH1 0x0 SWAP2 POP SWAP1 POP DUP1 PUSH1 0x0 ADD DUP1 SLOAD PUSH2 0x13EE SWAP1 PUSH2 0x4EEC JUMP JUMPDEST DUP1 PUSH1 0x1F ADD PUSH1 0x20 DUP1 SWAP2 DIV MUL PUSH1 0x20 ADD PUSH1 0x40 MLOAD SWAP1 DUP2 ADD PUSH1 0x40 MSTORE DUP1 SWAP3 SWAP2 SWAP1 DUP2 DUP2 MSTORE PUSH1 0x20 ADD DUP3 DUP1 SLOAD PUSH2 0x141A SWAP1 PUSH2 0x4EEC JUMP JUMPDEST DUP1 ISZERO PUSH2 0x1467 JUMPI DUP1 PUSH1 0x1F LT PUSH2 0x143C JUMPI PUSH2 0x100 DUP1 DUP4 SLOAD DIV MUL DUP4 MSTORE SWAP2 PUSH1 0x20 ADD SWAP2 PUSH2 0x1467 JUMP JUMPDEST DUP3 ADD SWAP2 SWAP1 PUSH1 0x0 MSTORE PUSH1 0x20 PUSH1 0x0 KECCAK256 SWAP1 JUMPDEST DUP2 SLOAD DUP2 MSTORE SWAP1 PUSH1 0x1 ADD SWAP1 PUSH1 0x20 ADD DUP1 DUP4 GT PUSH2 0x144A JUMPI DUP3 SWAP1 SUB PUSH1 0x1F AND DUP3 ADD SWAP2 JUMPDEST POP POP POP POP POP SWAP1 DUP1 PUSH1 0x1 ADD DUP1 SLOAD PUSH2 0x147C SWAP1 PUSH2 0x4EEC JUMP JUMPDEST DUP1 PUSH1 0x1F ADD PUSH1 0x20 DUP1 SWAP2 DIV MUL PUSH1 0x20 ADD PUSH1 0x40 MLOAD SWAP1 DUP2 ADD PUSH1 0x40 MSTORE DUP1 SWAP3 SWAP2 SWAP1 DUP2 DUP2 MSTORE PUSH1 0x20 ADD DUP3 DUP1 SLOAD PUSH2 0x14A8 SWAP1 PUSH2 0x4EEC JUMP JUMPDEST DUP1 ISZERO PUSH2 0x14F5 JUMPI DUP1 PUSH1 0x1F LT PUSH2 0x14CA JUMPI PUSH2 0x100 DUP1 DUP4 SLOAD DIV MUL DUP4 MSTORE SWAP2 PUSH1 0x20 ADD SWAP2 PUSH2 0x14F5 JUMP JUMPDEST DUP3 ADD SWAP2 SWAP1 PUSH1 0x0 MSTORE PUSH1 0x20 PUSH1 0x0 KECCAK256 SWAP1 JUMPDEST DUP2 SLOAD DUP2 MSTORE SWAP1 PUSH1 0x1 ADD SWAP1 PUSH1 0x20 ADD DUP1 DUP4 GT PUSH2 0x14D8 JUMPI DUP3 SWAP1 SUB PUSH1 0x1F AND DUP3 ADD SWAP2 JUMPDEST POP POP POP POP POP SWAP1 DUP1 PUSH1 0x2 ADD DUP1 SLOAD PUSH2 0x150A SWAP1 PUSH2 0x4EEC JUMP JUMPDEST DUP1 PUSH1 0x1F ADD PUSH1 0x20 DUP1 SWAP2 DIV MUL PUSH1 0x20 ADD PUSH1 0x40 MLOAD SWAP1 DUP2 ADD PUSH1 0x40 MSTORE DUP1 SWAP3 SWAP2 SWAP1 DUP2 DUP2 MSTORE PUSH1 0x20 ADD DUP3 DUP1 SLOAD PUSH2 0x1536 SWAP1 PUSH2 0x4EEC JUMP JUMPDEST DUP1 ISZERO PUSH2 0x1583 JUMPI DUP1 PUSH1 0x1F LT PUSH2 0x1558 JUMPI PUSH2 0x100 DUP1 DUP4 SLOAD DIV MUL DUP4 MSTORE SWAP2 PUSH1 0x20 ADD SWAP2 PUSH2 0x1583 JUMP JUMPDEST DUP3 ADD SWAP2 SWAP1 PUSH1 0x0 MSTORE PUSH1 0x20 PUSH1 0x0 KECCAK256 SWAP1 JUMPDEST DUP2 SLOAD DUP2 MSTORE SWAP1 PUSH1 0x1 ADD SWAP1 PUSH1 0x20 ADD DUP1 DUP4 GT PUSH2 0x1566 JUMPI DUP3 SWAP1 SUB PUSH1 0x1F AND DUP3 ADD SWAP2 JUMPDEST POP POP POP POP POP SWAP1 DUP1 PUSH1 0x3 ADD DUP1 SLOAD PUSH2 0x1598 SWAP1 PUSH2 0x4EEC JUMP JUMPDEST DUP1 PUSH1 0x1F ADD PUSH1 0x20 DUP1 SWAP2 DIV MUL PUSH1 0x20 ADD PUSH1 0x40 MLOAD SWAP1 DUP2 ADD PUSH1 0x40 MSTORE DUP1 SWAP3 SWAP2 SWAP1 DUP2 DUP2 MSTORE PUSH1 0x20 ADD DUP3 DUP1 SLOAD PUSH2 0x15C4 SWAP1 PUSH2 0x4EEC JUMP JUMPDEST DUP1 ISZERO PUSH2 0x1611 JUMPI DUP1 PUSH1 0x1F LT PUSH2 0x15E6 JUMPI PUSH2 0x100 DUP1 DUP4 SLOAD DIV MUL DUP4 MSTORE SWAP2 PUSH1 0x20 ADD SWAP2 PUSH2 0x1611 JUMP JUMPDEST DUP3 ADD SWAP2 SWAP1 PUSH1 0x0 MSTORE PUSH1 0x20 PUSH1 0x0 KECCAK256 SWAP1 JUMPDEST DUP2 SLOAD DUP2 MSTORE SWAP1 PUSH1 0x1 ADD SWAP1 PUSH1 0x20 ADD DUP1 DUP4 GT PUSH2 0x15F4 JUMPI DUP3 SWAP1 SUB PUSH1 0x1F AND DUP3 ADD SWAP2 JUMPDEST POP POP POP POP POP SWAP1 DUP1 PUSH1 0x6 ADD PUSH1 0x0 SWAP1 SLOAD SWAP1 PUSH2 0x100 EXP SWAP1 DIV PUSH1 0xFF AND SWAP1 DUP1 PUSH1 0x7 ADD SLOAD SWAP1 DUP1 PUSH1 0x8 ADD SLOAD SWAP1 DUP1 PUSH1 0x9 ADD DUP1 SLOAD PUSH2 0x1645 SWAP1 PUSH2 0x4EEC JUMP JUMPDEST DUP1 PUSH1 0x1F ADD PUSH1 0x20 DUP1 SWAP2 DIV MUL PUSH1 0x20 ADD PUSH1 0x40 MLOAD SWAP1 DUP2 ADD PUSH1 0x40 MSTORE DUP1 SWAP3 SWAP2 SWAP1 DUP2 DUP2 MSTORE PUSH1 0x20 ADD DUP3 DUP1 SLOAD PUSH2 0x1671 SWAP1 PUSH2 0x4EEC JUMP JUMPDEST DUP1 ISZERO PUSH2 0x16BE JUMPI DUP1 PUSH1 0x1F LT PUSH2 0x1693 JUMPI PUSH2 0x100 DUP1 DUP4 SLOAD DIV MUL DUP4 MSTORE SWAP2 PUSH1 0x20 ADD SWAP2 PUSH2 0x16BE JUMP JUMPDEST DUP3 ADD SWAP2 SWAP1 PUSH1 0x0 MSTORE PUSH1 0x20 PUSH1 0x0 KECCAK256 SWAP1 JUMPDEST DUP2 SLOAD DUP2 MSTORE SWAP1 PUSH1 0x1 ADD SWAP1 PUSH1 0x20 ADD DUP1 DUP4 GT PUSH2 0x16A1 JUMPI DUP3 SWAP1 SUB PUSH1 0x1F AND DUP3 ADD SWAP2 JUMPDEST POP POP POP POP POP SWAP1 DUP1 PUSH1 0xA ADD DUP1 SLOAD PUSH2 0x16D3 SWAP1 PUSH2 0x4EEC JUMP JUMPDEST DUP1 PUSH1 0x1F ADD PUSH1 0x20 DUP1 SWAP2 DIV MUL PUSH1 0x20 ADD PUSH1 0x40 MLOAD SWAP1 DUP2 ADD PUSH1 0x40 MSTORE DUP1 SWAP3 SWAP2 SWAP1 DUP2 DUP2 MSTORE PUSH1 0x20 ADD DUP3 DUP1 SLOAD PUSH2 0x16FF SWAP1 PUSH2 0x4EEC JUMP JUMPDEST DUP1 ISZERO PUSH2 0x174C JUMPI DUP1 PUSH1 0x1F LT PUSH2 0x1721 JUMPI PUSH2 0x100 DUP1 DUP4 SLOAD DIV MUL DUP4 MSTORE SWAP2 PUSH1 0x20 ADD SWAP2 PUSH2 0x174C JUMP JUMPDEST DUP3 ADD SWAP2 SWAP1 PUSH1 0x0 MSTORE PUSH1 0x20 PUSH1 0x0 KECCAK256 SWAP1 JUMPDEST DUP2 SLOAD DUP2 MSTORE SWAP1 PUSH1 0x1 ADD SWAP1 PUSH1 0x20 ADD DUP1 DUP4 GT PUSH2 0x172F JUMPI DUP3 SWAP1 SUB PUSH1 0x1F AND DUP3 ADD SWAP2 JUMPDEST POP POP POP POP POP SWAP1 POP DUP10 JUMP JUMPDEST PUSH1 0x60 DUP1 PUSH1 0x0 PUSH1 0x1 DUP2 DUP1 SLOAD DUP1 PUSH1 0x20 MUL PUSH1 0x20 ADD PUSH1 0x40 MLOAD SWAP1 DUP2 ADD PUSH1 0x40 MSTORE DUP1 SWAP3 SWAP2 SWAP1 DUP2 DUP2 MSTORE PUSH1 0x20 ADD PUSH1 0x0 SWAP1 JUMPDEST DUP3 DUP3 LT ISZERO PUSH2 0x1966 JUMPI DUP4 DUP3 SWAP1 PUSH1 0x0 MSTORE PUSH1 0x20 PUSH1 0x0 KECCAK256 SWAP1 PUSH1 0x3 MUL ADD PUSH1 0x40 MLOAD DUP1 PUSH1 0x60 ADD PUSH1 0x40 MSTORE SWAP1 DUP2 PUSH1 0x0 DUP3 ADD DUP1 SLOAD PUSH2 0x17B1 SWAP1 PUSH2 0x4EEC JUMP JUMPDEST DUP1 PUSH1 0x1F ADD PUSH1 0x20 DUP1 SWAP2 DIV MUL PUSH1 0x20 ADD PUSH1 0x40 MLOAD SWAP1 DUP2 ADD PUSH1 0x40 MSTORE DUP1 SWAP3 SWAP2 SWAP1 DUP2 DUP2 MSTORE PUSH1 0x20 ADD DUP3 DUP1 SLOAD PUSH2 0x17DD SWAP1 PUSH2 0x4EEC JUMP JUMPDEST DUP1 ISZERO PUSH2 0x182A JUMPI DUP1 PUSH1 0x1F LT PUSH2 0x17FF JUMPI PUSH2 0x100 DUP1 DUP4 SLOAD DIV MUL DUP4 MSTORE SWAP2 PUSH1 0x20 ADD SWAP2 PUSH2 0x182A JUMP JUMPDEST DUP3 ADD SWAP2 SWAP1 PUSH1 0x0 MSTORE PUSH1 0x20 PUSH1 0x0 KECCAK256 SWAP1 JUMPDEST DUP2 SLOAD DUP2 MSTORE SWAP1 PUSH1 0x1 ADD SWAP1 PUSH1 0x20 ADD DUP1 DUP4 GT PUSH2 0x180D JUMPI DUP3 SWAP1 SUB PUSH1 0x1F AND DUP3 ADD SWAP2 JUMPDEST POP POP POP POP POP DUP2 MSTORE PUSH1 0x20 ADD PUSH1 0x1 DUP3 ADD DUP1 SLOAD PUSH2 0x1843 SWAP1 PUSH2 0x4EEC JUMP JUMPDEST DUP1 PUSH1 0x1F ADD PUSH1 0x20 DUP1 SWAP2 DIV MUL PUSH1 0x20 ADD PUSH1 0x40 MLOAD SWAP1 DUP2 ADD PUSH1 0x40 MSTORE DUP1 SWAP3 SWAP2 SWAP1 DUP2 DUP2 MSTORE PUSH1 0x20 ADD DUP3 DUP1 SLOAD PUSH2 0x186F SWAP1 PUSH2 0x4EEC JUMP JUMPDEST DUP1 ISZERO PUSH2 0x18BC JUMPI DUP1 PUSH1 0x1F LT PUSH2 0x1891 JUMPI PUSH2 0x100 DUP1 DUP4 SLOAD DIV MUL DUP4 MSTORE SWAP2 PUSH1 0x20 ADD SWAP2 PUSH2 0x18BC JUMP JUMPDEST DUP3 ADD SWAP2 SWAP1 PUSH1 0x0 MSTORE PUSH1 0x20 PUSH1 0x0 KECCAK256 SWAP1 JUMPDEST DUP2 SLOAD DUP2 MSTORE SWAP1 PUSH1 0x1 ADD SWAP1 PUSH1 0x20 ADD DUP1 DUP4 GT PUSH2 0x189F JUMPI DUP3 SWAP1 SUB PUSH1 0x1F AND DUP3 ADD SWAP2 JUMPDEST POP POP POP POP POP DUP2 MSTORE PUSH1 0x20 ADD PUSH1 0x2 DUP3 ADD DUP1 SLOAD PUSH2 0x18D5 SWAP1 PUSH2 0x4EEC JUMP JUMPDEST DUP1 PUSH1 0x1F ADD PUSH1 0x20 DUP1 SWAP2 DIV MUL PUSH1 0x20 ADD PUSH1 0x40 MLOAD SWAP1 DUP2 ADD PUSH1 0x40 MSTORE DUP1 SWAP3 SWAP2 SWAP1 DUP2 DUP2 MSTORE PUSH1 0x20 ADD DUP3 DUP1 SLOAD PUSH2 0x1901 SWAP1 PUSH2 0x4EEC JUMP JUMPDEST DUP1 ISZERO PUSH2 0x194E JUMPI DUP1 PUSH1 0x1F LT PUSH2 0x1923 JUMPI PUSH2 0x100 DUP1 DUP4 SLOAD DIV MUL DUP4 MSTORE SWAP2 PUSH1 0x20 ADD SWAP2 PUSH2 0x194E JUMP JUMPDEST DUP3 ADD SWAP2 SWAP1 PUSH1 0x0 MSTORE PUSH1 0x20 PUSH1 0x0 KECCAK256 SWAP1 JUMPDEST DUP2 SLOAD DUP2 MSTORE SWAP1 PUSH1 0x1 ADD SWAP1 PUSH1 0x20 ADD DUP1 DUP4 GT PUSH2 0x1931 JUMPI DUP3 SWAP1 SUB PUSH1 0x1F AND DUP3 ADD SWAP2 JUMPDEST POP POP POP POP POP DUP2 MSTORE POP POP DUP2 MSTORE PUSH1 0x20 ADD SWAP1 PUSH1 0x1 ADD SWAP1 PUSH2 0x177E JUMP JUMPDEST POP POP POP POP SWAP2 POP DUP1 DUP1 SLOAD DUP1 PUSH1 0x20 MUL PUSH1 0x20 ADD PUSH1 0x40 MLOAD SWAP1 DUP2 ADD PUSH1 0x40 MSTORE DUP1 SWAP3 SWAP2 SWAP1 DUP2 DUP2 MSTORE PUSH1 0x20 ADD PUSH1 0x0 SWAP1 JUMPDEST DUP3 DUP3 LT ISZERO PUSH2 0x1B75 JUMPI DUP4 DUP3 SWAP1 PUSH1 0x0 MSTORE PUSH1 0x20 PUSH1 0x0 KECCAK256 SWAP1 PUSH1 0x3 MUL ADD PUSH1 0x40 MLOAD DUP1 PUSH1 0x60 ADD PUSH1 0x40 MSTORE SWAP1 DUP2 PUSH1 0x0 DUP3 ADD DUP1 SLOAD PUSH2 0x19C0 SWAP1 PUSH2 0x4EEC JUMP JUMPDEST DUP1 PUSH1 0x1F ADD PUSH1 0x20 DUP1 SWAP2 DIV MUL PUSH1 0x20 ADD PUSH1 0x40 MLOAD SWAP1 DUP2 ADD PUSH1 0x40 MSTORE DUP1 SWAP3 SWAP2 SWAP1 DUP2 DUP2 MSTORE PUSH1 0x20 ADD DUP3 DUP1 SLOAD PUSH2 0x19EC SWAP1 PUSH2 0x4EEC JUMP JUMPDEST DUP1 ISZERO PUSH2 0x1A39 JUMPI DUP1 PUSH1 0x1F LT PUSH2 0x1A0E JUMPI PUSH2 0x100 DUP1 DUP4 SLOAD DIV MUL DUP4 MSTORE SWAP2 PUSH1 0x20 ADD SWAP2 PUSH2 0x1A39 JUMP JUMPDEST DUP3 ADD SWAP2 SWAP1 PUSH1 0x0 MSTORE PUSH1 0x20 PUSH1 0x0 KECCAK256 SWAP1 JUMPDEST DUP2 SLOAD DUP2 MSTORE SWAP1 PUSH1 0x1 ADD SWAP1 PUSH1 0x20 ADD DUP1 DUP4 GT PUSH2 0x1A1C JUMPI DUP3 SWAP1 SUB PUSH1 0x1F AND DUP3 ADD SWAP2 JUMPDEST POP POP POP POP POP DUP2 MSTORE PUSH1 0x20 ADD PUSH1 0x1 DUP3 ADD DUP1 SLOAD PUSH2 0x1A52 SWAP1 PUSH2 0x4EEC JUMP JUMPDEST DUP1 PUSH1 0x1F ADD PUSH1 0x20 DUP1 SWAP2 DIV MUL PUSH1 0x20 ADD PUSH1 0x40 MLOAD SWAP1 DUP2 ADD PUSH1 0x40 MSTORE DUP1 SWAP3 SWAP2 SWAP1 DUP2 DUP2 MSTORE PUSH1 0x20 ADD DUP3 DUP1 SLOAD PUSH2 0x1A7E SWAP1 PUSH2 0x4EEC JUMP JUMPDEST DUP1 ISZERO PUSH2 0x1ACB JUMPI DUP1 PUSH1 0x1F LT PUSH2 0x1AA0 JUMPI PUSH2 0x100 DUP1 DUP4 SLOAD DIV MUL DUP4 MSTORE SWAP2 PUSH1 0x20 ADD SWAP2 PUSH2 0x1ACB JUMP JUMPDEST DUP3 ADD SWAP2 SWAP1 PUSH1 0x0 MSTORE PUSH1 0x20 PUSH1 0x0 KECCAK256 SWAP1 JUMPDEST DUP2 SLOAD DUP2 MSTORE SWAP1 PUSH1 0x1 ADD SWAP1 PUSH1 0x20 ADD DUP1 DUP4 GT PUSH2 0x1AAE JUMPI DUP3 SWAP1 SUB PUSH1 0x1F AND DUP3 ADD SWAP2 JUMPDEST POP POP POP POP POP DUP2 MSTORE PUSH1 0x20 ADD PUSH1 0x2 DUP3 ADD DUP1 SLOAD PUSH2 0x1AE4 SWAP1 PUSH2 0x4EEC JUMP JUMPDEST DUP1 PUSH1 0x1F ADD PUSH1 0x20 DUP1 SWAP2 DIV MUL PUSH1 0x20 ADD PUSH1 0x40 MLOAD SWAP1 DUP2 ADD PUSH1 0x40 MSTORE DUP1 SWAP3 SWAP2 SWAP1 DUP2 DUP2 MSTORE PUSH1 0x20 ADD DUP3 DUP1 SLOAD PUSH2 0x1B10 SWAP1 PUSH2 0x4EEC JUMP JUMPDEST DUP1 ISZERO PUSH2 0x1B5D JUMPI DUP1 PUSH1 0x1F LT PUSH2 0x1B32 JUMPI PUSH2 0x100 DUP1 DUP4 SLOAD DIV MUL DUP4 MSTORE SWAP2 PUSH1 0x20 ADD SWAP2 PUSH2 0x1B5D JUMP JUMPDEST DUP3 ADD SWAP2 SWAP1 PUSH1 0x0 MSTORE PUSH1 0x20 PUSH1 0x0 KECCAK256 SWAP1 JUMPDEST DUP2 SLOAD DUP2 MSTORE SWAP1 PUSH1 0x1 ADD SWAP1 PUSH1 0x20 ADD DUP1 DUP4 GT PUSH2 0x1B40 JUMPI DUP3 SWAP1 SUB PUSH1 0x1F AND DUP3 ADD SWAP2 JUMPDEST POP POP POP POP POP DUP2 MSTORE POP POP DUP2 MSTORE PUSH1 0x20 ADD SWAP1 PUSH1 0x1 ADD SWAP1 PUSH2 0x198D JUMP JUMPDEST POP POP POP POP SWAP1 POP SWAP2 POP SWAP2 POP SWAP1 SWAP2 JUMP JUMPDEST PUSH1 0x60 PUSH1 0x0 PUSH1 0x5 DUP1 SLOAD SWAP1 POP PUSH8 0xFFFFFFFFFFFFFFFF DUP2 GT ISZERO PUSH2 0x1BA6 JUMPI PUSH2 0x1BA5 PUSH2 0x4248 JUMP JUMPDEST JUMPDEST PUSH1 0x40 MLOAD SWAP1 DUP1 DUP3 MSTORE DUP1 PUSH1 0x20 MUL PUSH1 0x20 ADD DUP3 ADD PUSH1 0x40 MSTORE DUP1 ISZERO PUSH2 0x1BDF JUMPI DUP2 PUSH1 0x20 ADD JUMPDEST PUSH2 0x1BCC PUSH2 0x3A1B JUMP JUMPDEST DUP2 MSTORE PUSH1 0x20 ADD SWAP1 PUSH1 0x1 SWAP1 SUB SWAP1 DUP2 PUSH2 0x1BC4 JUMPI SWAP1 POP JUMPDEST POP SWAP1 POP PUSH1 0x0 JUMPDEST PUSH1 0x5 DUP1 SLOAD SWAP1 POP DUP2 LT ISZERO PUSH2 0x242F JUMPI PUSH1 0x4 PUSH1 0x5 DUP3 DUP2 SLOAD DUP2 LT PUSH2 0x1C08 JUMPI PUSH2 0x1C07 PUSH2 0x4F1D JUMP JUMPDEST JUMPDEST SWAP1 PUSH1 0x0 MSTORE PUSH1 0x20 PUSH1 0x0 KECCAK256 ADD PUSH1 0x40 MLOAD PUSH2 0x1C1F SWAP2 SWAP1 PUSH2 0x4FEF JUMP JUMPDEST SWAP1 DUP2 MSTORE PUSH1 0x20 ADD PUSH1 0x40 MLOAD DUP1 SWAP2 SUB SWAP1 KECCAK256 PUSH1 0x40 MLOAD DUP1 PUSH2 0x160 ADD PUSH1 0x40 MSTORE SWAP1 DUP2 PUSH1 0x0 DUP3 ADD DUP1 SLOAD PUSH2 0x1C49 SWAP1 PUSH2 0x4EEC JUMP JUMPDEST DUP1 PUSH1 0x1F ADD PUSH1 0x20 DUP1 SWAP2 DIV MUL PUSH1 0x20 ADD PUSH1 0x40 MLOAD SWAP1 DUP2 ADD PUSH1 0x40 MSTORE DUP1 SWAP3 SWAP2 SWAP1 DUP2 DUP2 MSTORE PUSH1 0x20 ADD DUP3 DUP1 SLOAD PUSH2 0x1C75 SWAP1 PUSH2 0x4EEC JUMP JUMPDEST DUP1 ISZERO PUSH2 0x1CC2 JUMPI DUP1 PUSH1 0x1F LT PUSH2 0x1C97 JUMPI PUSH2 0x100 DUP1 DUP4 SLOAD DIV MUL DUP4 MSTORE SWAP2 PUSH1 0x20 ADD SWAP2 PUSH2 0x1CC2 JUMP JUMPDEST DUP3 ADD SWAP2 SWAP1 PUSH1 0x0 MSTORE PUSH1 0x20 PUSH1 0x0 KECCAK256 SWAP1 JUMPDEST DUP2 SLOAD DUP2 MSTORE SWAP1 PUSH1 0x1 ADD SWAP1 PUSH1 0x20 ADD DUP1 DUP4 GT PUSH2 0x1CA5 JUMPI DUP3 SWAP1 SUB PUSH1 0x1F AND DUP3 ADD SWAP2 JUMPDEST POP POP POP POP POP DUP2 MSTORE PUSH1 0x20 ADD PUSH1 0x1 DUP3 ADD DUP1 SLOAD PUSH2 0x1CDB SWAP1 PUSH2 0x4EEC JUMP JUMPDEST DUP1 PUSH1 0x1F ADD PUSH1 0x20 DUP1 SWAP2 DIV MUL PUSH1 0x20 ADD PUSH1 0x40 MLOAD SWAP1 DUP2 ADD PUSH1 0x40 MSTORE DUP1 SWAP3 SWAP2 SWAP1 DUP2 DUP2 MSTORE PUSH1 0x20 ADD DUP3 DUP1 SLOAD PUSH2 0x1D07 SWAP1 PUSH2 0x4EEC JUMP JUMPDEST DUP1 ISZERO PUSH2 0x1D54 JUMPI DUP1 PUSH1 0x1F LT PUSH2 0x1D29 JUMPI PUSH2 0x100 DUP1 DUP4 SLOAD DIV MUL DUP4 MSTORE SWAP2 PUSH1 0x20 ADD SWAP2 PUSH2 0x1D54 JUMP JUMPDEST DUP3 ADD SWAP2 SWAP1 PUSH1 0x0 MSTORE PUSH1 0x20 PUSH1 0x0 KECCAK256 SWAP1 JUMPDEST DUP2 SLOAD DUP2 MSTORE SWAP1 PUSH1 0x1 ADD SWAP1 PUSH1 0x20 ADD DUP1 DUP4 GT PUSH2 0x1D37 JUMPI DUP3 SWAP1 SUB PUSH1 0x1F AND DUP3 ADD SWAP2 JUMPDEST POP POP POP POP POP DUP2 MSTORE PUSH1 0x20 ADD PUSH1 0x2 DUP3 ADD DUP1 SLOAD PUSH2 0x1D6D SWAP1 PUSH2 0x4EEC JUMP JUMPDEST DUP1 PUSH1 0x1F ADD PUSH1 0x20 DUP1 SWAP2 DIV MUL PUSH1 0x20 ADD PUSH1 0x40 MLOAD SWAP1 DUP2 ADD PUSH1 0x40 MSTORE DUP1 SWAP3 SWAP2 SWAP1 DUP2 DUP2 MSTORE PUSH1 0x20 ADD DUP3 DUP1 SLOAD PUSH2 0x1D99 SWAP1 PUSH2 0x4EEC JUMP JUMPDEST DUP1 ISZERO PUSH2 0x1DE6 JUMPI DUP1 PUSH1 0x1F LT PUSH2 0x1DBB JUMPI PUSH2 0x100 DUP1 DUP4 SLOAD DIV MUL DUP4 MSTORE SWAP2 PUSH1 0x20 ADD SWAP2 PUSH2 0x1DE6 JUMP JUMPDEST DUP3 ADD SWAP2 SWAP1 PUSH1 0x0 MSTORE PUSH1 0x20 PUSH1 0x0 KECCAK256 SWAP1 JUMPDEST DUP2 SLOAD DUP2 MSTORE SWAP1 PUSH1 0x1 ADD SWAP1 PUSH1 0x20 ADD DUP1 DUP4 GT PUSH2 0x1DC9 JUMPI DUP3 SWAP1 SUB PUSH1 0x1F AND DUP3 ADD SWAP2 JUMPDEST POP POP POP POP POP DUP2 MSTORE PUSH1 0x20 ADD PUSH1 0x3 DUP3 ADD DUP1 SLOAD PUSH2 0x1DFF SWAP1 PUSH2 0x4EEC JUMP JUMPDEST DUP1 PUSH1 0x1F ADD PUSH1 0x20 DUP1 SWAP2 DIV MUL PUSH1 0x20 ADD PUSH1 0x40 MLOAD SWAP1 DUP2 ADD PUSH1 0x40 MSTORE DUP1 SWAP3 SWAP2 SWAP1 DUP2 DUP2 MSTORE PUSH1 0x20 ADD DUP3 DUP1 SLOAD PUSH2 0x1E2B SWAP1 PUSH2 0x4EEC JUMP JUMPDEST DUP1 ISZERO PUSH2 0x1E78 JUMPI DUP1 PUSH1 0x1F LT PUSH2 0x1E4D JUMPI PUSH2 0x100 DUP1 DUP4 SLOAD DIV MUL DUP4 MSTORE SWAP2 PUSH1 0x20 ADD SWAP2 PUSH2 0x1E78 JUMP JUMPDEST DUP3 ADD SWAP2 SWAP1 PUSH1 0x0 MSTORE PUSH1 0x20 PUSH1 0x0 KECCAK256 SWAP1 JUMPDEST DUP2 SLOAD DUP2 MSTORE SWAP1 PUSH1 0x1 ADD SWAP1 PUSH1 0x20 ADD DUP1 DUP4 GT PUSH2 0x1E5B JUMPI DUP3 SWAP1 SUB PUSH1 0x1F AND DUP3 ADD SWAP2 JUMPDEST POP POP POP POP POP DUP2 MSTORE PUSH1 0x20 ADD PUSH1 0x4 DUP3 ADD DUP1 SLOAD DUP1 PUSH1 0x20 MUL PUSH1 0x20 ADD PUSH1 0x40 MLOAD SWAP1 DUP2 ADD PUSH1 0x40 MSTORE DUP1 SWAP3 SWAP2 SWAP1 DUP2 DUP2 MSTORE PUSH1 0x20 ADD PUSH1 0x0 SWAP1 JUMPDEST DUP3 DUP3 LT ISZERO PUSH2 0x208E JUMPI DUP4 DUP3 SWAP1 PUSH1 0x0 MSTORE PUSH1 0x20 PUSH1 0x0 KECCAK256 SWAP1 PUSH1 0x3 MUL ADD PUSH1 0x40 MLOAD DUP1 PUSH1 0x60 ADD PUSH1 0x40 MSTORE SWAP1 DUP2 PUSH1 0x0 DUP3 ADD DUP1 SLOAD PUSH2 0x1ED9 SWAP1 PUSH2 0x4EEC JUMP JUMPDEST DUP1 PUSH1 0x1F ADD PUSH1 0x20 DUP1 SWAP2 DIV MUL PUSH1 0x20 ADD PUSH1 0x40 MLOAD SWAP1 DUP2 ADD PUSH1 0x40 MSTORE DUP1 SWAP3 SWAP2 SWAP1 DUP2 DUP2 MSTORE PUSH1 0x20 ADD DUP3 DUP1 SLOAD PUSH2 0x1F05 SWAP1 PUSH2 0x4EEC JUMP JUMPDEST DUP1 ISZERO PUSH2 0x1F52 JUMPI DUP1 PUSH1 0x1F LT PUSH2 0x1F27 JUMPI PUSH2 0x100 DUP1 DUP4 SLOAD DIV MUL DUP4 MSTORE SWAP2 PUSH1 0x20 ADD SWAP2 PUSH2 0x1F52 JUMP JUMPDEST DUP3 ADD SWAP2 SWAP1 PUSH1 0x0 MSTORE PUSH1 0x20 PUSH1 0x0 KECCAK256 SWAP1 JUMPDEST DUP2 SLOAD DUP2 MSTORE SWAP1 PUSH1 0x1 ADD SWAP1 PUSH1 0x20 ADD DUP1 DUP4 GT PUSH2 0x1F35 JUMPI DUP3 SWAP1 SUB PUSH1 0x1F AND DUP3 ADD SWAP2 JUMPDEST POP POP POP POP POP DUP2 MSTORE PUSH1 0x20 ADD PUSH1 0x1 DUP3 ADD DUP1 SLOAD PUSH2 0x1F6B SWAP1 PUSH2 0x4EEC JUMP JUMPDEST DUP1 PUSH1 0x1F ADD PUSH1 0x20 DUP1 SWAP2 DIV MUL PUSH1 0x20 ADD PUSH1 0x40 MLOAD SWAP1 DUP2 ADD PUSH1 0x40 MSTORE DUP1 SWAP3 SWAP2 SWAP1 DUP2 DUP2 MSTORE PUSH1 0x20 ADD DUP3 DUP1 SLOAD PUSH2 0x1F97 SWAP1 PUSH2 0x4EEC JUMP JUMPDEST DUP1 ISZERO PUSH2 0x1FE4 JUMPI DUP1 PUSH1 0x1F LT PUSH2 0x1FB9 JUMPI PUSH2 0x100 DUP1 DUP4 SLOAD DIV MUL DUP4 MSTORE SWAP2 PUSH1 0x20 ADD SWAP2 PUSH2 0x1FE4 JUMP JUMPDEST DUP3 ADD SWAP2 SWAP1 PUSH1 0x0 MSTORE PUSH1 0x20 PUSH1 0x0 KECCAK256 SWAP1 JUMPDEST DUP2 SLOAD DUP2 MSTORE SWAP1 PUSH1 0x1 ADD SWAP1 PUSH1 0x20 ADD DUP1 DUP4 GT PUSH2 0x1FC7 JUMPI DUP3 SWAP1 SUB PUSH1 0x1F AND DUP3 ADD SWAP2 JUMPDEST POP POP POP POP POP DUP2 MSTORE PUSH1 0x20 ADD PUSH1 0x2 DUP3 ADD DUP1 SLOAD PUSH2 0x1FFD SWAP1 PUSH2 0x4EEC JUMP JUMPDEST DUP1 PUSH1 0x1F ADD PUSH1 0x20 DUP1 SWAP2 DIV MUL PUSH1 0x20 ADD PUSH1 0x40 MLOAD SWAP1 DUP2 ADD PUSH1 0x40 MSTORE DUP1 SWAP3 SWAP2 SWAP1 DUP2 DUP2 MSTORE PUSH1 0x20 ADD DUP3 DUP1 SLOAD PUSH2 0x2029 SWAP1 PUSH2 0x4EEC JUMP JUMPDEST DUP1 ISZERO PUSH2 0x2076 JUMPI DUP1 PUSH1 0x1F LT PUSH2 0x204B JUMPI PUSH2 0x100 DUP1 DUP4 SLOAD DIV MUL DUP4 MSTORE SWAP2 PUSH1 0x20 ADD SWAP2 PUSH2 0x2076 JUMP JUMPDEST DUP3 ADD SWAP2 SWAP1 PUSH1 0x0 MSTORE PUSH1 0x20 PUSH1 0x0 KECCAK256 SWAP1 JUMPDEST DUP2 SLOAD DUP2 MSTORE SWAP1 PUSH1 0x1 ADD SWAP1 PUSH1 0x20 ADD DUP1 DUP4 GT PUSH2 0x2059 JUMPI DUP3 SWAP1 SUB PUSH1 0x1F AND DUP3 ADD SWAP2 JUMPDEST POP POP POP POP POP DUP2 MSTORE POP POP DUP2 MSTORE PUSH1 0x20 ADD SWAP1 PUSH1 0x1 ADD SWAP1 PUSH2 0x1EA6 JUMP JUMPDEST POP POP POP POP DUP2 MSTORE PUSH1 0x20 ADD PUSH1 0x5 DUP3 ADD DUP1 SLOAD DUP1 PUSH1 0x20 MUL PUSH1 0x20 ADD PUSH1 0x40 MLOAD SWAP1 DUP2 ADD PUSH1 0x40 MSTORE DUP1 SWAP3 SWAP2 SWAP1 DUP2 DUP2 MSTORE PUSH1 0x20 ADD PUSH1 0x0 SWAP1 JUMPDEST DUP3 DUP3 LT ISZERO PUSH2 0x22A3 JUMPI DUP4 DUP3 SWAP1 PUSH1 0x0 MSTORE PUSH1 0x20 PUSH1 0x0 KECCAK256 SWAP1 PUSH1 0x3 MUL ADD PUSH1 0x40 MLOAD DUP1 PUSH1 0x60 ADD PUSH1 0x40 MSTORE SWAP1 DUP2 PUSH1 0x0 DUP3 ADD DUP1 SLOAD PUSH2 0x20EE SWAP1 PUSH2 0x4EEC JUMP JUMPDEST DUP1 PUSH1 0x1F ADD PUSH1 0x20 DUP1 SWAP2 DIV MUL PUSH1 0x20 ADD PUSH1 0x40 MLOAD SWAP1 DUP2 ADD PUSH1 0x40 MSTORE DUP1 SWAP3 SWAP2 SWAP1 DUP2 DUP2 MSTORE PUSH1 0x20 ADD DUP3 DUP1 SLOAD PUSH2 0x211A SWAP1 PUSH2 0x4EEC JUMP JUMPDEST DUP1 ISZERO PUSH2 0x2167 JUMPI DUP1 PUSH1 0x1F LT PUSH2 0x213C JUMPI PUSH2 0x100 DUP1 DUP4 SLOAD DIV MUL DUP4 MSTORE SWAP2 PUSH1 0x20 ADD SWAP2 PUSH2 0x2167 JUMP JUMPDEST DUP3 ADD SWAP2 SWAP1 PUSH1 0x0 MSTORE PUSH1 0x20 PUSH1 0x0 KECCAK256 SWAP1 JUMPDEST DUP2 SLOAD DUP2 MSTORE SWAP1 PUSH1 0x1 ADD SWAP1 PUSH1 0x20 ADD DUP1 DUP4 GT PUSH2 0x214A JUMPI DUP3 SWAP1 SUB PUSH1 0x1F AND DUP3 ADD SWAP2 JUMPDEST POP POP POP POP POP DUP2 MSTORE PUSH1 0x20 ADD PUSH1 0x1 DUP3 ADD DUP1 SLOAD PUSH2 0x2180 SWAP1 PUSH2 0x4EEC JUMP JUMPDEST DUP1 PUSH1 0x1F ADD PUSH1 0x20 DUP1 SWAP2 DIV MUL PUSH1 0x20 ADD PUSH1 0x40 MLOAD SWAP1 DUP2 ADD PUSH1 0x40 MSTORE DUP1 SWAP3 SWAP2 SWAP1 DUP2 DUP2 MSTORE PUSH1 0x20 ADD DUP3 DUP1 SLOAD PUSH2 0x21AC SWAP1 PUSH2 0x4EEC JUMP JUMPDEST DUP1 ISZERO PUSH2 0x21F9 JUMPI DUP1 PUSH1 0x1F LT PUSH2 0x21CE JUMPI PUSH2 0x100 DUP1 DUP4 SLOAD DIV MUL DUP4 MSTORE SWAP2 PUSH1 0x20 ADD SWAP2 PUSH2 0x21F9 JUMP JUMPDEST DUP3 ADD SWAP2 SWAP1 PUSH1 0x0 MSTORE PUSH1 0x20 PUSH1 0x0 KECCAK256 SWAP1 JUMPDEST DUP2 SLOAD DUP2 MSTORE SWAP1 PUSH1 0x1 ADD SWAP1 PUSH1 0x20 ADD DUP1 DUP4 GT PUSH2 0x21DC JUMPI DUP3 SWAP1 SUB PUSH1 0x1F AND DUP3 ADD SWAP2 JUMPDEST POP POP POP POP POP DUP2 MSTORE PUSH1 0x20 ADD PUSH1 0x2 DUP3 ADD DUP1 SLOAD PUSH2 0x2212 SWAP1 PUSH2 0x4EEC JUMP JUMPDEST DUP1 PUSH1 0x1F ADD PUSH1 0x20 DUP1 SWAP2 DIV MUL PUSH1 0x20 ADD PUSH1 0x40 MLOAD SWAP1 DUP2 ADD PUSH1 0x40 MSTORE DUP1 SWAP3 SWAP2 SWAP1 DUP2 DUP2 MSTORE PUSH1 0x20 ADD DUP3 DUP1 SLOAD PUSH2 0x223E SWAP1 PUSH2 0x4EEC JUMP JUMPDEST DUP1 ISZERO PUSH2 0x228B JUMPI DUP1 PUSH1 0x1F LT PUSH2 0x2260 JUMPI PUSH2 0x100 DUP1 DUP4 SLOAD DIV MUL DUP4 MSTORE SWAP2 PUSH1 0x20 ADD SWAP2 PUSH2 0x228B JUMP JUMPDEST DUP3 ADD SWAP2 SWAP1 PUSH1 0x0 MSTORE PUSH1 0x20 PUSH1 0x0 KECCAK256 SWAP1 JUMPDEST DUP2 SLOAD DUP2 MSTORE SWAP1 PUSH1 0x1 ADD SWAP1 PUSH1 0x20 ADD DUP1 DUP4 GT PUSH2 0x226E JUMPI DUP3 SWAP1 SUB PUSH1 0x1F AND DUP3 ADD SWAP2 JUMPDEST POP POP POP POP POP DUP2 MSTORE POP POP DUP2 MSTORE PUSH1 0x20 ADD SWAP1 PUSH1 0x1 ADD SWAP1 PUSH2 0x20BB JUMP JUMPDEST POP POP POP POP DUP2 MSTORE PUSH1 0x20 ADD PUSH1 0x6 DUP3 ADD PUSH1 0x0 SWAP1 SLOAD SWAP1 PUSH2 0x100 EXP SWAP1 DIV PUSH1 0xFF AND ISZERO ISZERO ISZERO ISZERO DUP2 MSTORE PUSH1 0x20 ADD PUSH1 0x7 DUP3 ADD SLOAD DUP2 MSTORE PUSH1 0x20 ADD PUSH1 0x8 DUP3 ADD SLOAD DUP2 MSTORE PUSH1 0x20 ADD PUSH1 0x9 DUP3 ADD DUP1 SLOAD PUSH2 0x22EA SWAP1 PUSH2 0x4EEC JUMP JUMPDEST DUP1 PUSH1 0x1F ADD PUSH1 0x20 DUP1 SWAP2 DIV MUL PUSH1 0x20 ADD PUSH1 0x40 MLOAD SWAP1 DUP2 ADD PUSH1 0x40 MSTORE DUP1 SWAP3 SWAP2 SWAP1 DUP2 DUP2 MSTORE PUSH1 0x20 ADD DUP3 DUP1 SLOAD PUSH2 0x2316 SWAP1 PUSH2 0x4EEC JUMP JUMPDEST DUP1 ISZERO PUSH2 0x2363 JUMPI DUP1 PUSH1 0x1F LT PUSH2 0x2338 JUMPI PUSH2 0x100 DUP1 DUP4 SLOAD DIV MUL DUP4 MSTORE SWAP2 PUSH1 0x20 ADD SWAP2 PUSH2 0x2363 JUMP JUMPDEST DUP3 ADD SWAP2 SWAP1 PUSH1 0x0 MSTORE PUSH1 0x20 PUSH1 0x0 KECCAK256 SWAP1 JUMPDEST DUP2 SLOAD DUP2 MSTORE SWAP1 PUSH1 0x1 ADD SWAP1 PUSH1 0x20 ADD DUP1 DUP4 GT PUSH2 0x2346 JUMPI DUP3 SWAP1 SUB PUSH1 0x1F AND DUP3 ADD SWAP2 JUMPDEST POP POP POP POP POP DUP2 MSTORE PUSH1 0x20 ADD PUSH1 0xA DUP3 ADD DUP1 SLOAD PUSH2 0x237C SWAP1 PUSH2 0x4EEC JUMP JUMPDEST DUP1 PUSH1 0x1F ADD PUSH1 0x20 DUP1 SWAP2 DIV MUL PUSH1 0x20 ADD PUSH1 0x40 MLOAD SWAP1 DUP2 ADD PUSH1 0x40 MSTORE DUP1 SWAP3 SWAP2 SWAP1 DUP2 DUP2 MSTORE PUSH1 0x20 ADD DUP3 DUP1 SLOAD PUSH2 0x23A8 SWAP1 PUSH2 0x4EEC JUMP JUMPDEST DUP1 ISZERO PUSH2 0x23F5 JUMPI DUP1 PUSH1 0x1F LT PUSH2 0x23CA JUMPI PUSH2 0x100 DUP1 DUP4 SLOAD DIV MUL DUP4 MSTORE SWAP2 PUSH1 0x20 ADD SWAP2 PUSH2 0x23F5 JUMP JUMPDEST DUP3 ADD SWAP2 SWAP1 PUSH1 0x0 MSTORE PUSH1 0x20 PUSH1 0x0 KECCAK256 SWAP1 JUMPDEST DUP2 SLOAD DUP2 MSTORE SWAP1 PUSH1 0x1 ADD SWAP1 PUSH1 0x20 ADD DUP1 DUP4 GT PUSH2 0x23D8 JUMPI DUP3 SWAP1 SUB PUSH1 0x1F AND DUP3 ADD SWAP2 JUMPDEST POP POP POP POP POP DUP2 MSTORE POP POP DUP3 DUP3 DUP2 MLOAD DUP2 LT PUSH2 0x2411 JUMPI PUSH2 0x2410 PUSH2 0x4F1D JUMP JUMPDEST JUMPDEST PUSH1 0x20 MUL PUSH1 0x20 ADD ADD DUP2 SWAP1 MSTORE POP DUP1 DUP1 PUSH2 0x2427 SWAP1 PUSH2 0x5035 JUMP JUMPDEST SWAP2 POP POP PUSH2 0x1BE5 JUMP JUMPDEST POP DUP1 SWAP2 POP POP SWAP1 JUMP JUMPDEST PUSH1 0x3 DUP4 SWAP1 DUP1 PUSH1 0x1 DUP2 SLOAD ADD DUP1 DUP3 SSTORE DUP1 SWAP2 POP POP PUSH1 0x1 SWAP1 SUB SWAP1 PUSH1 0x0 MSTORE PUSH1 0x20 PUSH1 0x0 KECCAK256 ADD PUSH1 0x0 SWAP1 SWAP2 SWAP1 SWAP2 SWAP1 SWAP2 POP SWAP1 DUP2 PUSH2 0x246B SWAP2 SWAP1 PUSH2 0x525C JUMP JUMPDEST POP PUSH1 0x0 PUSH1 0x2 DUP5 PUSH1 0x40 MLOAD PUSH2 0x247E SWAP2 SWAP1 PUSH2 0x50AE JUMP JUMPDEST SWAP1 DUP2 MSTORE PUSH1 0x20 ADD PUSH1 0x40 MLOAD DUP1 SWAP2 SUB SWAP1 KECCAK256 SWAP1 POP PUSH1 0x0 DUP2 PUSH1 0x0 ADD PUSH1 0x0 PUSH2 0x100 EXP DUP2 SLOAD DUP2 PUSH1 0xFF MUL NOT AND SWAP1 DUP4 ISZERO ISZERO MUL OR SWAP1 SSTORE POP DUP4 DUP2 PUSH1 0x1 ADD SWAP1 DUP2 PUSH2 0x24BC SWAP2 SWAP1 PUSH2 0x525C JUMP JUMPDEST POP PUSH1 0x0 JUMPDEST DUP4 MLOAD DUP2 LT ISZERO PUSH2 0x260D JUMPI PUSH1 0x0 PUSH1 0x40 MLOAD DUP1 PUSH1 0x60 ADD PUSH1 0x40 MSTORE DUP1 DUP7 DUP5 DUP2 MLOAD DUP2 LT PUSH2 0x24E9 JUMPI PUSH2 0x24E8 PUSH2 0x4F1D JUMP JUMPDEST JUMPDEST PUSH1 0x20 MUL PUSH1 0x20 ADD ADD MLOAD PUSH1 0x0 DUP2 MLOAD DUP2 LT PUSH2 0x2504 JUMPI PUSH2 0x2503 PUSH2 0x4F1D JUMP JUMPDEST JUMPDEST PUSH1 0x20 MUL PUSH1 0x20 ADD ADD MLOAD DUP2 MSTORE PUSH1 0x20 ADD DUP7 DUP5 DUP2 MLOAD DUP2 LT PUSH2 0x2524 JUMPI PUSH2 0x2523 PUSH2 0x4F1D JUMP JUMPDEST JUMPDEST PUSH1 0x20 MUL PUSH1 0x20 ADD ADD MLOAD PUSH1 0x1 DUP2 MLOAD DUP2 LT PUSH2 0x253F JUMPI PUSH2 0x253E PUSH2 0x4F1D JUMP JUMPDEST JUMPDEST PUSH1 0x20 MUL PUSH1 0x20 ADD ADD MLOAD DUP2 MSTORE PUSH1 0x20 ADD DUP7 DUP5 DUP2 MLOAD DUP2 LT PUSH2 0x255F JUMPI PUSH2 0x255E PUSH2 0x4F1D JUMP JUMPDEST JUMPDEST PUSH1 0x20 MUL PUSH1 0x20 ADD ADD MLOAD PUSH1 0x2 DUP2 MLOAD DUP2 LT PUSH2 0x257A JUMPI PUSH2 0x2579 PUSH2 0x4F1D JUMP JUMPDEST JUMPDEST PUSH1 0x20 MUL PUSH1 0x20 ADD ADD MLOAD DUP2 MSTORE POP SWAP1 POP DUP3 PUSH1 0x2 ADD DUP2 SWAP1 DUP1 PUSH1 0x1 DUP2 SLOAD ADD DUP1 DUP3 SSTORE DUP1 SWAP2 POP POP PUSH1 0x1 SWAP1 SUB SWAP1 PUSH1 0x0 MSTORE PUSH1 0x20 PUSH1 0x0 KECCAK256 SWAP1 PUSH1 0x3 MUL ADD PUSH1 0x0 SWAP1 SWAP2 SWAP1 SWAP2 SWAP1 SWAP2 POP PUSH1 0x0 DUP3 ADD MLOAD DUP2 PUSH1 0x0 ADD SWAP1 DUP2 PUSH2 0x25CA SWAP2 SWAP1 PUSH2 0x525C JUMP JUMPDEST POP PUSH1 0x20 DUP3 ADD MLOAD DUP2 PUSH1 0x1 ADD SWAP1 DUP2 PUSH2 0x25E0 SWAP2 SWAP1 PUSH2 0x525C JUMP JUMPDEST POP PUSH1 0x40 DUP3 ADD MLOAD DUP2 PUSH1 0x2 ADD SWAP1 DUP2 PUSH2 0x25F6 SWAP2 SWAP1 PUSH2 0x525C JUMP JUMPDEST POP POP POP POP DUP1 DUP1 PUSH2 0x2605 SWAP1 PUSH2 0x5035 JUMP JUMPDEST SWAP2 POP POP PUSH2 0x24C0 JUMP JUMPDEST POP PUSH1 0x0 JUMPDEST DUP3 MLOAD DUP2 LT ISZERO PUSH2 0x275E JUMPI PUSH1 0x0 PUSH1 0x40 MLOAD DUP1 PUSH1 0x60 ADD PUSH1 0x40 MSTORE DUP1 DUP6 DUP5 DUP2 MLOAD DUP2 LT PUSH2 0x263A JUMPI PUSH2 0x2639 PUSH2 0x4F1D JUMP JUMPDEST JUMPDEST PUSH1 0x20 MUL PUSH1 0x20 ADD ADD MLOAD PUSH1 0x0 DUP2 MLOAD DUP2 LT PUSH2 0x2655 JUMPI PUSH2 0x2654 PUSH2 0x4F1D JUMP JUMPDEST JUMPDEST PUSH1 0x20 MUL PUSH1 0x20 ADD ADD MLOAD DUP2 MSTORE PUSH1 0x20 ADD DUP6 DUP5 DUP2 MLOAD DUP2 LT PUSH2 0x2675 JUMPI PUSH2 0x2674 PUSH2 0x4F1D JUMP JUMPDEST JUMPDEST PUSH1 0x20 MUL PUSH1 0x20 ADD ADD MLOAD PUSH1 0x1 DUP2 MLOAD DUP2 LT PUSH2 0x2690 JUMPI PUSH2 0x268F PUSH2 0x4F1D JUMP JUMPDEST JUMPDEST PUSH1 0x20 MUL PUSH1 0x20 ADD ADD MLOAD DUP2 MSTORE PUSH1 0x20 ADD DUP6 DUP5 DUP2 MLOAD DUP2 LT PUSH2 0x26B0 JUMPI PUSH2 0x26AF PUSH2 0x4F1D JUMP JUMPDEST JUMPDEST PUSH1 0x20 MUL PUSH1 0x20 ADD ADD MLOAD PUSH1 0x2 DUP2 MLOAD DUP2 LT PUSH2 0x26CB JUMPI PUSH2 0x26CA PUSH2 0x4F1D JUMP JUMPDEST JUMPDEST PUSH1 0x20 MUL PUSH1 0x20 ADD ADD MLOAD DUP2 MSTORE POP SWAP1 POP DUP3 PUSH1 0x3 ADD DUP2 SWAP1 DUP1 PUSH1 0x1 DUP2 SLOAD ADD DUP1 DUP3 SSTORE DUP1 SWAP2 POP POP PUSH1 0x1 SWAP1 SUB SWAP1 PUSH1 0x0 MSTORE PUSH1 0x20 PUSH1 0x0 KECCAK256 SWAP1 PUSH1 0x3 MUL ADD PUSH1 0x0 SWAP1 SWAP2 SWAP1 SWAP2 SWAP1 SWAP2 POP PUSH1 0x0 DUP3 ADD MLOAD DUP2 PUSH1 0x0 ADD SWAP1 DUP2 PUSH2 0x271B SWAP2 SWAP1 PUSH2 0x525C JUMP JUMPDEST POP PUSH1 0x20 DUP3 ADD MLOAD DUP2 PUSH1 0x1 ADD SWAP1 DUP2 PUSH2 0x2731 SWAP2 SWAP1 PUSH2 0x525C JUMP JUMPDEST POP PUSH1 0x40 DUP3 ADD MLOAD DUP2 PUSH1 0x2 ADD SWAP1 DUP2 PUSH2 0x2747 SWAP2 SWAP1 PUSH2 0x525C JUMP JUMPDEST POP POP POP POP DUP1 DUP1 PUSH2 0x2756 SWAP1 PUSH2 0x5035 JUMP JUMPDEST SWAP2 POP POP PUSH2 0x2611 JUMP JUMPDEST POP POP POP POP POP JUMP JUMPDEST PUSH1 0x60 PUSH1 0x0 PUSH1 0x3 DUP1 SLOAD SWAP1 POP PUSH8 0xFFFFFFFFFFFFFFFF DUP2 GT ISZERO PUSH2 0x2788 JUMPI PUSH2 0x2787 PUSH2 0x4248 JUMP JUMPDEST JUMPDEST PUSH1 0x40 MLOAD SWAP1 DUP1 DUP3 MSTORE DUP1 PUSH1 0x20 MUL PUSH1 0x20 ADD DUP3 ADD PUSH1 0x40 MSTORE DUP1 ISZERO PUSH2 0x27C1 JUMPI DUP2 PUSH1 0x20 ADD JUMPDEST PUSH2 0x27AE PUSH2 0x3A77 JUMP JUMPDEST DUP2 MSTORE PUSH1 0x20 ADD SWAP1 PUSH1 0x1 SWAP1 SUB SWAP1 DUP2 PUSH2 0x27A6 JUMPI SWAP1 POP JUMPDEST POP SWAP1 POP PUSH1 0x0 JUMPDEST PUSH1 0x3 DUP1 SLOAD SWAP1 POP DUP2 LT ISZERO PUSH2 0x2D22 JUMPI PUSH1 0x2 PUSH1 0x3 DUP3 DUP2 SLOAD DUP2 LT PUSH2 0x27EA JUMPI PUSH2 0x27E9 PUSH2 0x4F1D JUMP JUMPDEST JUMPDEST SWAP1 PUSH1 0x0 MSTORE PUSH1 0x20 PUSH1 0x0 KECCAK256 ADD PUSH1 0x40 MLOAD PUSH2 0x2801 SWAP2 SWAP1 PUSH2 0x4FEF JUMP JUMPDEST SWAP1 DUP2 MSTORE PUSH1 0x20 ADD PUSH1 0x40 MLOAD DUP1 SWAP2 SUB SWAP1 KECCAK256 PUSH1 0x40 MLOAD DUP1 PUSH1 0x80 ADD PUSH1 0x40 MSTORE SWAP1 DUP2 PUSH1 0x0 DUP3 ADD PUSH1 0x0 SWAP1 SLOAD SWAP1 PUSH2 0x100 EXP SWAP1 DIV PUSH1 0xFF AND ISZERO ISZERO ISZERO ISZERO DUP2 MSTORE PUSH1 0x20 ADD PUSH1 0x1 DUP3 ADD DUP1 SLOAD PUSH2 0x2845 SWAP1 PUSH2 0x4EEC JUMP JUMPDEST DUP1 PUSH1 0x1F ADD PUSH1 0x20 DUP1 SWAP2 DIV MUL PUSH1 0x20 ADD PUSH1 0x40 MLOAD SWAP1 DUP2 ADD PUSH1 0x40 MSTORE DUP1 SWAP3 SWAP2 SWAP1 DUP2 DUP2 MSTORE PUSH1 0x20 ADD DUP3 DUP1 SLOAD PUSH2 0x2871 SWAP1 PUSH2 0x4EEC JUMP JUMPDEST DUP1 ISZERO PUSH2 0x28BE JUMPI DUP1 PUSH1 0x1F LT PUSH2 0x2893 JUMPI PUSH2 0x100 DUP1 DUP4 SLOAD DIV MUL DUP4 MSTORE SWAP2 PUSH1 0x20 ADD SWAP2 PUSH2 0x28BE JUMP JUMPDEST DUP3 ADD SWAP2 SWAP1 PUSH1 0x0 MSTORE PUSH1 0x20 PUSH1 0x0 KECCAK256 SWAP1 JUMPDEST DUP2 SLOAD DUP2 MSTORE SWAP1 PUSH1 0x1 ADD SWAP1 PUSH1 0x20 ADD DUP1 DUP4 GT PUSH2 0x28A1 JUMPI DUP3 SWAP1 SUB PUSH1 0x1F AND DUP3 ADD SWAP2 JUMPDEST POP POP POP POP POP DUP2 MSTORE PUSH1 0x20 ADD PUSH1 0x2 DUP3 ADD DUP1 SLOAD DUP1 PUSH1 0x20 MUL PUSH1 0x20 ADD PUSH1 0x40 MLOAD SWAP1 DUP2 ADD PUSH1 0x40 MSTORE DUP1 SWAP3 SWAP2 SWAP1 DUP2 DUP2 MSTORE PUSH1 0x20 ADD PUSH1 0x0 SWAP1 JUMPDEST DUP3 DUP3 LT ISZERO PUSH2 0x2AD4 JUMPI DUP4 DUP3 SWAP1 PUSH1 0x0 MSTORE PUSH1 0x20 PUSH1 0x0 KECCAK256 SWAP1 PUSH1 0x3 MUL ADD PUSH1 0x40 MLOAD DUP1 PUSH1 0x60 ADD PUSH1 0x40 MSTORE SWAP1 DUP2 PUSH1 0x0 DUP3 ADD DUP1 SLOAD PUSH2 0x291F SWAP1 PUSH2 0x4EEC JUMP JUMPDEST DUP1 PUSH1 0x1F ADD PUSH1 0x20 DUP1 SWAP2 DIV MUL PUSH1 0x20 ADD PUSH1 0x40 MLOAD SWAP1 DUP2 ADD PUSH1 0x40 MSTORE DUP1 SWAP3 SWAP2 SWAP1 DUP2 DUP2 MSTORE PUSH1 0x20 ADD DUP3 DUP1 SLOAD PUSH2 0x294B SWAP1 PUSH2 0x4EEC JUMP JUMPDEST DUP1 ISZERO PUSH2 0x2998 JUMPI DUP1 PUSH1 0x1F LT PUSH2 0x296D JUMPI PUSH2 0x100 DUP1 DUP4 SLOAD DIV MUL DUP4 MSTORE SWAP2 PUSH1 0x20 ADD SWAP2 PUSH2 0x2998 JUMP JUMPDEST DUP3 ADD SWAP2 SWAP1 PUSH1 0x0 MSTORE PUSH1 0x20 PUSH1 0x0 KECCAK256 SWAP1 JUMPDEST DUP2 SLOAD DUP2 MSTORE SWAP1 PUSH1 0x1 ADD SWAP1 PUSH1 0x20 ADD DUP1 DUP4 GT PUSH2 0x297B JUMPI DUP3 SWAP1 SUB PUSH1 0x1F AND DUP3 ADD SWAP2 JUMPDEST POP POP POP POP POP DUP2 MSTORE PUSH1 0x20 ADD PUSH1 0x1 DUP3 ADD DUP1 SLOAD PUSH2 0x29B1 SWAP1 PUSH2 0x4EEC JUMP JUMPDEST DUP1 PUSH1 0x1F ADD PUSH1 0x20 DUP1 SWAP2 DIV MUL PUSH1 0x20 ADD PUSH1 0x40 MLOAD SWAP1 DUP2 ADD PUSH1 0x40 MSTORE DUP1 SWAP3 SWAP2 SWAP1 DUP2 DUP2 MSTORE PUSH1 0x20 ADD DUP3 DUP1 SLOAD PUSH2 0x29DD SWAP1 PUSH2 0x4EEC JUMP JUMPDEST DUP1 ISZERO PUSH2 0x2A2A JUMPI DUP1 PUSH1 0x1F LT PUSH2 0x29FF JUMPI PUSH2 0x100 DUP1 DUP4 SLOAD DIV MUL DUP4 MSTORE SWAP2 PUSH1 0x20 ADD SWAP2 PUSH2 0x2A2A JUMP JUMPDEST DUP3 ADD SWAP2 SWAP1 PUSH1 0x0 MSTORE PUSH1 0x20 PUSH1 0x0 KECCAK256 SWAP1 JUMPDEST DUP2 SLOAD DUP2 MSTORE SWAP1 PUSH1 0x1 ADD SWAP1 PUSH1 0x20 ADD DUP1 DUP4 GT PUSH2 0x2A0D JUMPI DUP3 SWAP1 SUB PUSH1 0x1F AND DUP3 ADD SWAP2 JUMPDEST POP POP POP POP POP DUP2 MSTORE PUSH1 0x20 ADD PUSH1 0x2 DUP3 ADD DUP1 SLOAD PUSH2 0x2A43 SWAP1 PUSH2 0x4EEC JUMP JUMPDEST DUP1 PUSH1 0x1F ADD PUSH1 0x20 DUP1 SWAP2 DIV MUL PUSH1 0x20 ADD PUSH1 0x40 MLOAD SWAP1 DUP2 ADD PUSH1 0x40 MSTORE DUP1 SWAP3 SWAP2 SWAP1 DUP2 DUP2 MSTORE PUSH1 0x20 ADD DUP3 DUP1 SLOAD PUSH2 0x2A6F SWAP1 PUSH2 0x4EEC JUMP JUMPDEST DUP1 ISZERO PUSH2 0x2ABC JUMPI DUP1 PUSH1 0x1F LT PUSH2 0x2A91 JUMPI PUSH2 0x100 DUP1 DUP4 SLOAD DIV MUL DUP4 MSTORE SWAP2 PUSH1 0x20 ADD SWAP2 PUSH2 0x2ABC JUMP JUMPDEST DUP3 ADD SWAP2 SWAP1 PUSH1 0x0 MSTORE PUSH1 0x20 PUSH1 0x0 KECCAK256 SWAP1 JUMPDEST DUP2 SLOAD DUP2 MSTORE SWAP1 PUSH1 0x1 ADD SWAP1 PUSH1 0x20 ADD DUP1 DUP4 GT PUSH2 0x2A9F JUMPI DUP3 SWAP1 SUB PUSH1 0x1F AND DUP3 ADD SWAP2 JUMPDEST POP POP POP POP POP DUP2 MSTORE POP POP DUP2 MSTORE PUSH1 0x20 ADD SWAP1 PUSH1 0x1 ADD SWAP1 PUSH2 0x28EC JUMP JUMPDEST POP POP POP POP DUP2 MSTORE PUSH1 0x20 ADD PUSH1 0x3 DUP3 ADD DUP1 SLOAD DUP1 PUSH1 0x20 MUL PUSH1 0x20 ADD PUSH1 0x40 MLOAD SWAP1 DUP2 ADD PUSH1 0x40 MSTORE DUP1 SWAP3 SWAP2 SWAP1 DUP2 DUP2 MSTORE PUSH1 0x20 ADD PUSH1 0x0 SWAP1 JUMPDEST DUP3 DUP3 LT ISZERO PUSH2 0x2CE9 JUMPI DUP4 DUP3 SWAP1 PUSH1 0x0 MSTORE PUSH1 0x20 PUSH1 0x0 KECCAK256 SWAP1 PUSH1 0x3 MUL ADD PUSH1 0x40 MLOAD DUP1 PUSH1 0x60 ADD PUSH1 0x40 MSTORE SWAP1 DUP2 PUSH1 0x0 DUP3 ADD DUP1 SLOAD PUSH2 0x2B34 SWAP1 PUSH2 0x4EEC JUMP JUMPDEST DUP1 PUSH1 0x1F ADD PUSH1 0x20 DUP1 SWAP2 DIV MUL PUSH1 0x20 ADD PUSH1 0x40 MLOAD SWAP1 DUP2 ADD PUSH1 0x40 MSTORE DUP1 SWAP3 SWAP2 SWAP1 DUP2 DUP2 MSTORE PUSH1 0x20 ADD DUP3 DUP1 SLOAD PUSH2 0x2B60 SWAP1 PUSH2 0x4EEC JUMP JUMPDEST DUP1 ISZERO PUSH2 0x2BAD JUMPI DUP1 PUSH1 0x1F LT PUSH2 0x2B82 JUMPI PUSH2 0x100 DUP1 DUP4 SLOAD DIV MUL DUP4 MSTORE SWAP2 PUSH1 0x20 ADD SWAP2 PUSH2 0x2BAD JUMP JUMPDEST DUP3 ADD SWAP2 SWAP1 PUSH1 0x0 MSTORE PUSH1 0x20 PUSH1 0x0 KECCAK256 SWAP1 JUMPDEST DUP2 SLOAD DUP2 MSTORE SWAP1 PUSH1 0x1 ADD SWAP1 PUSH1 0x20 ADD DUP1 DUP4 GT PUSH2 0x2B90 JUMPI DUP3 SWAP1 SUB PUSH1 0x1F AND DUP3 ADD SWAP2 JUMPDEST POP POP POP POP POP DUP2 MSTORE PUSH1 0x20 ADD PUSH1 0x1 DUP3 ADD DUP1 SLOAD PUSH2 0x2BC6 SWAP1 PUSH2 0x4EEC JUMP JUMPDEST DUP1 PUSH1 0x1F ADD PUSH1 0x20 DUP1 SWAP2 DIV MUL PUSH1 0x20 ADD PUSH1 0x40 MLOAD SWAP1 DUP2 ADD PUSH1 0x40 MSTORE DUP1 SWAP3 SWAP2 SWAP1 DUP2 DUP2 MSTORE PUSH1 0x20 ADD DUP3 DUP1 SLOAD PUSH2 0x2BF2 SWAP1 PUSH2 0x4EEC JUMP JUMPDEST DUP1 ISZERO PUSH2 0x2C3F JUMPI DUP1 PUSH1 0x1F LT PUSH2 0x2C14 JUMPI PUSH2 0x100 DUP1 DUP4 SLOAD DIV MUL DUP4 MSTORE SWAP2 PUSH1 0x20 ADD SWAP2 PUSH2 0x2C3F JUMP JUMPDEST DUP3 ADD SWAP2 SWAP1 PUSH1 0x0 MSTORE PUSH1 0x20 PUSH1 0x0 KECCAK256 SWAP1 JUMPDEST DUP2 SLOAD DUP2 MSTORE SWAP1 PUSH1 0x1 ADD SWAP1 PUSH1 0x20 ADD DUP1 DUP4 GT PUSH2 0x2C22 JUMPI DUP3 SWAP1 SUB PUSH1 0x1F AND DUP3 ADD SWAP2 JUMPDEST POP POP POP POP POP DUP2 MSTORE PUSH1 0x20 ADD PUSH1 0x2 DUP3 ADD DUP1 SLOAD PUSH2 0x2C58 SWAP1 PUSH2 0x4EEC JUMP JUMPDEST DUP1 PUSH1 0x1F ADD PUSH1 0x20 DUP1 SWAP2 DIV MUL PUSH1 0x20 ADD PUSH1 0x40 MLOAD SWAP1 DUP2 ADD PUSH1 0x40 MSTORE DUP1 SWAP3 SWAP2 SWAP1 DUP2 DUP2 MSTORE PUSH1 0x20 ADD DUP3 DUP1 SLOAD PUSH2 0x2C84 SWAP1 PUSH2 0x4EEC JUMP JUMPDEST DUP1 ISZERO PUSH2 0x2CD1 JUMPI DUP1 PUSH1 0x1F LT PUSH2 0x2CA6 JUMPI PUSH2 0x100 DUP1 DUP4 SLOAD DIV MUL DUP4 MSTORE SWAP2 PUSH1 0x20 ADD SWAP2 PUSH2 0x2CD1 JUMP JUMPDEST DUP3 ADD SWAP2 SWAP1 PUSH1 0x0 MSTORE PUSH1 0x20 PUSH1 0x0 KECCAK256 SWAP1 JUMPDEST DUP2 SLOAD DUP2 MSTORE SWAP1 PUSH1 0x1 ADD SWAP1 PUSH1 0x20 ADD DUP1 DUP4 GT PUSH2 0x2CB4 JUMPI DUP3 SWAP1 SUB PUSH1 0x1F AND DUP3 ADD SWAP2 JUMPDEST POP POP POP POP POP DUP2 MSTORE POP POP DUP2 MSTORE PUSH1 0x20 ADD SWAP1 PUSH1 0x1 ADD SWAP1 PUSH2 0x2B01 JUMP JUMPDEST POP POP POP POP DUP2 MSTORE POP POP DUP3 DUP3 DUP2 MLOAD DUP2 LT PUSH2 0x2D04 JUMPI PUSH2 0x2D03 PUSH2 0x4F1D JUMP JUMPDEST JUMPDEST PUSH1 0x20 MUL PUSH1 0x20 ADD ADD DUP2 SWAP1 MSTORE POP DUP1 DUP1 PUSH2 0x2D1A SWAP1 PUSH2 0x5035 JUMP JUMPDEST SWAP2 POP POP PUSH2 0x27C7 JUMP JUMPDEST POP DUP1 SWAP2 POP POP SWAP1 JUMP JUMPDEST PUSH1 0x60 PUSH1 0x0 PUSH1 0x5 DUP1 SLOAD SWAP1 POP PUSH8 0xFFFFFFFFFFFFFFFF DUP2 GT ISZERO PUSH2 0x2D4D JUMPI PUSH2 0x2D4C PUSH2 0x4248 JUMP JUMPDEST JUMPDEST PUSH1 0x40 MLOAD SWAP1 DUP1 DUP3 MSTORE DUP1 PUSH1 0x20 MUL PUSH1 0x20 ADD DUP3 ADD PUSH1 0x40 MSTORE DUP1 ISZERO PUSH2 0x2D86 JUMPI DUP2 PUSH1 0x20 ADD JUMPDEST PUSH2 0x2D73 PUSH2 0x3A1B JUMP JUMPDEST DUP2 MSTORE PUSH1 0x20 ADD SWAP1 PUSH1 0x1 SWAP1 SUB SWAP1 DUP2 PUSH2 0x2D6B JUMPI SWAP1 POP JUMPDEST POP SWAP1 POP PUSH1 0x0 DUP1 JUMPDEST PUSH1 0x5 DUP1 SLOAD SWAP1 POP DUP2 LT ISZERO PUSH2 0x3637 JUMPI PUSH1 0x4 PUSH1 0x5 DUP3 DUP2 SLOAD DUP2 LT PUSH2 0x2DB0 JUMPI PUSH2 0x2DAF PUSH2 0x4F1D JUMP JUMPDEST JUMPDEST SWAP1 PUSH1 0x0 MSTORE PUSH1 0x20 PUSH1 0x0 KECCAK256 ADD PUSH1 0x40 MLOAD PUSH2 0x2DC7 SWAP2 SWAP1 PUSH2 0x4FEF JUMP JUMPDEST SWAP1 DUP2 MSTORE PUSH1 0x20 ADD PUSH1 0x40 MLOAD DUP1 SWAP2 SUB SWAP1 KECCAK256 PUSH1 0x6 ADD PUSH1 0x0 SWAP1 SLOAD SWAP1 PUSH2 0x100 EXP SWAP1 DIV PUSH1 0xFF AND ISZERO PUSH2 0x3624 JUMPI PUSH1 0x4 PUSH1 0x5 DUP3 DUP2 SLOAD DUP2 LT PUSH2 0x2E01 JUMPI PUSH2 0x2E00 PUSH2 0x4F1D JUMP JUMPDEST JUMPDEST SWAP1 PUSH1 0x0 MSTORE PUSH1 0x20 PUSH1 0x0 KECCAK256 ADD PUSH1 0x40 MLOAD PUSH2 0x2E18 SWAP2 SWAP1 PUSH2 0x4FEF JUMP JUMPDEST SWAP1 DUP2 MSTORE PUSH1 0x20 ADD PUSH1 0x40 MLOAD DUP1 SWAP2 SUB SWAP1 KECCAK256 PUSH1 0x40 MLOAD DUP1 PUSH2 0x160 ADD PUSH1 0x40 MSTORE SWAP1 DUP2 PUSH1 0x0 DUP3 ADD DUP1 SLOAD PUSH2 0x2E42 SWAP1 PUSH2 0x4EEC JUMP JUMPDEST DUP1 PUSH1 0x1F ADD PUSH1 0x20 DUP1 SWAP2 DIV MUL PUSH1 0x20 ADD PUSH1 0x40 MLOAD SWAP1 DUP2 ADD PUSH1 0x40 MSTORE DUP1 SWAP3 SWAP2 SWAP1 DUP2 DUP2 MSTORE PUSH1 0x20 ADD DUP3 DUP1 SLOAD PUSH2 0x2E6E SWAP1 PUSH2 0x4EEC JUMP JUMPDEST DUP1 ISZERO PUSH2 0x2EBB JUMPI DUP1 PUSH1 0x1F LT PUSH2 0x2E90 JUMPI PUSH2 0x100 DUP1 DUP4 SLOAD DIV MUL DUP4 MSTORE SWAP2 PUSH1 0x20 ADD SWAP2 PUSH2 0x2EBB JUMP JUMPDEST DUP3 ADD SWAP2 SWAP1 PUSH1 0x0 MSTORE PUSH1 0x20 PUSH1 0x0 KECCAK256 SWAP1 JUMPDEST DUP2 SLOAD DUP2 MSTORE SWAP1 PUSH1 0x1 ADD SWAP1 PUSH1 0x20 ADD DUP1 DUP4 GT PUSH2 0x2E9E JUMPI DUP3 SWAP1 SUB PUSH1 0x1F AND DUP3 ADD SWAP2 JUMPDEST POP POP POP POP POP DUP2 MSTORE PUSH1 0x20 ADD PUSH1 0x1 DUP3 ADD DUP1 SLOAD PUSH2 0x2ED4 SWAP1 PUSH2 0x4EEC JUMP JUMPDEST DUP1 PUSH1 0x1F ADD PUSH1 0x20 DUP1 SWAP2 DIV MUL PUSH1 0x20 ADD PUSH1 0x40 MLOAD SWAP1 DUP2 ADD PUSH1 0x40 MSTORE DUP1 SWAP3 SWAP2 SWAP1 DUP2 DUP2 MSTORE PUSH1 0x20 ADD DUP3 DUP1 SLOAD PUSH2 0x2F00 SWAP1 PUSH2 0x4EEC JUMP JUMPDEST DUP1 ISZERO PUSH2 0x2F4D JUMPI DUP1 PUSH1 0x1F LT PUSH2 0x2F22 JUMPI PUSH2 0x100 DUP1 DUP4 SLOAD DIV MUL DUP4 MSTORE SWAP2 PUSH1 0x20 ADD SWAP2 PUSH2 0x2F4D JUMP JUMPDEST DUP3 ADD SWAP2 SWAP1 PUSH1 0x0 MSTORE PUSH1 0x20 PUSH1 0x0 KECCAK256 SWAP1 JUMPDEST DUP2 SLOAD DUP2 MSTORE SWAP1 PUSH1 0x1 ADD SWAP1 PUSH1 0x20 ADD DUP1 DUP4 GT PUSH2 0x2F30 JUMPI DUP3 SWAP1 SUB PUSH1 0x1F AND DUP3 ADD SWAP2 JUMPDEST POP POP POP POP POP DUP2 MSTORE PUSH1 0x20 ADD PUSH1 0x2 DUP3 ADD DUP1 SLOAD PUSH2 0x2F66 SWAP1 PUSH2 0x4EEC JUMP JUMPDEST DUP1 PUSH1 0x1F ADD PUSH1 0x20 DUP1 SWAP2 DIV MUL PUSH1 0x20 ADD PUSH1 0x40 MLOAD SWAP1 DUP2 ADD PUSH1 0x40 MSTORE DUP1 SWAP3 SWAP2 SWAP1 DUP2 DUP2 MSTORE PUSH1 0x20 ADD DUP3 DUP1 SLOAD PUSH2 0x2F92 SWAP1 PUSH2 0x4EEC JUMP JUMPDEST DUP1 ISZERO PUSH2 0x2FDF JUMPI DUP1 PUSH1 0x1F LT PUSH2 0x2FB4 JUMPI PUSH2 0x100 DUP1 DUP4 SLOAD DIV MUL DUP4 MSTORE SWAP2 PUSH1 0x20 ADD SWAP2 PUSH2 0x2FDF JUMP JUMPDEST DUP3 ADD SWAP2 SWAP1 PUSH1 0x0 MSTORE PUSH1 0x20 PUSH1 0x0 KECCAK256 SWAP1 JUMPDEST DUP2 SLOAD DUP2 MSTORE SWAP1 PUSH1 0x1 ADD SWAP1 PUSH1 0x20 ADD DUP1 DUP4 GT PUSH2 0x2FC2 JUMPI DUP3 SWAP1 SUB PUSH1 0x1F AND DUP3 ADD SWAP2 JUMPDEST POP POP POP POP POP DUP2 MSTORE PUSH1 0x20 ADD PUSH1 0x3 DUP3 ADD DUP1 SLOAD PUSH2 0x2FF8 SWAP1 PUSH2 0x4EEC JUMP JUMPDEST DUP1 PUSH1 0x1F ADD PUSH1 0x20 DUP1 SWAP2 DIV MUL PUSH1 0x20 ADD PUSH1 0x40 MLOAD SWAP1 DUP2 ADD PUSH1 0x40 MSTORE DUP1 SWAP3 SWAP2 SWAP1 DUP2 DUP2 MSTORE PUSH1 0x20 ADD DUP3 DUP1 SLOAD PUSH2 0x3024 SWAP1 PUSH2 0x4EEC JUMP JUMPDEST DUP1 ISZERO PUSH2 0x3071 JUMPI DUP1 PUSH1 0x1F LT PUSH2 0x3046 JUMPI PUSH2 0x100 DUP1 DUP4 SLOAD DIV MUL DUP4 MSTORE SWAP2 PUSH1 0x20 ADD SWAP2 PUSH2 0x3071 JUMP JUMPDEST DUP3 ADD SWAP2 SWAP1 PUSH1 0x0 MSTORE PUSH1 0x20 PUSH1 0x0 KECCAK256 SWAP1 JUMPDEST DUP2 SLOAD DUP2 MSTORE SWAP1 PUSH1 0x1 ADD SWAP1 PUSH1 0x20 ADD DUP1 DUP4 GT PUSH2 0x3054 JUMPI DUP3 SWAP1 SUB PUSH1 0x1F AND DUP3 ADD SWAP2 JUMPDEST POP POP POP POP POP DUP2 MSTORE PUSH1 0x20 ADD PUSH1 0x4 DUP3 ADD DUP1 SLOAD DUP1 PUSH1 0x20 MUL PUSH1 0x20 ADD PUSH1 0x40 MLOAD SWAP1 DUP2 ADD PUSH1 0x40 MSTORE DUP1 SWAP3 SWAP2 SWAP1 DUP2 DUP2 MSTORE PUSH1 0x20 ADD PUSH1 0x0 SWAP1 JUMPDEST DUP3 DUP3 LT ISZERO PUSH2 0x3287 JUMPI DUP4 DUP3 SWAP1 PUSH1 0x0 MSTORE PUSH1 0x20 PUSH1 0x0 KECCAK256 SWAP1 PUSH1 0x3 MUL ADD PUSH1 0x40 MLOAD DUP1 PUSH1 0x60 ADD PUSH1 0x40 MSTORE SWAP1 DUP2 PUSH1 0x0 DUP3 ADD DUP1 SLOAD PUSH2 0x30D2 SWAP1 PUSH2 0x4EEC JUMP JUMPDEST DUP1 PUSH1 0x1F ADD PUSH1 0x20 DUP1 SWAP2 DIV MUL PUSH1 0x20 ADD PUSH1 0x40 MLOAD SWAP1 DUP2 ADD PUSH1 0x40 MSTORE DUP1 SWAP3 SWAP2 SWAP1 DUP2 DUP2 MSTORE PUSH1 0x20 ADD DUP3 DUP1 SLOAD PUSH2 0x30FE SWAP1 PUSH2 0x4EEC JUMP JUMPDEST DUP1 ISZERO PUSH2 0x314B JUMPI DUP1 PUSH1 0x1F LT PUSH2 0x3120 JUMPI PUSH2 0x100 DUP1 DUP4 SLOAD DIV MUL DUP4 MSTORE SWAP2 PUSH1 0x20 ADD SWAP2 PUSH2 0x314B JUMP JUMPDEST DUP3 ADD SWAP2 SWAP1 PUSH1 0x0 MSTORE PUSH1 0x20 PUSH1 0x0 KECCAK256 SWAP1 JUMPDEST DUP2 SLOAD DUP2 MSTORE SWAP1 PUSH1 0x1 ADD SWAP1 PUSH1 0x20 ADD DUP1 DUP4 GT PUSH2 0x312E JUMPI DUP3 SWAP1 SUB PUSH1 0x1F AND DUP3 ADD SWAP2 JUMPDEST POP POP POP POP POP DUP2 MSTORE PUSH1 0x20 ADD PUSH1 0x1 DUP3 ADD DUP1 SLOAD PUSH2 0x3164 SWAP1 PUSH2 0x4EEC JUMP JUMPDEST DUP1 PUSH1 0x1F ADD PUSH1 0x20 DUP1 SWAP2 DIV MUL PUSH1 0x20 ADD PUSH1 0x40 MLOAD SWAP1 DUP2 ADD PUSH1 0x40 MSTORE DUP1 SWAP3 SWAP2 SWAP1 DUP2 DUP2 MSTORE PUSH1 0x20 ADD DUP3 DUP1 SLOAD PUSH2 0x3190 SWAP1 PUSH2 0x4EEC JUMP JUMPDEST DUP1 ISZERO PUSH2 0x31DD JUMPI DUP1 PUSH1 0x1F LT PUSH2 0x31B2 JUMPI PUSH2 0x100 DUP1 DUP4 SLOAD DIV MUL DUP4 MSTORE SWAP2 PUSH1 0x20 ADD SWAP2 PUSH2 0x31DD JUMP JUMPDEST DUP3 ADD SWAP2 SWAP1 PUSH1 0x0 MSTORE PUSH1 0x20 PUSH1 0x0 KECCAK256 SWAP1 JUMPDEST DUP2 SLOAD DUP2 MSTORE SWAP1 PUSH1 0x1 ADD SWAP1 PUSH1 0x20 ADD DUP1 DUP4 GT PUSH2 0x31C0 JUMPI DUP3 SWAP1 SUB PUSH1 0x1F AND DUP3 ADD SWAP2 JUMPDEST POP POP POP POP POP DUP2 MSTORE PUSH1 0x20 ADD PUSH1 0x2 DUP3 ADD DUP1 SLOAD PUSH2 0x31F6 SWAP1 PUSH2 0x4EEC JUMP JUMPDEST DUP1 PUSH1 0x1F ADD PUSH1 0x20 DUP1 SWAP2 DIV MUL PUSH1 0x20 ADD PUSH1 0x40 MLOAD SWAP1 DUP2 ADD PUSH1 0x40 MSTORE DUP1 SWAP3 SWAP2 SWAP1 DUP2 DUP2 MSTORE PUSH1 0x20 ADD DUP3 DUP1 SLOAD PUSH2 0x3222 SWAP1 PUSH2 0x4EEC JUMP JUMPDEST DUP1 ISZERO PUSH2 0x326F JUMPI DUP1 PUSH1 0x1F LT PUSH2 0x3244 JUMPI PUSH2 0x100 DUP1 DUP4 SLOAD DIV MUL DUP4 MSTORE SWAP2 PUSH1 0x20 ADD SWAP2 PUSH2 0x326F JUMP JUMPDEST DUP3 ADD SWAP2 SWAP1 PUSH1 0x0 MSTORE PUSH1 0x20 PUSH1 0x0 KECCAK256 SWAP1 JUMPDEST DUP2 SLOAD DUP2 MSTORE SWAP1 PUSH1 0x1 ADD SWAP1 PUSH1 0x20 ADD DUP1 DUP4 GT PUSH2 0x3252 JUMPI DUP3 SWAP1 SUB PUSH1 0x1F AND DUP3 ADD SWAP2 JUMPDEST POP POP POP POP POP DUP2 MSTORE POP POP DUP2 MSTORE PUSH1 0x20 ADD SWAP1 PUSH1 0x1 ADD SWAP1 PUSH2 0x309F JUMP JUMPDEST POP POP POP POP DUP2 MSTORE PUSH1 0x20 ADD PUSH1 0x5 DUP3 ADD DUP1 SLOAD DUP1 PUSH1 0x20 MUL PUSH1 0x20 ADD PUSH1 0x40 MLOAD SWAP1 DUP2 ADD PUSH1 0x40 MSTORE DUP1 SWAP3 SWAP2 SWAP1 DUP2 DUP2 MSTORE PUSH1 0x20 ADD PUSH1 0x0 SWAP1 JUMPDEST DUP3 DUP3 LT ISZERO PUSH2 0x349C JUMPI DUP4 DUP3 SWAP1 PUSH1 0x0 MSTORE PUSH1 0x20 PUSH1 0x0 KECCAK256 SWAP1 PUSH1 0x3 MUL ADD PUSH1 0x40 MLOAD DUP1 PUSH1 0x60 ADD PUSH1 0x40 MSTORE SWAP1 DUP2 PUSH1 0x0 DUP3 ADD DUP1 SLOAD PUSH2 0x32E7 SWAP1 PUSH2 0x4EEC JUMP JUMPDEST DUP1 PUSH1 0x1F ADD PUSH1 0x20 DUP1 SWAP2 DIV MUL PUSH1 0x20 ADD PUSH1 0x40 MLOAD SWAP1 DUP2 ADD PUSH1 0x40 MSTORE DUP1 SWAP3 SWAP2 SWAP1 DUP2 DUP2 MSTORE PUSH1 0x20 ADD DUP3 DUP1 SLOAD PUSH2 0x3313 SWAP1 PUSH2 0x4EEC JUMP JUMPDEST DUP1 ISZERO PUSH2 0x3360 JUMPI DUP1 PUSH1 0x1F LT PUSH2 0x3335 JUMPI PUSH2 0x100 DUP1 DUP4 SLOAD DIV MUL DUP4 MSTORE SWAP2 PUSH1 0x20 ADD SWAP2 PUSH2 0x3360 JUMP JUMPDEST DUP3 ADD SWAP2 SWAP1 PUSH1 0x0 MSTORE PUSH1 0x20 PUSH1 0x0 KECCAK256 SWAP1 JUMPDEST DUP2 SLOAD DUP2 MSTORE SWAP1 PUSH1 0x1 ADD SWAP1 PUSH1 0x20 ADD DUP1 DUP4 GT PUSH2 0x3343 JUMPI DUP3 SWAP1 SUB PUSH1 0x1F AND DUP3 ADD SWAP2 JUMPDEST POP POP POP POP POP DUP2 MSTORE PUSH1 0x20 ADD PUSH1 0x1 DUP3 ADD DUP1 SLOAD PUSH2 0x3379 SWAP1 PUSH2 0x4EEC JUMP JUMPDEST DUP1 PUSH1 0x1F ADD PUSH1 0x20 DUP1 SWAP2 DIV MUL PUSH1 0x20 ADD PUSH1 0x40 MLOAD SWAP1 DUP2 ADD PUSH1 0x40 MSTORE DUP1 SWAP3 SWAP2 SWAP1 DUP2 DUP2 MSTORE PUSH1 0x20 ADD DUP3 DUP1 SLOAD PUSH2 0x33A5 SWAP1 PUSH2 0x4EEC JUMP JUMPDEST DUP1 ISZERO PUSH2 0x33F2 JUMPI DUP1 PUSH1 0x1F LT PUSH2 0x33C7 JUMPI PUSH2 0x100 DUP1 DUP4 SLOAD DIV MUL DUP4 MSTORE SWAP2 PUSH1 0x20 ADD SWAP2 PUSH2 0x33F2 JUMP JUMPDEST DUP3 ADD SWAP2 SWAP1 PUSH1 0x0 MSTORE PUSH1 0x20 PUSH1 0x0 KECCAK256 SWAP1 JUMPDEST DUP2 SLOAD DUP2 MSTORE SWAP1 PUSH1 0x1 ADD SWAP1 PUSH1 0x20 ADD DUP1 DUP4 GT PUSH2 0x33D5 JUMPI DUP3 SWAP1 SUB PUSH1 0x1F AND DUP3 ADD SWAP2 JUMPDEST POP POP POP POP POP DUP2 MSTORE PUSH1 0x20 ADD PUSH1 0x2 DUP3 ADD DUP1 SLOAD PUSH2 0x340B SWAP1 PUSH2 0x4EEC JUMP JUMPDEST DUP1 PUSH1 0x1F ADD PUSH1 0x20 DUP1 SWAP2 DIV MUL PUSH1 0x20 ADD PUSH1 0x40 MLOAD SWAP1 DUP2 ADD PUSH1 0x40 MSTORE DUP1 SWAP3 SWAP2 SWAP1 DUP2 DUP2 MSTORE PUSH1 0x20 ADD DUP3 DUP1 SLOAD PUSH2 0x3437 SWAP1 PUSH2 0x4EEC JUMP JUMPDEST DUP1 ISZERO PUSH2 0x3484 JUMPI DUP1 PUSH1 0x1F LT PUSH2 0x3459 JUMPI PUSH2 0x100 DUP1 DUP4 SLOAD DIV MUL DUP4 MSTORE SWAP2 PUSH1 0x20 ADD SWAP2 PUSH2 0x3484 JUMP JUMPDEST DUP3 ADD SWAP2 SWAP1 PUSH1 0x0 MSTORE PUSH1 0x20 PUSH1 0x0 KECCAK256 SWAP1 JUMPDEST DUP2 SLOAD DUP2 MSTORE SWAP1 PUSH1 0x1 ADD SWAP1 PUSH1 0x20 ADD DUP1 DUP4 GT PUSH2 0x3467 JUMPI DUP3 SWAP1 SUB PUSH1 0x1F AND DUP3 ADD SWAP2 JUMPDEST POP POP POP POP POP DUP2 MSTORE POP POP DUP2 MSTORE PUSH1 0x20 ADD SWAP1 PUSH1 0x1 ADD SWAP1 PUSH2 0x32B4 JUMP JUMPDEST POP POP POP POP DUP2 MSTORE PUSH1 0x20 ADD PUSH1 0x6 DUP3 ADD PUSH1 0x0 SWAP1 SLOAD SWAP1 PUSH2 0x100 EXP SWAP1 DIV PUSH1 0xFF AND ISZERO ISZERO ISZERO ISZERO DUP2 MSTORE PUSH1 0x20 ADD PUSH1 0x7 DUP3 ADD SLOAD DUP2 MSTORE PUSH1 0x20 ADD PUSH1 0x8 DUP3 ADD SLOAD DUP2 MSTORE PUSH1 0x20 ADD PUSH1 0x9 DUP3 ADD DUP1 SLOAD PUSH2 0x34E3 SWAP1 PUSH2 0x4EEC JUMP JUMPDEST DUP1 PUSH1 0x1F ADD PUSH1 0x20 DUP1 SWAP2 DIV MUL PUSH1 0x20 ADD PUSH1 0x40 MLOAD SWAP1 DUP2 ADD PUSH1 0x40 MSTORE DUP1 SWAP3 SWAP2 SWAP1 DUP2 DUP2 MSTORE PUSH1 0x20 ADD DUP3 DUP1 SLOAD PUSH2 0x350F SWAP1 PUSH2 0x4EEC JUMP JUMPDEST DUP1 ISZERO PUSH2 0x355C JUMPI DUP1 PUSH1 0x1F LT PUSH2 0x3531 JUMPI PUSH2 0x100 DUP1 DUP4 SLOAD DIV MUL DUP4 MSTORE SWAP2 PUSH1 0x20 ADD SWAP2 PUSH2 0x355C JUMP JUMPDEST DUP3 ADD SWAP2 SWAP1 PUSH1 0x0 MSTORE PUSH1 0x20 PUSH1 0x0 KECCAK256 SWAP1 JUMPDEST DUP2 SLOAD DUP2 MSTORE SWAP1 PUSH1 0x1 ADD SWAP1 PUSH1 0x20 ADD DUP1 DUP4 GT PUSH2 0x353F JUMPI DUP3 SWAP1 SUB PUSH1 0x1F AND DUP3 ADD SWAP2 JUMPDEST POP POP POP POP POP DUP2 MSTORE PUSH1 0x20 ADD PUSH1 0xA DUP3 ADD DUP1 SLOAD PUSH2 0x3575 SWAP1 PUSH2 0x4EEC JUMP JUMPDEST DUP1 PUSH1 0x1F ADD PUSH1 0x20 DUP1 SWAP2 DIV MUL PUSH1 0x20 ADD PUSH1 0x40 MLOAD SWAP1 DUP2 ADD PUSH1 0x40 MSTORE DUP1 SWAP3 SWAP2 SWAP1 DUP2 DUP2 MSTORE PUSH1 0x20 ADD DUP3 DUP1 SLOAD PUSH2 0x35A1 SWAP1 PUSH2 0x4EEC JUMP JUMPDEST DUP1 ISZERO PUSH2 0x35EE JUMPI DUP1 PUSH1 0x1F LT PUSH2 0x35C3 JUMPI PUSH2 0x100 DUP1 DUP4 SLOAD DIV MUL DUP4 MSTORE SWAP2 PUSH1 0x20 ADD SWAP2 PUSH2 0x35EE JUMP JUMPDEST DUP3 ADD SWAP2 SWAP1 PUSH1 0x0 MSTORE PUSH1 0x20 PUSH1 0x0 KECCAK256 SWAP1 JUMPDEST DUP2 SLOAD DUP2 MSTORE SWAP1 PUSH1 0x1 ADD SWAP1 PUSH1 0x20 ADD DUP1 DUP4 GT PUSH2 0x35D1 JUMPI DUP3 SWAP1 SUB PUSH1 0x1F AND DUP3 ADD SWAP2 JUMPDEST POP POP POP POP POP DUP2 MSTORE POP POP DUP4 DUP4 DUP2 MLOAD DUP2 LT PUSH2 0x360A JUMPI PUSH2 0x3609 PUSH2 0x4F1D JUMP JUMPDEST JUMPDEST PUSH1 0x20 MUL PUSH1 0x20 ADD ADD DUP2 SWAP1 MSTORE POP DUP2 DUP1 PUSH2 0x3620 SWAP1 PUSH2 0x5035 JUMP JUMPDEST SWAP3 POP POP JUMPDEST DUP1 DUP1 PUSH2 0x362F SWAP1 PUSH2 0x5035 JUMP JUMPDEST SWAP2 POP POP PUSH2 0x2D8D JUMP JUMPDEST POP DUP2 SWAP3 POP POP POP SWAP1 JUMP JUMPDEST PUSH1 0x0 PUSH1 0x4 DUP6 PUSH1 0x40 MLOAD PUSH2 0x3652 SWAP2 SWAP1 PUSH2 0x50AE JUMP JUMPDEST SWAP1 DUP2 MSTORE PUSH1 0x20 ADD PUSH1 0x40 MLOAD DUP1 SWAP2 SUB SWAP1 KECCAK256 SWAP1 POP DUP6 DUP2 PUSH1 0x0 ADD SWAP1 DUP2 PUSH2 0x3673 SWAP2 SWAP1 PUSH2 0x525C JUMP JUMPDEST POP DUP4 DUP2 PUSH1 0x3 ADD SWAP1 DUP2 PUSH2 0x3685 SWAP2 SWAP1 PUSH2 0x525C JUMP JUMPDEST POP DUP3 DUP2 PUSH1 0x9 ADD SWAP1 DUP2 PUSH2 0x3697 SWAP2 SWAP1 PUSH2 0x525C JUMP JUMPDEST POP DUP2 DUP2 PUSH1 0xA ADD SWAP1 DUP2 PUSH2 0x36A9 SWAP2 SWAP1 PUSH2 0x5389 JUMP JUMPDEST POP PUSH1 0x1 DUP2 PUSH1 0x7 ADD DUP2 SWAP1 SSTORE POP POP POP POP POP POP POP JUMP JUMPDEST PUSH1 0x0 PUSH1 0x4 DUP3 PUSH1 0x40 MLOAD PUSH2 0x36CE SWAP2 SWAP1 PUSH2 0x50AE JUMP JUMPDEST SWAP1 DUP2 MSTORE PUSH1 0x20 ADD PUSH1 0x40 MLOAD DUP1 SWAP2 SUB SWAP1 KECCAK256 SWAP1 POP DUP3 DUP2 PUSH1 0x8 ADD DUP2 SWAP1 SSTORE POP DUP3 DUP2 PUSH1 0x7 ADD DUP2 SWAP1 SSTORE POP DUP4 DUP2 PUSH1 0x0 ADD SWAP1 DUP2 PUSH2 0x3701 SWAP2 SWAP1 PUSH2 0x525C JUMP JUMPDEST POP POP POP POP POP JUMP JUMPDEST PUSH1 0x0 PUSH1 0x4 DUP4 PUSH1 0x40 MLOAD PUSH2 0x371A SWAP2 SWAP1 PUSH2 0x50AE JUMP JUMPDEST SWAP1 DUP2 MSTORE PUSH1 0x20 ADD PUSH1 0x40 MLOAD DUP1 SWAP2 SUB SWAP1 KECCAK256 SWAP1 POP DUP2 DUP2 PUSH1 0x6 ADD PUSH1 0x0 PUSH2 0x100 EXP DUP2 SLOAD DUP2 PUSH1 0xFF MUL NOT AND SWAP1 DUP4 ISZERO ISZERO MUL OR SWAP1 SSTORE POP DUP4 DUP2 PUSH1 0x0 ADD SWAP1 DUP2 PUSH2 0x3757 SWAP2 SWAP1 PUSH2 0x525C JUMP JUMPDEST POP POP POP POP POP JUMP JUMPDEST PUSH1 0x0 DUP1 PUSH2 0x376B SWAP2 SWAP1 PUSH2 0x3AA1 JUMP JUMPDEST PUSH1 0x0 JUMPDEST DUP3 MLOAD DUP2 LT ISZERO PUSH2 0x38B9 JUMPI PUSH1 0x0 PUSH1 0x40 MLOAD DUP1 PUSH1 0x60 ADD PUSH1 0x40 MSTORE DUP1 DUP6 DUP5 DUP2 MLOAD DUP2 LT PUSH2 0x3797 JUMPI PUSH2 0x3796 PUSH2 0x4F1D JUMP JUMPDEST JUMPDEST PUSH1 0x20 MUL PUSH1 0x20 ADD ADD MLOAD PUSH1 0x0 DUP2 MLOAD DUP2 LT PUSH2 0x37B2 JUMPI PUSH2 0x37B1 PUSH2 0x4F1D JUMP JUMPDEST JUMPDEST PUSH1 0x20 MUL PUSH1 0x20 ADD ADD MLOAD DUP2 MSTORE PUSH1 0x20 ADD DUP6 DUP5 DUP2 MLOAD DUP2 LT PUSH2 0x37D2 JUMPI PUSH2 0x37D1 PUSH2 0x4F1D JUMP JUMPDEST JUMPDEST PUSH1 0x20 MUL PUSH1 0x20 ADD ADD MLOAD PUSH1 0x1 DUP2 MLOAD DUP2 LT PUSH2 0x37ED JUMPI PUSH2 0x37EC PUSH2 0x4F1D JUMP JUMPDEST JUMPDEST PUSH1 0x20 MUL PUSH1 0x20 ADD ADD MLOAD DUP2 MSTORE PUSH1 0x20 ADD DUP6 DUP5 DUP2 MLOAD DUP2 LT PUSH2 0x380D JUMPI PUSH2 0x380C PUSH2 0x4F1D JUMP JUMPDEST JUMPDEST PUSH1 0x20 MUL PUSH1 0x20 ADD ADD MLOAD PUSH1 0x2 DUP2 MLOAD DUP2 LT PUSH2 0x3828 JUMPI PUSH2 0x3827 PUSH2 0x4F1D JUMP JUMPDEST JUMPDEST PUSH1 0x20 MUL PUSH1 0x20 ADD ADD MLOAD DUP2 MSTORE POP SWAP1 POP PUSH1 0x0 DUP2 SWAP1 DUP1 PUSH1 0x1 DUP2 SLOAD ADD DUP1 DUP3 SSTORE DUP1 SWAP2 POP POP PUSH1 0x1 SWAP1 SUB SWAP1 PUSH1 0x0 MSTORE PUSH1 0x20 PUSH1 0x0 KECCAK256 SWAP1 PUSH1 0x3 MUL ADD PUSH1 0x0 SWAP1 SWAP2 SWAP1 SWAP2 SWAP1 SWAP2 POP PUSH1 0x0 DUP3 ADD MLOAD DUP2 PUSH1 0x0 ADD SWAP1 DUP2 PUSH2 0x3876 SWAP2 SWAP1 PUSH2 0x525C JUMP JUMPDEST POP PUSH1 0x20 DUP3 ADD MLOAD DUP2 PUSH1 0x1 ADD SWAP1 DUP2 PUSH2 0x388C SWAP2 SWAP1 PUSH2 0x525C JUMP JUMPDEST POP PUSH1 0x40 DUP3 ADD MLOAD DUP2 PUSH1 0x2 ADD SWAP1 DUP2 PUSH2 0x38A2 SWAP2 SWAP1 PUSH2 0x525C JUMP JUMPDEST POP POP POP POP DUP1 DUP1 PUSH2 0x38B1 SWAP1 PUSH2 0x5035 JUMP JUMPDEST SWAP2 POP POP PUSH2 0x376E JUMP JUMPDEST POP PUSH1 0x1 PUSH1 0x0 PUSH2 0x38C8 SWAP2 SWAP1 PUSH2 0x3AC5 JUMP JUMPDEST PUSH1 0x0 JUMPDEST DUP2 MLOAD DUP2 LT ISZERO PUSH2 0x3A16 JUMPI PUSH1 0x0 PUSH1 0x40 MLOAD DUP1 PUSH1 0x60 ADD PUSH1 0x40 MSTORE DUP1 DUP5 DUP5 DUP2 MLOAD DUP2 LT PUSH2 0x38F4 JUMPI PUSH2 0x38F3 PUSH2 0x4F1D JUMP JUMPDEST JUMPDEST PUSH1 0x20 MUL PUSH1 0x20 ADD ADD MLOAD PUSH1 0x0 DUP2 MLOAD DUP2 LT PUSH2 0x390F JUMPI PUSH2 0x390E PUSH2 0x4F1D JUMP JUMPDEST JUMPDEST PUSH1 0x20 MUL PUSH1 0x20 ADD ADD MLOAD DUP2 MSTORE PUSH1 0x20 ADD DUP5 DUP5 DUP2 MLOAD DUP2 LT PUSH2 0x392F JUMPI PUSH2 0x392E PUSH2 0x4F1D JUMP JUMPDEST JUMPDEST PUSH1 0x20 MUL PUSH1 0x20 ADD ADD MLOAD PUSH1 0x1 DUP2 MLOAD DUP2 LT PUSH2 0x394A JUMPI PUSH2 0x3949 PUSH2 0x4F1D JUMP JUMPDEST JUMPDEST PUSH1 0x20 MUL PUSH1 0x20 ADD ADD MLOAD DUP2 MSTORE PUSH1 0x20 ADD DUP5 DUP5 DUP2 MLOAD DUP2 LT PUSH2 0x396A JUMPI PUSH2 0x3969 PUSH2 0x4F1D JUMP JUMPDEST JUMPDEST PUSH1 0x20 MUL PUSH1 0x20 ADD ADD MLOAD PUSH1 0x2 DUP2 MLOAD DUP2 LT PUSH2 0x3985 JUMPI PUSH2 0x3984 PUSH2 0x4F1D JUMP JUMPDEST JUMPDEST PUSH1 0x20 MUL PUSH1 0x20 ADD ADD MLOAD DUP2 MSTORE POP SWAP1 POP PUSH1 0x1 DUP2 SWAP1 DUP1 PUSH1 0x1 DUP2 SLOAD ADD DUP1 DUP3 SSTORE DUP1 SWAP2 POP POP PUSH1 0x1 SWAP1 SUB SWAP1 PUSH1 0x0 MSTORE PUSH1 0x20 PUSH1 0x0 KECCAK256 SWAP1 PUSH1 0x3 MUL ADD PUSH1 0x0 SWAP1 SWAP2 SWAP1 SWAP2 SWAP1 SWAP2 POP PUSH1 0x0 DUP3 ADD MLOAD DUP2 PUSH1 0x0 ADD SWAP1 DUP2 PUSH2 0x39D3 SWAP2 SWAP1 PUSH2 0x525C JUMP JUMPDEST POP PUSH1 0x20 DUP3 ADD MLOAD DUP2 PUSH1 0x1 ADD SWAP1 DUP2 PUSH2 0x39E9 SWAP2 SWAP1 PUSH2 0x525C JUMP JUMPDEST POP PUSH1 0x40 DUP3 ADD MLOAD DUP2 PUSH1 0x2 ADD SWAP1 DUP2 PUSH2 0x39FF SWAP2 SWAP1 PUSH2 0x525C JUMP JUMPDEST POP POP POP POP DUP1 DUP1 PUSH2 0x3A0E SWAP1 PUSH2 0x5035 JUMP JUMPDEST SWAP2 POP POP PUSH2 0x38CB JUMP JUMPDEST POP POP POP JUMP JUMPDEST PUSH1 0x40 MLOAD DUP1 PUSH2 0x160 ADD PUSH1 0x40 MSTORE DUP1 PUSH1 0x60 DUP2 MSTORE PUSH1 0x20 ADD PUSH1 0x60 DUP2 MSTORE PUSH1 0x20 ADD PUSH1 0x60 DUP2 MSTORE PUSH1 0x20 ADD PUSH1 0x60 DUP2 MSTORE PUSH1 0x20 ADD PUSH1 0x60 DUP2 MSTORE PUSH1 0x20 ADD PUSH1 0x60 DUP2 MSTORE PUSH1 0x20 ADD PUSH1 0x0 ISZERO ISZERO DUP2 MSTORE PUSH1 0x20 ADD PUSH1 0x0 DUP2 MSTORE PUSH1 0x20 ADD PUSH1 0x0 DUP2 MSTORE PUSH1 0x20 ADD PUSH1 0x60 DUP2 MSTORE PUSH1 0x20 ADD PUSH1 0x60 DUP2 MSTORE POP SWAP1 JUMP JUMPDEST PUSH1 0x40 MLOAD DUP1 PUSH1 0x80 ADD PUSH1 0x40 MSTORE DUP1 PUSH1 0x0 ISZERO ISZERO DUP2 MSTORE PUSH1 0x20 ADD PUSH1 0x60 DUP2 MSTORE PUSH1 0x20 ADD PUSH1 0x60 DUP2 MSTORE PUSH1 0x20 ADD PUSH1 0x60 DUP2 MSTORE POP SWAP1 JUMP JUMPDEST POP DUP1 SLOAD PUSH1 0x0 DUP3 SSTORE PUSH1 0x3 MUL SWAP1 PUSH1 0x0 MSTORE PUSH1 0x20 PUSH1 0x0 KECCAK256 SWAP1 DUP2 ADD SWAP1 PUSH2 0x3AC2 SWAP2 SWAP1 PUSH2 0x3AE9 JUMP JUMPDEST POP JUMP JUMPDEST POP DUP1 SLOAD PUSH1 0x0 DUP3 SSTORE PUSH1 0x3 MUL SWAP1 PUSH1 0x0 MSTORE PUSH1 0x20 PUSH1 0x0 KECCAK256 SWAP1 DUP2 ADD SWAP1 PUSH2 0x3AE6 SWAP2 SWAP1 PUSH2 0x3B30 JUMP JUMPDEST POP JUMP JUMPDEST JUMPDEST DUP1 DUP3 GT ISZERO PUSH2 0x3B2C JUMPI PUSH1 0x0 DUP1 DUP3 ADD PUSH1 0x0 PUSH2 0x3B03 SWAP2 SWAP1 PUSH2 0x3B77 JUMP JUMPDEST PUSH1 0x1 DUP3 ADD PUSH1 0x0 PUSH2 0x3B13 SWAP2 SWAP1 PUSH2 0x3B77 JUMP JUMPDEST PUSH1 0x2 DUP3 ADD PUSH1 0x0 PUSH2 0x3B23 SWAP2 SWAP1 PUSH2 0x3B77 JUMP JUMPDEST POP PUSH1 0x3 ADD PUSH2 0x3AEA JUMP JUMPDEST POP SWAP1 JUMP JUMPDEST JUMPDEST DUP1 DUP3 GT ISZERO PUSH2 0x3B73 JUMPI PUSH1 0x0 DUP1 DUP3 ADD PUSH1 0x0 PUSH2 0x3B4A SWAP2 SWAP1 PUSH2 0x3B77 JUMP JUMPDEST PUSH1 0x1 DUP3 ADD PUSH1 0x0 PUSH2 0x3B5A SWAP2 SWAP1 PUSH2 0x3B77 JUMP JUMPDEST PUSH1 0x2 DUP3 ADD PUSH1 0x0 PUSH2 0x3B6A SWAP2 SWAP1 PUSH2 0x3B77 JUMP JUMPDEST POP PUSH1 0x3 ADD PUSH2 0x3B31 JUMP JUMPDEST POP SWAP1 JUMP JUMPDEST POP DUP1 SLOAD PUSH2 0x3B83 SWAP1 PUSH2 0x4EEC JUMP JUMPDEST PUSH1 0x0 DUP3 SSTORE DUP1 PUSH1 0x1F LT PUSH2 0x3B95 JUMPI POP PUSH2 0x3BB4 JUMP JUMPDEST PUSH1 0x1F ADD PUSH1 0x20 SWAP1 DIV SWAP1 PUSH1 0x0 MSTORE PUSH1 0x20 PUSH1 0x0 KECCAK256 SWAP1 DUP2 ADD SWAP1 PUSH2 0x3BB3 SWAP2 SWAP1 PUSH2 0x3BB7 JUMP JUMPDEST JUMPDEST POP JUMP JUMPDEST JUMPDEST DUP1 DUP3 GT ISZERO PUSH2 0x3BD0 JUMPI PUSH1 0x0 DUP2 PUSH1 0x0 SWAP1 SSTORE POP PUSH1 0x1 ADD PUSH2 0x3BB8 JUMP JUMPDEST POP SWAP1 JUMP JUMPDEST PUSH1 0x0 PUSH1 0x40 MLOAD SWAP1 POP SWAP1 JUMP JUMPDEST PUSH1 0x0 DUP1 REVERT JUMPDEST PUSH1 0x0 DUP1 REVERT JUMPDEST PUSH1 0x0 DUP2 SWAP1 POP SWAP2 SWAP1 POP JUMP JUMPDEST PUSH2 0x3BFB DUP2 PUSH2 0x3BE8 JUMP JUMPDEST DUP2 EQ PUSH2 0x3C06 JUMPI PUSH1 0x0 DUP1 REVERT JUMPDEST POP JUMP JUMPDEST PUSH1 0x0 DUP2 CALLDATALOAD SWAP1 POP PUSH2 0x3C18 DUP2 PUSH2 0x3BF2 JUMP JUMPDEST SWAP3 SWAP2 POP POP JUMP JUMPDEST PUSH1 0x0 PUSH1 0x20 DUP3 DUP5 SUB SLT ISZERO PUSH2 0x3C34 JUMPI PUSH2 0x3C33 PUSH2 0x3BDE JUMP JUMPDEST JUMPDEST PUSH1 0x0 PUSH2 0x3C42 DUP5 DUP3 DUP6 ADD PUSH2 0x3C09 JUMP JUMPDEST SWAP2 POP POP SWAP3 SWAP2 POP POP JUMP JUMPDEST PUSH1 0x0 DUP2 MLOAD SWAP1 POP SWAP2 SWAP1 POP JUMP JUMPDEST PUSH1 0x0 DUP3 DUP3 MSTORE PUSH1 0x20 DUP3 ADD SWAP1 POP SWAP3 SWAP2 POP POP JUMP JUMPDEST PUSH1 0x0 JUMPDEST DUP4 DUP2 LT ISZERO PUSH2 0x3C85 JUMPI DUP1 DUP3 ADD MLOAD DUP2 DUP5 ADD MSTORE PUSH1 0x20 DUP2 ADD SWAP1 POP PUSH2 0x3C6A JUMP JUMPDEST PUSH1 0x0 DUP5 DUP5 ADD MSTORE POP POP POP POP JUMP JUMPDEST PUSH1 0x0 PUSH1 0x1F NOT PUSH1 0x1F DUP4 ADD AND SWAP1 POP SWAP2 SWAP1 POP JUMP JUMPDEST PUSH1 0x0 PUSH2 0x3CAD DUP3 PUSH2 0x3C4B JUMP JUMPDEST PUSH2 0x3CB7 DUP2 DUP6 PUSH2 0x3C56 JUMP JUMPDEST SWAP4 POP PUSH2 0x3CC7 DUP2 DUP6 PUSH1 0x20 DUP7 ADD PUSH2 0x3C67 JUMP JUMPDEST PUSH2 0x3CD0 DUP2 PUSH2 0x3C91 JUMP JUMPDEST DUP5 ADD SWAP2 POP POP SWAP3 SWAP2 POP POP JUMP JUMPDEST PUSH1 0x0 PUSH1 0x60 DUP3 ADD SWAP1 POP DUP2 DUP2 SUB PUSH1 0x0 DUP4 ADD MSTORE PUSH2 0x3CF5 DUP2 DUP7 PUSH2 0x3CA2 JUMP JUMPDEST SWAP1 POP DUP2 DUP2 SUB PUSH1 0x20 DUP4 ADD MSTORE PUSH2 0x3D09 DUP2 DUP6 PUSH2 0x3CA2 JUMP JUMPDEST SWAP1 POP DUP2 DUP2 SUB PUSH1 0x40 DUP4 ADD MSTORE PUSH2 0x3D1D DUP2 DUP5 PUSH2 0x3CA2 JUMP JUMPDEST SWAP1 POP SWAP5 SWAP4 POP POP POP POP JUMP JUMPDEST PUSH1 0x0 DUP2 MLOAD SWAP1 POP SWAP2 SWAP1 POP JUMP JUMPDEST PUSH1 0x0 DUP3 DUP3 MSTORE PUSH1 0x20 DUP3 ADD SWAP1 POP SWAP3 SWAP2 POP POP JUMP JUMPDEST PUSH1 0x0 DUP2 SWAP1 POP PUSH1 0x20 DUP3 ADD SWAP1 POP SWAP2 SWAP1 POP JUMP JUMPDEST PUSH1 0x0 DUP3 DUP3 MSTORE PUSH1 0x20 DUP3 ADD SWAP1 POP SWAP3 SWAP2 POP POP JUMP JUMPDEST PUSH1 0x0 PUSH2 0x3D6F DUP3 PUSH2 0x3C4B JUMP JUMPDEST PUSH2 0x3D79 DUP2 DUP6 PUSH2 0x3D53 JUMP JUMPDEST SWAP4 POP PUSH2 0x3D89 DUP2 DUP6 PUSH1 0x20 DUP7 ADD PUSH2 0x3C67 JUMP JUMPDEST PUSH2 0x3D92 DUP2 PUSH2 0x3C91 JUMP JUMPDEST DUP5 ADD SWAP2 POP POP SWAP3 SWAP2 POP POP JUMP JUMPDEST PUSH1 0x0 DUP2 MLOAD SWAP1 POP SWAP2 SWAP1 POP JUMP JUMPDEST PUSH1 0x0 DUP3 DUP3 MSTORE PUSH1 0x20 DUP3 ADD SWAP1 POP SWAP3 SWAP2 POP POP JUMP JUMPDEST PUSH1 0x0 DUP2 SWAP1 POP PUSH1 0x20 DUP3 ADD SWAP1 POP SWAP2 SWAP1 POP JUMP JUMPDEST PUSH1 0x0 PUSH1 0x60 DUP4 ADD PUSH1 0x0 DUP4 ADD MLOAD DUP5 DUP3 SUB PUSH1 0x0 DUP7 ADD MSTORE PUSH2 0x3DE6 DUP3 DUP3 PUSH2 0x3D64 JUMP JUMPDEST SWAP2 POP POP PUSH1 0x20 DUP4 ADD MLOAD DUP5 DUP3 SUB PUSH1 0x20 DUP7 ADD MSTORE PUSH2 0x3E00 DUP3 DUP3 PUSH2 0x3D64 JUMP JUMPDEST SWAP2 POP POP PUSH1 0x40 DUP4 ADD MLOAD DUP5 DUP3 SUB PUSH1 0x40 DUP7 ADD MSTORE PUSH2 0x3E1A DUP3 DUP3 PUSH2 0x3D64 JUMP JUMPDEST SWAP2 POP POP DUP1 SWAP2 POP POP SWAP3 SWAP2 POP POP JUMP JUMPDEST PUSH1 0x0 PUSH2 0x3E33 DUP4 DUP4 PUSH2 0x3DC9 JUMP JUMPDEST SWAP1 POP SWAP3 SWAP2 POP POP JUMP JUMPDEST PUSH1 0x0 PUSH1 0x20 DUP3 ADD SWAP1 POP SWAP2 SWAP1 POP JUMP JUMPDEST PUSH1 0x0 PUSH2 0x3E53 DUP3 PUSH2 0x3D9D JUMP JUMPDEST PUSH2 0x3E5D DUP2 DUP6 PUSH2 0x3DA8 JUMP JUMPDEST SWAP4 POP DUP4 PUSH1 0x20 DUP3 MUL DUP6 ADD PUSH2 0x3E6F DUP6 PUSH2 0x3DB9 JUMP JUMPDEST DUP1 PUSH1 0x0 JUMPDEST DUP6 DUP2 LT ISZERO PUSH2 0x3EAB JUMPI DUP5 DUP5 SUB DUP10 MSTORE DUP2 MLOAD PUSH2 0x3E8C DUP6 DUP3 PUSH2 0x3E27 JUMP JUMPDEST SWAP5 POP PUSH2 0x3E97 DUP4 PUSH2 0x3E3B JUMP JUMPDEST SWAP3 POP PUSH1 0x20 DUP11 ADD SWAP10 POP POP PUSH1 0x1 DUP2 ADD SWAP1 POP PUSH2 0x3E73 JUMP JUMPDEST POP DUP3 SWAP8 POP DUP8 SWAP6 POP POP POP POP POP POP SWAP3 SWAP2 POP POP JUMP JUMPDEST PUSH1 0x0 DUP2 MLOAD SWAP1 POP SWAP2 SWAP1 POP JUMP JUMPDEST PUSH1 0x0 DUP3 DUP3 MSTORE PUSH1 0x20 DUP3 ADD SWAP1 POP SWAP3 SWAP2 POP POP JUMP JUMPDEST PUSH1 0x0 DUP2 SWAP1 POP PUSH1 0x20 DUP3 ADD SWAP1 POP SWAP2 SWAP1 POP JUMP JUMPDEST PUSH1 0x0 PUSH1 0x60 DUP4 ADD PUSH1 0x0 DUP4 ADD MLOAD DUP5 DUP3 SUB PUSH1 0x0 DUP7 ADD MSTORE PUSH2 0x3F06 DUP3 DUP3 PUSH2 0x3D64 JUMP JUMPDEST SWAP2 POP POP PUSH1 0x20 DUP4 ADD MLOAD DUP5 DUP3 SUB PUSH1 0x20 DUP7 ADD MSTORE PUSH2 0x3F20 DUP3 DUP3 PUSH2 0x3D64 JUMP JUMPDEST SWAP2 POP POP PUSH1 0x40 DUP4 ADD MLOAD DUP5 DUP3 SUB PUSH1 0x40 DUP7 ADD MSTORE PUSH2 0x3F3A DUP3 DUP3 PUSH2 0x3D64 JUMP JUMPDEST SWAP2 POP POP DUP1 SWAP2 POP POP SWAP3 SWAP2 POP POP JUMP JUMPDEST PUSH1 0x0 PUSH2 0x3F53 DUP4 DUP4 PUSH2 0x3EE9 JUMP JUMPDEST SWAP1 POP SWAP3 SWAP2 POP POP JUMP JUMPDEST PUSH1 0x0 PUSH1 0x20 DUP3 ADD SWAP1 POP SWAP2 SWAP1 POP JUMP JUMPDEST PUSH1 0x0 PUSH2 0x3F73 DUP3 PUSH2 0x3EBD JUMP JUMPDEST PUSH2 0x3F7D DUP2 DUP6 PUSH2 0x3EC8 JUMP JUMPDEST SWAP4 POP DUP4 PUSH1 0x20 DUP3 MUL DUP6 ADD PUSH2 0x3F8F DUP6 PUSH2 0x3ED9 JUMP JUMPDEST DUP1 PUSH1 0x0 JUMPDEST DUP6 DUP2 LT ISZERO PUSH2 0x3FCB JUMPI DUP5 DUP5 SUB DUP10 MSTORE DUP2 MLOAD PUSH2 0x3FAC DUP6 DUP3 PUSH2 0x3F47 JUMP JUMPDEST SWAP5 POP PUSH2 0x3FB7 DUP4 PUSH2 0x3F5B JUMP JUMPDEST SWAP3 POP PUSH1 0x20 DUP11 ADD SWAP10 POP POP PUSH1 0x1 DUP2 ADD SWAP1 POP PUSH2 0x3F93 JUMP JUMPDEST POP DUP3 SWAP8 POP DUP8 SWAP6 POP POP POP POP POP POP SWAP3 SWAP2 POP POP JUMP JUMPDEST PUSH1 0x0 DUP2 ISZERO ISZERO SWAP1 POP SWAP2 SWAP1 POP JUMP JUMPDEST PUSH2 0x3FF2 DUP2 PUSH2 0x3FDD JUMP JUMPDEST DUP3 MSTORE POP POP JUMP JUMPDEST PUSH1 0x0 DUP2 SWAP1 POP SWAP2 SWAP1 POP JUMP JUMPDEST PUSH2 0x400B DUP2 PUSH2 0x3FF8 JUMP JUMPDEST DUP3 MSTORE POP POP JUMP JUMPDEST PUSH1 0x0 DUP2 MLOAD SWAP1 POP SWAP2 SWAP1 POP JUMP JUMPDEST PUSH1 0x0 DUP3 DUP3 MSTORE PUSH1 0x20 DUP3 ADD SWAP1 POP SWAP3 SWAP2 POP POP JUMP JUMPDEST PUSH1 0x0 PUSH2 0x4038 DUP3 PUSH2 0x4011 JUMP JUMPDEST PUSH2 0x4042 DUP2 DUP6 PUSH2 0x401C JUMP JUMPDEST SWAP4 POP PUSH2 0x4052 DUP2 DUP6 PUSH1 0x20 DUP7 ADD PUSH2 0x3C67 JUMP JUMPDEST PUSH2 0x405B DUP2 PUSH2 0x3C91 JUMP JUMPDEST DUP5 ADD SWAP2 POP POP SWAP3 SWAP2 POP POP JUMP JUMPDEST PUSH1 0x0 PUSH2 0x160 DUP4 ADD PUSH1 0x0 DUP4 ADD MLOAD DUP5 DUP3 SUB PUSH1 0x0 DUP7 ADD MSTORE PUSH2 0x4084 DUP3 DUP3 PUSH2 0x3D64 JUMP JUMPDEST SWAP2 POP POP PUSH1 0x20 DUP4 ADD MLOAD DUP5 DUP3 SUB PUSH1 0x20 DUP7 ADD MSTORE PUSH2 0x409E DUP3 DUP3 PUSH2 0x3D64 JUMP JUMPDEST SWAP2 POP POP PUSH1 0x40 DUP4 ADD MLOAD DUP5 DUP3 SUB PUSH1 0x40 DUP7 ADD MSTORE PUSH2 0x40B8 DUP3 DUP3 PUSH2 0x3D64 JUMP JUMPDEST SWAP2 POP POP PUSH1 0x60 DUP4 ADD MLOAD DUP5 DUP3 SUB PUSH1 0x60 DUP7 ADD MSTORE PUSH2 0x40D2 DUP3 DUP3 PUSH2 0x3D64 JUMP JUMPDEST SWAP2 POP POP PUSH1 0x80 DUP4 ADD MLOAD DUP5 DUP3 SUB PUSH1 0x80 DUP7 ADD MSTORE PUSH2 0x40EC DUP3 DUP3 PUSH2 0x3E48 JUMP JUMPDEST SWAP2 POP POP PUSH1 0xA0 DUP4 ADD MLOAD DUP5 DUP3 SUB PUSH1 0xA0 DUP7 ADD MSTORE PUSH2 0x4106 DUP3 DUP3 PUSH2 0x3F68 JUMP JUMPDEST SWAP2 POP POP PUSH1 0xC0 DUP4 ADD MLOAD PUSH2 0x411B PUSH1 0xC0 DUP7 ADD DUP3 PUSH2 0x3FE9 JUMP JUMPDEST POP PUSH1 0xE0 DUP4 ADD MLOAD PUSH2 0x412E PUSH1 0xE0 DUP7 ADD DUP3 PUSH2 0x4002 JUMP JUMPDEST POP PUSH2 0x100 DUP4 ADD MLOAD PUSH2 0x4143 PUSH2 0x100 DUP7 ADD DUP3 PUSH2 0x4002 JUMP JUMPDEST POP PUSH2 0x120 DUP4 ADD MLOAD DUP5 DUP3 SUB PUSH2 0x120 DUP7 ADD MSTORE PUSH2 0x415D DUP3 DUP3 PUSH2 0x3D64 JUMP JUMPDEST SWAP2 POP POP PUSH2 0x140 DUP4 ADD MLOAD DUP5 DUP3 SUB PUSH2 0x140 DUP7 ADD MSTORE PUSH2 0x4179 DUP3 DUP3 PUSH2 0x402D JUMP JUMPDEST SWAP2 POP POP DUP1 SWAP2 POP POP SWAP3 SWAP2 POP POP JUMP JUMPDEST PUSH1 0x0 PUSH2 0x4192 DUP4 DUP4 PUSH2 0x4066 JUMP JUMPDEST SWAP1 POP SWAP3 SWAP2 POP POP JUMP JUMPDEST PUSH1 0x0 PUSH1 0x20 DUP3 ADD SWAP1 POP SWAP2 SWAP1 POP JUMP JUMPDEST PUSH1 0x0 PUSH2 0x41B2 DUP3 PUSH2 0x3D27 JUMP JUMPDEST PUSH2 0x41BC DUP2 DUP6 PUSH2 0x3D32 JUMP JUMPDEST SWAP4 POP DUP4 PUSH1 0x20 DUP3 MUL DUP6 ADD PUSH2 0x41CE DUP6 PUSH2 0x3D43 JUMP JUMPDEST DUP1 PUSH1 0x0 JUMPDEST DUP6 DUP2 LT ISZERO PUSH2 0x420A JUMPI DUP5 DUP5 SUB DUP10 MSTORE DUP2 MLOAD PUSH2 0x41EB DUP6 DUP3 PUSH2 0x4186 JUMP JUMPDEST SWAP5 POP PUSH2 0x41F6 DUP4 PUSH2 0x419A JUMP JUMPDEST SWAP3 POP PUSH1 0x20 DUP11 ADD SWAP10 POP POP PUSH1 0x1 DUP2 ADD SWAP1 POP PUSH2 0x41D2 JUMP JUMPDEST POP DUP3 SWAP8 POP DUP8 SWAP6 POP POP POP POP POP POP SWAP3 SWAP2 POP POP JUMP JUMPDEST PUSH1 0x0 PUSH1 0x20 DUP3 ADD SWAP1 POP DUP2 DUP2 SUB PUSH1 0x0 DUP4 ADD MSTORE PUSH2 0x4236 DUP2 DUP5 PUSH2 0x41A7 JUMP JUMPDEST SWAP1 POP SWAP3 SWAP2 POP POP JUMP JUMPDEST PUSH1 0x0 DUP1 REVERT JUMPDEST PUSH1 0x0 DUP1 REVERT JUMPDEST PUSH32 0x4E487B7100000000000000000000000000000000000000000000000000000000 PUSH1 0x0 MSTORE PUSH1 0x41 PUSH1 0x4 MSTORE PUSH1 0x24 PUSH1 0x0 REVERT JUMPDEST PUSH2 0x4280 DUP3 PUSH2 0x3C91 JUMP JUMPDEST DUP2 ADD DUP2 DUP2 LT PUSH8 0xFFFFFFFFFFFFFFFF DUP3 GT OR ISZERO PUSH2 0x429F JUMPI PUSH2 0x429E PUSH2 0x4248 JUMP JUMPDEST JUMPDEST DUP1 PUSH1 0x40 MSTORE POP POP POP JUMP JUMPDEST PUSH1 0x0 PUSH2 0x42B2 PUSH2 0x3BD4 JUMP JUMPDEST SWAP1 POP PUSH2 0x42BE DUP3 DUP3 PUSH2 0x4277 JUMP JUMPDEST SWAP2 SWAP1 POP JUMP JUMPDEST PUSH1 0x0 PUSH8 0xFFFFFFFFFFFFFFFF DUP3 GT ISZERO PUSH2 0x42DE JUMPI PUSH2 0x42DD PUSH2 0x4248 JUMP JUMPDEST JUMPDEST PUSH2 0x42E7 DUP3 PUSH2 0x3C91 JUMP JUMPDEST SWAP1 POP PUSH1 0x20 DUP2 ADD SWAP1 POP SWAP2 SWAP1 POP JUMP JUMPDEST DUP3 DUP2 DUP4 CALLDATACOPY PUSH1 0x0 DUP4 DUP4 ADD MSTORE POP POP POP JUMP JUMPDEST PUSH1 0x0 PUSH2 0x4316 PUSH2 0x4311 DUP5 PUSH2 0x42C3 JUMP JUMPDEST PUSH2 0x42A8 JUMP JUMPDEST SWAP1 POP DUP3 DUP2 MSTORE PUSH1 0x20 DUP2 ADD DUP5 DUP5 DUP5 ADD GT ISZERO PUSH2 0x4332 JUMPI PUSH2 0x4331 PUSH2 0x4243 JUMP JUMPDEST JUMPDEST PUSH2 0x433D DUP5 DUP3 DUP6 PUSH2 0x42F4 JUMP JUMPDEST POP SWAP4 SWAP3 POP POP POP JUMP JUMPDEST PUSH1 0x0 DUP3 PUSH1 0x1F DUP4 ADD SLT PUSH2 0x435A JUMPI PUSH2 0x4359 PUSH2 0x423E JUMP JUMPDEST JUMPDEST DUP2 CALLDATALOAD PUSH2 0x436A DUP5 DUP3 PUSH1 0x20 DUP7 ADD PUSH2 0x4303 JUMP JUMPDEST SWAP2 POP POP SWAP3 SWAP2 POP POP JUMP JUMPDEST PUSH1 0x0 PUSH8 0xFFFFFFFFFFFFFFFF DUP3 GT ISZERO PUSH2 0x438E JUMPI PUSH2 0x438D PUSH2 0x4248 JUMP JUMPDEST JUMPDEST PUSH1 0x20 DUP3 MUL SWAP1 POP PUSH1 0x20 DUP2 ADD SWAP1 POP SWAP2 SWAP1 POP JUMP JUMPDEST PUSH1 0x0 DUP1 REVERT JUMPDEST PUSH1 0x0 PUSH8 0xFFFFFFFFFFFFFFFF DUP3 GT ISZERO PUSH2 0x43BF JUMPI PUSH2 0x43BE PUSH2 0x4248 JUMP JUMPDEST JUMPDEST PUSH1 0x20 DUP3 MUL SWAP1 POP PUSH1 0x20 DUP2 ADD SWAP1 POP SWAP2 SWAP1 POP JUMP JUMPDEST PUSH1 0x0 PUSH2 0x43E3 PUSH2 0x43DE DUP5 PUSH2 0x43A4 JUMP JUMPDEST PUSH2 0x42A8 JUMP JUMPDEST SWAP1 POP DUP1 DUP4 DUP3 MSTORE PUSH1 0x20 DUP3 ADD SWAP1 POP PUSH1 0x20 DUP5 MUL DUP4 ADD DUP6 DUP2 GT ISZERO PUSH2 0x4406 JUMPI PUSH2 0x4405 PUSH2 0x439F JUMP JUMPDEST JUMPDEST DUP4 JUMPDEST DUP2 DUP2 LT ISZERO PUSH2 0x444D JUMPI DUP1 CALLDATALOAD PUSH8 0xFFFFFFFFFFFFFFFF DUP2 GT ISZERO PUSH2 0x442B JUMPI PUSH2 0x442A PUSH2 0x423E JUMP JUMPDEST JUMPDEST DUP1 DUP7 ADD PUSH2 0x4438 DUP10 DUP3 PUSH2 0x4345 JUMP JUMPDEST DUP6 MSTORE PUSH1 0x20 DUP6 ADD SWAP5 POP POP POP PUSH1 0x20 DUP2 ADD SWAP1 POP PUSH2 0x4408 JUMP JUMPDEST POP POP POP SWAP4 SWAP3 POP POP POP JUMP JUMPDEST PUSH1 0x0 DUP3 PUSH1 0x1F DUP4 ADD SLT PUSH2 0x446C JUMPI PUSH2 0x446B PUSH2 0x423E JUMP JUMPDEST JUMPDEST DUP2 CALLDATALOAD PUSH2 0x447C DUP5 DUP3 PUSH1 0x20 DUP7 ADD PUSH2 0x43D0 JUMP JUMPDEST SWAP2 POP POP SWAP3 SWAP2 POP POP JUMP JUMPDEST PUSH1 0x0 PUSH2 0x4498 PUSH2 0x4493 DUP5 PUSH2 0x4373 JUMP JUMPDEST PUSH2 0x42A8 JUMP JUMPDEST SWAP1 POP DUP1 DUP4 DUP3 MSTORE PUSH1 0x20 DUP3 ADD SWAP1 POP PUSH1 0x20 DUP5 MUL DUP4 ADD DUP6 DUP2 GT ISZERO PUSH2 0x44BB JUMPI PUSH2 0x44BA PUSH2 0x439F JUMP JUMPDEST JUMPDEST DUP4 JUMPDEST DUP2 DUP2 LT ISZERO PUSH2 0x4502 JUMPI DUP1 CALLDATALOAD PUSH8 0xFFFFFFFFFFFFFFFF DUP2 GT ISZERO PUSH2 0x44E0 JUMPI PUSH2 0x44DF PUSH2 0x423E JUMP JUMPDEST JUMPDEST DUP1 DUP7 ADD PUSH2 0x44ED DUP10 DUP3 PUSH2 0x4457 JUMP JUMPDEST DUP6 MSTORE PUSH1 0x20 DUP6 ADD SWAP5 POP POP POP PUSH1 0x20 DUP2 ADD SWAP1 POP PUSH2 0x44BD JUMP JUMPDEST POP POP POP SWAP4 SWAP3 POP POP POP JUMP JUMPDEST PUSH1 0x0 DUP3 PUSH1 0x1F DUP4 ADD SLT PUSH2 0x4521 JUMPI PUSH2 0x4520 PUSH2 0x423E JUMP JUMPDEST JUMPDEST DUP2 CALLDATALOAD PUSH2 0x4531 DUP5 DUP3 PUSH1 0x20 DUP7 ADD PUSH2 0x4485 JUMP JUMPDEST SWAP2 POP POP SWAP3 SWAP2 POP POP JUMP JUMPDEST PUSH1 0x0 DUP1 PUSH1 0x0 DUP1 PUSH1 0x0 DUP1 PUSH1 0x0 DUP1 PUSH2 0x100 DUP10 DUP12 SUB SLT ISZERO PUSH2 0x455B JUMPI PUSH2 0x455A PUSH2 0x3BDE JUMP JUMPDEST JUMPDEST PUSH1 0x0 DUP10 ADD CALLDATALOAD PUSH8 0xFFFFFFFFFFFFFFFF DUP2 GT ISZERO PUSH2 0x4579 JUMPI PUSH2 0x4578 PUSH2 0x3BE3 JUMP JUMPDEST JUMPDEST PUSH2 0x4585 DUP12 DUP3 DUP13 ADD PUSH2 0x4345 JUMP JUMPDEST SWAP9 POP POP PUSH1 0x20 DUP10 ADD CALLDATALOAD PUSH8 0xFFFFFFFFFFFFFFFF DUP2 GT ISZERO PUSH2 0x45A6 JUMPI PUSH2 0x45A5 PUSH2 0x3BE3 JUMP JUMPDEST JUMPDEST PUSH2 0x45B2 DUP12 DUP3 DUP13 ADD PUSH2 0x4345 JUMP JUMPDEST SWAP8 POP POP PUSH1 0x40 DUP10 ADD CALLDATALOAD PUSH8 0xFFFFFFFFFFFFFFFF DUP2 GT ISZERO PUSH2 0x45D3 JUMPI PUSH2 0x45D2 PUSH2 0x3BE3 JUMP JUMPDEST JUMPDEST PUSH2 0x45DF DUP12 DUP3 DUP13 ADD PUSH2 0x4345 JUMP JUMPDEST SWAP7 POP POP PUSH1 0x60 DUP10 ADD CALLDATALOAD PUSH8 0xFFFFFFFFFFFFFFFF DUP2 GT ISZERO PUSH2 0x4600 JUMPI PUSH2 0x45FF PUSH2 0x3BE3 JUMP JUMPDEST JUMPDEST PUSH2 0x460C DUP12 DUP3 DUP13 ADD PUSH2 0x4345 JUMP JUMPDEST SWAP6 POP POP PUSH1 0x80 DUP10 ADD CALLDATALOAD PUSH8 0xFFFFFFFFFFFFFFFF DUP2 GT ISZERO PUSH2 0x462D JUMPI PUSH2 0x462C PUSH2 0x3BE3 JUMP JUMPDEST JUMPDEST PUSH2 0x4639 DUP12 DUP3 DUP13 ADD PUSH2 0x450C JUMP JUMPDEST SWAP5 POP POP PUSH1 0xA0 DUP10 ADD CALLDATALOAD PUSH8 0xFFFFFFFFFFFFFFFF DUP2 GT ISZERO PUSH2 0x465A JUMPI PUSH2 0x4659 PUSH2 0x3BE3 JUMP JUMPDEST JUMPDEST PUSH2 0x4666 DUP12 DUP3 DUP13 ADD PUSH2 0x450C JUMP JUMPDEST SWAP4 POP POP PUSH1 0xC0 DUP10 ADD CALLDATALOAD PUSH8 0xFFFFFFFFFFFFFFFF DUP2 GT ISZERO PUSH2 0x4687 JUMPI PUSH2 0x4686 PUSH2 0x3BE3 JUMP JUMPDEST JUMPDEST PUSH2 0x4693 DUP12 DUP3 DUP13 ADD PUSH2 0x450C JUMP JUMPDEST SWAP3 POP POP PUSH1 0xE0 DUP10 ADD CALLDATALOAD PUSH8 0xFFFFFFFFFFFFFFFF DUP2 GT ISZERO PUSH2 0x46B4 JUMPI PUSH2 0x46B3 PUSH2 0x3BE3 JUMP JUMPDEST JUMPDEST PUSH2 0x46C0 DUP12 DUP3 DUP13 ADD PUSH2 0x450C JUMP JUMPDEST SWAP2 POP POP SWAP3 SWAP6 SWAP9 POP SWAP3 SWAP6 SWAP9 SWAP1 SWAP4 SWAP7 POP JUMP JUMPDEST PUSH1 0x0 PUSH1 0x20 DUP3 DUP5 SUB SLT ISZERO PUSH2 0x46E6 JUMPI PUSH2 0x46E5 PUSH2 0x3BDE JUMP JUMPDEST JUMPDEST PUSH1 0x0 DUP3 ADD CALLDATALOAD PUSH8 0xFFFFFFFFFFFFFFFF DUP2 GT ISZERO PUSH2 0x4704 JUMPI PUSH2 0x4703 PUSH2 0x3BE3 JUMP JUMPDEST JUMPDEST PUSH2 0x4710 DUP5 DUP3 DUP6 ADD PUSH2 0x4345 JUMP JUMPDEST SWAP2 POP POP SWAP3 SWAP2 POP POP JUMP JUMPDEST PUSH2 0x4722 DUP2 PUSH2 0x3FDD JUMP JUMPDEST DUP3 MSTORE POP POP JUMP JUMPDEST PUSH1 0x0 PUSH1 0x40 DUP3 ADD SWAP1 POP PUSH2 0x473D PUSH1 0x0 DUP4 ADD DUP6 PUSH2 0x4719 JUMP JUMPDEST DUP2 DUP2 SUB PUSH1 0x20 DUP4 ADD MSTORE PUSH2 0x474F DUP2 DUP5 PUSH2 0x3CA2 JUMP JUMPDEST SWAP1 POP SWAP4 SWAP3 POP POP POP JUMP JUMPDEST PUSH2 0x4761 DUP2 PUSH2 0x3FF8 JUMP JUMPDEST DUP3 MSTORE POP POP JUMP JUMPDEST PUSH1 0x0 DUP3 DUP3 MSTORE PUSH1 0x20 DUP3 ADD SWAP1 POP SWAP3 SWAP2 POP POP JUMP JUMPDEST PUSH1 0x0 PUSH2 0x4783 DUP3 PUSH2 0x4011 JUMP JUMPDEST PUSH2 0x478D DUP2 DUP6 PUSH2 0x4767 JUMP JUMPDEST SWAP4 POP PUSH2 0x479D DUP2 DUP6 PUSH1 0x20 DUP7 ADD PUSH2 0x3C67 JUMP JUMPDEST PUSH2 0x47A6 DUP2 PUSH2 0x3C91 JUMP JUMPDEST DUP5 ADD SWAP2 POP POP SWAP3 SWAP2 POP POP JUMP JUMPDEST PUSH1 0x0 PUSH2 0x120 DUP3 ADD SWAP1 POP DUP2 DUP2 SUB PUSH1 0x0 DUP4 ADD MSTORE PUSH2 0x47CC DUP2 DUP13 PUSH2 0x3CA2 JUMP JUMPDEST SWAP1 POP DUP2 DUP2 SUB PUSH1 0x20 DUP4 ADD MSTORE PUSH2 0x47E0 DUP2 DUP12 PUSH2 0x3CA2 JUMP JUMPDEST SWAP1 POP DUP2 DUP2 SUB PUSH1 0x40 DUP4 ADD MSTORE PUSH2 0x47F4 DUP2 DUP11 PUSH2 0x3CA2 JUMP JUMPDEST SWAP1 POP DUP2 DUP2 SUB PUSH1 0x60 DUP4 ADD MSTORE PUSH2 0x4808 DUP2 DUP10 PUSH2 0x3CA2 JUMP JUMPDEST SWAP1 POP PUSH2 0x4817 PUSH1 0x80 DUP4 ADD DUP9 PUSH2 0x4719 JUMP JUMPDEST PUSH2 0x4824 PUSH1 0xA0 DUP4 ADD DUP8 PUSH2 0x4758 JUMP JUMPDEST PUSH2 0x4831 PUSH1 0xC0 DUP4 ADD DUP7 PUSH2 0x4758 JUMP JUMPDEST DUP2 DUP2 SUB PUSH1 0xE0 DUP4 ADD MSTORE PUSH2 0x4843 DUP2 DUP6 PUSH2 0x3CA2 JUMP JUMPDEST SWAP1 POP DUP2 DUP2 SUB PUSH2 0x100 DUP4 ADD MSTORE PUSH2 0x4858 DUP2 DUP5 PUSH2 0x4778 JUMP JUMPDEST SWAP1 POP SWAP11 SWAP10 POP POP POP POP POP POP POP POP POP POP JUMP JUMPDEST PUSH1 0x0 DUP3 DUP3 MSTORE PUSH1 0x20 DUP3 ADD SWAP1 POP SWAP3 SWAP2 POP POP JUMP JUMPDEST PUSH1 0x0 PUSH2 0x4884 DUP3 PUSH2 0x3D9D JUMP JUMPDEST PUSH2 0x488E DUP2 DUP6 PUSH2 0x4868 JUMP JUMPDEST SWAP4 POP DUP4 PUSH1 0x20 DUP3 MUL DUP6 ADD PUSH2 0x48A0 DUP6 PUSH2 0x3DB9 JUMP JUMPDEST DUP1 PUSH1 0x0 JUMPDEST DUP6 DUP2 LT ISZERO PUSH2 0x48DC JUMPI DUP5 DUP5 SUB DUP10 MSTORE DUP2 MLOAD PUSH2 0x48BD DUP6 DUP3 PUSH2 0x3E27 JUMP JUMPDEST SWAP5 POP PUSH2 0x48C8 DUP4 PUSH2 0x3E3B JUMP JUMPDEST SWAP3 POP PUSH1 0x20 DUP11 ADD SWAP10 POP POP PUSH1 0x1 DUP2 ADD SWAP1 POP PUSH2 0x48A4 JUMP JUMPDEST POP DUP3 SWAP8 POP DUP8 SWAP6 POP POP POP POP POP POP SWAP3 SWAP2 POP POP JUMP JUMPDEST PUSH1 0x0 DUP3 DUP3 MSTORE PUSH1 0x20 DUP3 ADD SWAP1 POP SWAP3 SWAP2 POP POP JUMP JUMPDEST PUSH1 0x0 PUSH2 0x490A DUP3 PUSH2 0x3EBD JUMP JUMPDEST PUSH2 0x4914 DUP2 DUP6 PUSH2 0x48EE JUMP JUMPDEST SWAP4 POP DUP4 PUSH1 0x20 DUP3 MUL DUP6 ADD PUSH2 0x4926 DUP6 PUSH2 0x3ED9 JUMP JUMPDEST DUP1 PUSH1 0x0 JUMPDEST DUP6 DUP2 LT ISZERO PUSH2 0x4962 JUMPI DUP5 DUP5 SUB DUP10 MSTORE DUP2 MLOAD PUSH2 0x4943 DUP6 DUP3 PUSH2 0x3F47 JUMP JUMPDEST SWAP5 POP PUSH2 0x494E DUP4 PUSH2 0x3F5B JUMP JUMPDEST SWAP3 POP PUSH1 0x20 DUP11 ADD SWAP10 POP POP PUSH1 0x1 DUP2 ADD SWAP1 POP PUSH2 0x492A JUMP JUMPDEST POP DUP3 SWAP8 POP DUP8 SWAP6 POP POP POP POP POP POP SWAP3 SWAP2 POP POP JUMP JUMPDEST PUSH1 0x0 PUSH1 0x40 DUP3 ADD SWAP1 POP DUP2 DUP2 SUB PUSH1 0x0 DUP4 ADD MSTORE PUSH2 0x498E DUP2 DUP6 PUSH2 0x4879 JUMP JUMPDEST SWAP1 POP DUP2 DUP2 SUB PUSH1 0x20 DUP4 ADD MSTORE PUSH2 0x49A2 DUP2 DUP5 PUSH2 0x48FF JUMP JUMPDEST SWAP1 POP SWAP4 SWAP3 POP POP POP JUMP JUMPDEST PUSH1 0x0 DUP1 PUSH1 0x0 PUSH1 0x60 DUP5 DUP7 SUB SLT ISZERO PUSH2 0x49C4 JUMPI PUSH2 0x49C3 PUSH2 0x3BDE JUMP JUMPDEST JUMPDEST PUSH1 0x0 DUP5 ADD CALLDATALOAD PUSH8 0xFFFFFFFFFFFFFFFF DUP2 GT ISZERO PUSH2 0x49E2 JUMPI PUSH2 0x49E1 PUSH2 0x3BE3 JUMP JUMPDEST JUMPDEST PUSH2 0x49EE DUP7 DUP3 DUP8 ADD PUSH2 0x4345 JUMP JUMPDEST SWAP4 POP POP PUSH1 0x20 DUP5 ADD CALLDATALOAD PUSH8 0xFFFFFFFFFFFFFFFF DUP2 GT ISZERO PUSH2 0x4A0F JUMPI PUSH2 0x4A0E PUSH2 0x3BE3 JUMP JUMPDEST JUMPDEST PUSH2 0x4A1B DUP7 DUP3 DUP8 ADD PUSH2 0x450C JUMP JUMPDEST SWAP3 POP POP PUSH1 0x40 DUP5 ADD CALLDATALOAD PUSH8 0xFFFFFFFFFFFFFFFF DUP2 GT ISZERO PUSH2 0x4A3C JUMPI PUSH2 0x4A3B PUSH2 0x3BE3 JUMP JUMPDEST JUMPDEST PUSH2 0x4A48 DUP7 DUP3 DUP8 ADD PUSH2 0x450C JUMP JUMPDEST SWAP2 POP POP SWAP3 POP SWAP3 POP SWAP3 JUMP JUMPDEST PUSH1 0x0 DUP2 MLOAD SWAP1 POP SWAP2 SWAP1 POP JUMP JUMPDEST PUSH1 0x0 DUP3 DUP3 MSTORE PUSH1 0x20 DUP3 ADD SWAP1 POP SWAP3 SWAP2 POP POP JUMP JUMPDEST PUSH1 0x0 DUP2 SWAP1 POP PUSH1 0x20 DUP3 ADD SWAP1 POP SWAP2 SWAP1 POP JUMP JUMPDEST PUSH1 0x0 PUSH1 0x80 DUP4 ADD PUSH1 0x0 DUP4 ADD MLOAD PUSH2 0x4A96 PUSH1 0x0 DUP7 ADD DUP3 PUSH2 0x3FE9 JUMP JUMPDEST POP PUSH1 0x20 DUP4 ADD MLOAD DUP5 DUP3 SUB PUSH1 0x20 DUP7 ADD MSTORE PUSH2 0x4AAE DUP3 DUP3 PUSH2 0x3D64 JUMP JUMPDEST SWAP2 POP POP PUSH1 0x40 DUP4 ADD MLOAD DUP5 DUP3 SUB PUSH1 0x40 DUP7 ADD MSTORE PUSH2 0x4AC8 DUP3 DUP3 PUSH2 0x3E48 JUMP JUMPDEST SWAP2 POP POP PUSH1 0x60 DUP4 ADD MLOAD DUP5 DUP3 SUB PUSH1 0x60 DUP7 ADD MSTORE PUSH2 0x4AE2 DUP3 DUP3 PUSH2 0x3F68 JUMP JUMPDEST SWAP2 POP POP DUP1 SWAP2 POP POP SWAP3 SWAP2 POP POP JUMP JUMPDEST PUSH1 0x0 PUSH2 0x4AFB DUP4 DUP4 PUSH2 0x4A7E JUMP JUMPDEST SWAP1 POP SWAP3 SWAP2 POP POP JUMP JUMPDEST PUSH1 0x0 PUSH1 0x20 DUP3 ADD SWAP1 POP SWAP2 SWAP1 POP JUMP JUMPDEST PUSH1 0x0 PUSH2 0x4B1B DUP3 PUSH2 0x4A52 JUMP JUMPDEST PUSH2 0x4B25 DUP2 DUP6 PUSH2 0x4A5D JUMP JUMPDEST SWAP4 POP DUP4 PUSH1 0x20 DUP3 MUL DUP6 ADD PUSH2 0x4B37 DUP6 PUSH2 0x4A6E JUMP JUMPDEST DUP1 PUSH1 0x0 JUMPDEST DUP6 DUP2 LT ISZERO PUSH2 0x4B73 JUMPI DUP5 DUP5 SUB DUP10 MSTORE DUP2 MLOAD PUSH2 0x4B54 DUP6 DUP3 PUSH2 0x4AEF JUMP JUMPDEST SWAP5 POP PUSH2 0x4B5F DUP4 PUSH2 0x4B03 JUMP JUMPDEST SWAP3 POP PUSH1 0x20 DUP11 ADD SWAP10 POP POP PUSH1 0x1 DUP2 ADD SWAP1 POP PUSH2 0x4B3B JUMP JUMPDEST POP DUP3 SWAP8 POP DUP8 SWAP6 POP POP POP POP POP POP SWAP3 SWAP2 POP POP JUMP JUMPDEST PUSH1 0x0 PUSH1 0x20 DUP3 ADD SWAP1 POP DUP2 DUP2 SUB PUSH1 0x0 DUP4 ADD MSTORE PUSH2 0x4B9F DUP2 DUP5 PUSH2 0x4B10 JUMP JUMPDEST SWAP1 POP SWAP3 SWAP2 POP POP JUMP JUMPDEST PUSH1 0x0 PUSH8 0xFFFFFFFFFFFFFFFF DUP3 GT ISZERO PUSH2 0x4BC2 JUMPI PUSH2 0x4BC1 PUSH2 0x4248 JUMP JUMPDEST JUMPDEST PUSH2 0x4BCB DUP3 PUSH2 0x3C91 JUMP JUMPDEST SWAP1 POP PUSH1 0x20 DUP2 ADD SWAP1 POP SWAP2 SWAP1 POP JUMP JUMPDEST PUSH1 0x0 PUSH2 0x4BEB PUSH2 0x4BE6 DUP5 PUSH2 0x4BA7 JUMP JUMPDEST PUSH2 0x42A8 JUMP JUMPDEST SWAP1 POP DUP3 DUP2 MSTORE PUSH1 0x20 DUP2 ADD DUP5 DUP5 DUP5 ADD GT ISZERO PUSH2 0x4C07 JUMPI PUSH2 0x4C06 PUSH2 0x4243 JUMP JUMPDEST JUMPDEST PUSH2 0x4C12 DUP5 DUP3 DUP6 PUSH2 0x42F4 JUMP JUMPDEST POP SWAP4 SWAP3 POP POP POP JUMP JUMPDEST PUSH1 0x0 DUP3 PUSH1 0x1F DUP4 ADD SLT PUSH2 0x4C2F JUMPI PUSH2 0x4C2E PUSH2 0x423E JUMP JUMPDEST JUMPDEST DUP2 CALLDATALOAD PUSH2 0x4C3F DUP5 DUP3 PUSH1 0x20 DUP7 ADD PUSH2 0x4BD8 JUMP JUMPDEST SWAP2 POP POP SWAP3 SWAP2 POP POP JUMP JUMPDEST PUSH1 0x0 DUP1 PUSH1 0x0 DUP1 PUSH1 0x0 PUSH1 0xA0 DUP7 DUP9 SUB SLT ISZERO PUSH2 0x4C64 JUMPI PUSH2 0x4C63 PUSH2 0x3BDE JUMP JUMPDEST JUMPDEST PUSH1 0x0 DUP7 ADD CALLDATALOAD PUSH8 0xFFFFFFFFFFFFFFFF DUP2 GT ISZERO PUSH2 0x4C82 JUMPI PUSH2 0x4C81 PUSH2 0x3BE3 JUMP JUMPDEST JUMPDEST PUSH2 0x4C8E DUP9 DUP3 DUP10 ADD PUSH2 0x4345 JUMP JUMPDEST SWAP6 POP POP PUSH1 0x20 DUP7 ADD CALLDATALOAD PUSH8 0xFFFFFFFFFFFFFFFF DUP2 GT ISZERO PUSH2 0x4CAF JUMPI PUSH2 0x4CAE PUSH2 0x3BE3 JUMP JUMPDEST JUMPDEST PUSH2 0x4CBB DUP9 DUP3 DUP10 ADD PUSH2 0x4345 JUMP JUMPDEST SWAP5 POP POP PUSH1 0x40 DUP7 ADD CALLDATALOAD PUSH8 0xFFFFFFFFFFFFFFFF DUP2 GT ISZERO PUSH2 0x4CDC JUMPI PUSH2 0x4CDB PUSH2 0x3BE3 JUMP JUMPDEST JUMPDEST PUSH2 0x4CE8 DUP9 DUP3 DUP10 ADD PUSH2 0x4345 JUMP JUMPDEST SWAP4 POP POP PUSH1 0x60 DUP7 ADD CALLDATALOAD PUSH8 0xFFFFFFFFFFFFFFFF DUP2 GT ISZERO PUSH2 0x4D09 JUMPI PUSH2 0x4D08 PUSH2 0x3BE3 JUMP JUMPDEST JUMPDEST PUSH2 0x4D15 DUP9 DUP3 DUP10 ADD PUSH2 0x4345 JUMP JUMPDEST SWAP3 POP POP PUSH1 0x80 DUP7 ADD CALLDATALOAD PUSH8 0xFFFFFFFFFFFFFFFF DUP2 GT ISZERO PUSH2 0x4D36 JUMPI PUSH2 0x4D35 PUSH2 0x3BE3 JUMP JUMPDEST JUMPDEST PUSH2 0x4D42 DUP9 DUP3 DUP10 ADD PUSH2 0x4C1A JUMP JUMPDEST SWAP2 POP POP SWAP3 SWAP6 POP SWAP3 SWAP6 SWAP1 SWAP4 POP JUMP JUMPDEST PUSH2 0x4D58 DUP2 PUSH2 0x3FF8 JUMP JUMPDEST DUP2 EQ PUSH2 0x4D63 JUMPI PUSH1 0x0 DUP1 REVERT JUMPDEST POP JUMP JUMPDEST PUSH1 0x0 DUP2 CALLDATALOAD SWAP1 POP PUSH2 0x4D75 DUP2 PUSH2 0x4D4F JUMP JUMPDEST SWAP3 SWAP2 POP POP JUMP JUMPDEST PUSH1 0x0 DUP1 PUSH1 0x0 PUSH1 0x60 DUP5 DUP7 SUB SLT ISZERO PUSH2 0x4D94 JUMPI PUSH2 0x4D93 PUSH2 0x3BDE JUMP JUMPDEST JUMPDEST PUSH1 0x0 DUP5 ADD CALLDATALOAD PUSH8 0xFFFFFFFFFFFFFFFF DUP2 GT ISZERO PUSH2 0x4DB2 JUMPI PUSH2 0x4DB1 PUSH2 0x3BE3 JUMP JUMPDEST JUMPDEST PUSH2 0x4DBE DUP7 DUP3 DUP8 ADD PUSH2 0x4345 JUMP JUMPDEST SWAP4 POP POP PUSH1 0x20 PUSH2 0x4DCF DUP7 DUP3 DUP8 ADD PUSH2 0x4D66 JUMP JUMPDEST SWAP3 POP POP PUSH1 0x40 DUP5 ADD CALLDATALOAD PUSH8 0xFFFFFFFFFFFFFFFF DUP2 GT ISZERO PUSH2 0x4DF0 JUMPI PUSH2 0x4DEF PUSH2 0x3BE3 JUMP JUMPDEST JUMPDEST PUSH2 0x4DFC DUP7 DUP3 DUP8 ADD PUSH2 0x4345 JUMP JUMPDEST SWAP2 POP POP SWAP3 POP SWAP3 POP SWAP3 JUMP JUMPDEST PUSH2 0x4E0F DUP2 PUSH2 0x3FDD JUMP JUMPDEST DUP2 EQ PUSH2 0x4E1A JUMPI PUSH1 0x0 DUP1 REVERT JUMPDEST POP JUMP JUMPDEST PUSH1 0x0 DUP2 CALLDATALOAD SWAP1 POP PUSH2 0x4E2C DUP2 PUSH2 0x4E06 JUMP JUMPDEST SWAP3 SWAP2 POP POP JUMP JUMPDEST PUSH1 0x0 DUP1 PUSH1 0x0 PUSH1 0x60 DUP5 DUP7 SUB SLT ISZERO PUSH2 0x4E4B JUMPI PUSH2 0x4E4A PUSH2 0x3BDE JUMP JUMPDEST JUMPDEST PUSH1 0x0 DUP5 ADD CALLDATALOAD PUSH8 0xFFFFFFFFFFFFFFFF DUP2 GT ISZERO PUSH2 0x4E69 JUMPI PUSH2 0x4E68 PUSH2 0x3BE3 JUMP JUMPDEST JUMPDEST PUSH2 0x4E75 DUP7 DUP3 DUP8 ADD PUSH2 0x4345 JUMP JUMPDEST SWAP4 POP POP PUSH1 0x20 DUP5 ADD CALLDATALOAD PUSH8 0xFFFFFFFFFFFFFFFF DUP2 GT ISZERO PUSH2 0x4E96 JUMPI PUSH2 0x4E95 PUSH2 0x3BE3 JUMP JUMPDEST JUMPDEST PUSH2 0x4EA2 DUP7 DUP3 DUP8 ADD PUSH2 0x4345 JUMP JUMPDEST SWAP3 POP POP PUSH1 0x40 PUSH2 0x4EB3 DUP7 DUP3 DUP8 ADD PUSH2 0x4E1D JUMP JUMPDEST SWAP2 POP POP SWAP3 POP SWAP3 POP SWAP3 JUMP JUMPDEST PUSH32 0x4E487B7100000000000000000000000000000000000000000000000000000000 PUSH1 0x0 MSTORE PUSH1 0x22 PUSH1 0x4 MSTORE PUSH1 0x24 PUSH1 0x0 REVERT JUMPDEST PUSH1 0x0 PUSH1 0x2 DUP3 DIV SWAP1 POP PUSH1 0x1 DUP3 AND DUP1 PUSH2 0x4F04 JUMPI PUSH1 0x7F DUP3 AND SWAP2 POP JUMPDEST PUSH1 0x20 DUP3 LT DUP2 SUB PUSH2 0x4F17 JUMPI PUSH2 0x4F16 PUSH2 0x4EBD JUMP JUMPDEST JUMPDEST POP SWAP2 SWAP1 POP JUMP JUMPDEST PUSH32 0x4E487B7100000000000000000000000000000000000000000000000000000000 PUSH1 0x0 MSTORE PUSH1 0x32 PUSH1 0x4 MSTORE PUSH1 0x24 PUSH1 0x0 REVERT JUMPDEST PUSH1 0x0 DUP2 SWAP1 POP SWAP3 SWAP2 POP POP JUMP JUMPDEST PUSH1 0x0 DUP2 SWAP1 POP DUP2 PUSH1 0x0 MSTORE PUSH1 0x20 PUSH1 0x0 KECCAK256 SWAP1 POP SWAP2 SWAP1 POP JUMP JUMPDEST PUSH1 0x0 DUP2 SLOAD PUSH2 0x4F79 DUP2 PUSH2 0x4EEC JUMP JUMPDEST PUSH2 0x4F83 DUP2 DUP7 PUSH2 0x4F4C JUMP JUMPDEST SWAP5 POP PUSH1 0x1 DUP3 AND PUSH1 0x0 DUP2 EQ PUSH2 0x4F9E JUMPI PUSH1 0x1 DUP2 EQ PUSH2 0x4FB3 JUMPI PUSH2 0x4FE6 JUMP JUMPDEST PUSH1 0xFF NOT DUP4 AND DUP7 MSTORE DUP2 ISZERO ISZERO DUP3 MUL DUP7 ADD SWAP4 POP PUSH2 0x4FE6 JUMP JUMPDEST PUSH2 0x4FBC DUP6 PUSH2 0x4F57 JUMP JUMPDEST PUSH1 0x0 JUMPDEST DUP4 DUP2 LT ISZERO PUSH2 0x4FDE JUMPI DUP2 SLOAD DUP2 DUP10 ADD MSTORE PUSH1 0x1 DUP3 ADD SWAP2 POP PUSH1 0x20 DUP2 ADD SWAP1 POP PUSH2 0x4FBF JUMP JUMPDEST DUP4 DUP9 ADD SWAP6 POP POP POP JUMPDEST POP POP POP SWAP3 SWAP2 POP POP JUMP JUMPDEST PUSH1 0x0 PUSH2 0x4FFB DUP3 DUP5 PUSH2 0x4F6C JUMP JUMPDEST SWAP2 POP DUP2 SWAP1 POP SWAP3 SWAP2 POP POP JUMP JUMPDEST PUSH32 0x4E487B7100000000000000000000000000000000000000000000000000000000 PUSH1 0x0 MSTORE PUSH1 0x11 PUSH1 0x4 MSTORE PUSH1 0x24 PUSH1 0x0 REVERT JUMPDEST PUSH1 0x0 PUSH2 0x5040 DUP3 PUSH2 0x3BE8 JUMP JUMPDEST SWAP2 POP PUSH32 0xFFFFFFFFFFFFFFFFFFFFFFFFFFFFFFFFFFFFFFFFFFFFFFFFFFFFFFFFFFFFFFFF DUP3 SUB PUSH2 0x5072 JUMPI PUSH2 0x5071 PUSH2 0x5006 JUMP JUMPDEST JUMPDEST PUSH1 0x1 DUP3 ADD SWAP1 POP SWAP2 SWAP1 POP JUMP JUMPDEST PUSH1 0x0 PUSH2 0x5088 DUP3 PUSH2 0x3C4B JUMP JUMPDEST PUSH2 0x5092 DUP2 DUP6 PUSH2 0x4F4C JUMP JUMPDEST SWAP4 POP PUSH2 0x50A2 DUP2 DUP6 PUSH1 0x20 DUP7 ADD PUSH2 0x3C67 JUMP JUMPDEST DUP1 DUP5 ADD SWAP2 POP POP SWAP3 SWAP2 POP POP JUMP JUMPDEST PUSH1 0x0 PUSH2 0x50BA DUP3 DUP5 PUSH2 0x507D JUMP JUMPDEST SWAP2 POP DUP2 SWAP1 POP SWAP3 SWAP2 POP POP JUMP JUMPDEST PUSH1 0x0 PUSH1 0x20 PUSH1 0x1F DUP4 ADD DIV SWAP1 POP SWAP2 SWAP1 POP JUMP JUMPDEST PUSH1 0x0 DUP3 DUP3 SHL SWAP1 POP SWAP3 SWAP2 POP POP JUMP JUMPDEST PUSH1 0x0 PUSH1 0x8 DUP4 MUL PUSH2 0x5112 PUSH32 0xFFFFFFFFFFFFFFFFFFFFFFFFFFFFFFFFFFFFFFFFFFFFFFFFFFFFFFFFFFFFFFFF DUP3 PUSH2 0x50D5 JUMP JUMPDEST PUSH2 0x511C DUP7 DUP4 PUSH2 0x50D5 JUMP JUMPDEST SWAP6 POP DUP1 NOT DUP5 AND SWAP4 POP DUP1 DUP7 AND DUP5 OR SWAP3 POP POP POP SWAP4 SWAP3 POP POP POP JUMP JUMPDEST PUSH1 0x0 DUP2 SWAP1 POP SWAP2 SWAP1 POP JUMP JUMPDEST PUSH1 0x0 PUSH2 0x5159 PUSH2 0x5154 PUSH2 0x514F DUP5 PUSH2 0x3BE8 JUMP JUMPDEST PUSH2 0x5134 JUMP JUMPDEST PUSH2 0x3BE8 JUMP JUMPDEST SWAP1 POP SWAP2 SWAP1 POP JUMP JUMPDEST PUSH1 0x0 DUP2 SWAP1 POP SWAP2 SWAP1 POP JUMP JUMPDEST PUSH2 0x5173 DUP4 PUSH2 0x513E JUMP JUMPDEST PUSH2 0x5187 PUSH2 0x517F DUP3 PUSH2 0x5160 JUMP JUMPDEST DUP5 DUP5 SLOAD PUSH2 0x50E2 JUMP JUMPDEST DUP3 SSTORE POP POP POP POP JUMP JUMPDEST PUSH1 0x0 SWAP1 JUMP JUMPDEST PUSH2 0x519C PUSH2 0x518F JUMP JUMPDEST PUSH2 0x51A7 DUP2 DUP5 DUP5 PUSH2 0x516A JUMP JUMPDEST POP POP POP JUMP JUMPDEST JUMPDEST DUP2 DUP2 LT ISZERO PUSH2 0x51CB JUMPI PUSH2 0x51C0 PUSH1 0x0 DUP3 PUSH2 0x5194 JUMP JUMPDEST PUSH1 0x1 DUP2 ADD SWAP1 POP PUSH2 0x51AD JUMP JUMPDEST POP POP JUMP JUMPDEST PUSH1 0x1F DUP3 GT ISZERO PUSH2 0x5210 JUMPI PUSH2 0x51E1 DUP2 PUSH2 0x4F57 JUMP JUMPDEST PUSH2 0x51EA DUP5 PUSH2 0x50C5 JUMP JUMPDEST DUP2 ADD PUSH1 0x20 DUP6 LT ISZERO PUSH2 0x51F9 JUMPI DUP2 SWAP1 POP JUMPDEST PUSH2 0x520D PUSH2 0x5205 DUP6 PUSH2 0x50C5 JUMP JUMPDEST DUP4 ADD DUP3 PUSH2 0x51AC JUMP JUMPDEST POP POP JUMPDEST POP POP POP JUMP JUMPDEST PUSH1 0x0 DUP3 DUP3 SHR SWAP1 POP SWAP3 SWAP2 POP POP JUMP JUMPDEST PUSH1 0x0 PUSH2 0x5233 PUSH1 0x0 NOT DUP5 PUSH1 0x8 MUL PUSH2 0x5215 JUMP JUMPDEST NOT DUP1 DUP4 AND SWAP2 POP POP SWAP3 SWAP2 POP POP JUMP JUMPDEST PUSH1 0x0 PUSH2 0x524C DUP4 DUP4 PUSH2 0x5222 JUMP JUMPDEST SWAP2 POP DUP3 PUSH1 0x2 MUL DUP3 OR SWAP1 POP SWAP3 SWAP2 POP POP JUMP JUMPDEST PUSH2 0x5265 DUP3 PUSH2 0x3C4B JUMP JUMPDEST PUSH8 0xFFFFFFFFFFFFFFFF DUP2 GT ISZERO PUSH2 0x527E JUMPI PUSH2 0x527D PUSH2 0x4248 JUMP JUMPDEST JUMPDEST PUSH2 0x5288 DUP3 SLOAD PUSH2 0x4EEC JUMP JUMPDEST PUSH2 0x5293 DUP3 DUP3 DUP6 PUSH2 0x51CF JUMP JUMPDEST PUSH1 0x0 PUSH1 0x20 SWAP1 POP PUSH1 0x1F DUP4 GT PUSH1 0x1 DUP2 EQ PUSH2 0x52C6 JUMPI PUSH1 0x0 DUP5 ISZERO PUSH2 0x52B4 JUMPI DUP3 DUP8 ADD MLOAD SWAP1 POP JUMPDEST PUSH2 0x52BE DUP6 DUP3 PUSH2 0x5240 JUMP JUMPDEST DUP7 SSTORE POP PUSH2 0x5326 JUMP JUMPDEST PUSH1 0x1F NOT DUP5 AND PUSH2 0x52D4 DUP7 PUSH2 0x4F57 JUMP JUMPDEST PUSH1 0x0 JUMPDEST DUP3 DUP2 LT ISZERO PUSH2 0x52FC JUMPI DUP5 DUP10 ADD MLOAD DUP3 SSTORE PUSH1 0x1 DUP3 ADD SWAP2 POP PUSH1 0x20 DUP6 ADD SWAP5 POP PUSH1 0x20 DUP2 ADD SWAP1 POP PUSH2 0x52D7 JUMP JUMPDEST DUP7 DUP4 LT ISZERO PUSH2 0x5319 JUMPI DUP5 DUP10 ADD MLOAD PUSH2 0x5315 PUSH1 0x1F DUP10 AND DUP3 PUSH2 0x5222 JUMP JUMPDEST DUP4 SSTORE POP JUMPDEST PUSH1 0x1 PUSH1 0x2 DUP9 MUL ADD DUP9 SSTORE POP POP POP JUMPDEST POP POP POP POP POP POP JUMP JUMPDEST PUSH1 0x0 DUP2 SWAP1 POP DUP2 PUSH1 0x0 MSTORE PUSH1 0x20 PUSH1 0x0 KECCAK256 SWAP1 POP SWAP2 SWAP1 POP JUMP JUMPDEST PUSH1 0x1F DUP3 GT ISZERO PUSH2 0x5384 JUMPI PUSH2 0x5355 DUP2 PUSH2 0x532E JUMP JUMPDEST PUSH2 0x535E DUP5 PUSH2 0x50C5 JUMP JUMPDEST DUP2 ADD PUSH1 0x20 DUP6 LT ISZERO PUSH2 0x536D JUMPI DUP2 SWAP1 POP JUMPDEST PUSH2 0x5381 PUSH2 0x5379 DUP6 PUSH2 0x50C5 JUMP JUMPDEST DUP4 ADD DUP3 PUSH2 0x51AC JUMP JUMPDEST POP POP JUMPDEST POP POP POP JUMP JUMPDEST PUSH2 0x5392 DUP3 PUSH2 0x4011 JUMP JUMPDEST PUSH8 0xFFFFFFFFFFFFFFFF DUP2 GT ISZERO PUSH2 0x53AB JUMPI PUSH2 0x53AA PUSH2 0x4248 JUMP JUMPDEST JUMPDEST PUSH2 0x53B5 DUP3 SLOAD PUSH2 0x4EEC JUMP JUMPDEST PUSH2 0x53C0 DUP3 DUP3 DUP6 PUSH2 0x5343 JUMP JUMPDEST PUSH1 0x0 PUSH1 0x20 SWAP1 POP PUSH1 0x1F DUP4 GT PUSH1 0x1 DUP2 EQ PUSH2 0x53F3 JUMPI PUSH1 0x0 DUP5 ISZERO PUSH2 0x53E1 JUMPI DUP3 DUP8 ADD MLOAD SWAP1 POP JUMPDEST PUSH2 0x53EB DUP6 DUP3 PUSH2 0x5240 JUMP JUMPDEST DUP7 SSTORE POP PUSH2 0x5453 JUMP JUMPDEST PUSH1 0x1F NOT DUP5 AND PUSH2 0x5401 DUP7 PUSH2 0x532E JUMP JUMPDEST PUSH1 0x0 JUMPDEST DUP3 DUP2 LT ISZERO PUSH2 0x5429 JUMPI DUP5 DUP10 ADD MLOAD DUP3 SSTORE PUSH1 0x1 DUP3 ADD SWAP2 POP PUSH1 0x20 DUP6 ADD SWAP5 POP PUSH1 0x20 DUP2 ADD SWAP1 POP PUSH2 0x5404 JUMP JUMPDEST DUP7 DUP4 LT ISZERO PUSH2 0x5446 JUMPI DUP5 DUP10 ADD MLOAD PUSH2 0x5442 PUSH1 0x1F DUP10 AND DUP3 PUSH2 0x5222 JUMP JUMPDEST DUP4 SSTORE POP JUMPDEST PUSH1 0x1 PUSH1 0x2 DUP9 MUL ADD DUP9 SSTORE POP POP POP JUMPDEST POP POP POP POP POP POP JUMP INVALID LOG2 PUSH5 0x6970667358 0x22 SLT KECCAK256 BASEFEE 0x21 SLOAD MSIZE 0x22 PUSH7 0xDBEDD71DE0A688 DUP10 PUSH25 0x2061B6D7D25D8F6A4E59BB5FD3197E2BFF64736F6C63430008 SLT STOP CALLER "
		},
		"gasEstimates": {
			"creation": {
				"codeDepositCost": "4329800",
				"executionCost": "5008",
				"totalCost": "4334808"
			},
			"external": {
				"approval(string,int256,string)": "infinite",
				"deployment(string,string,bool)": "infinite",
				"fromAdmin(string,string,string,string,string[][],string[][],string[][],string[][])": "infinite",
				"getRequests()": "infinite",
				"getfromDev()": "infinite",
				"newPatches()": "infinite",
				"previousReq()": "infinite",
				"reports(string)": "infinite",
				"requests(string)": "infinite",
				"send_list()": "infinite",
				"toAdmin(string,string[][],string[][])": "infinite",
				"unselectedBugs(uint256)": "infinite",
				"unselectedFeatures(uint256)": "infinite",
				"uploadedbyDev(string,string,string,string,bytes)": "infinite"
			},
			"internal": {
				"unChecked(string memory[] memory[] memory,string memory[] memory[] memory)": "infinite"
			}
		},
		"methodIdentifiers": {
			"approval(string,int256,string)": "f82e4aee",
			"deployment(string,string,bool)": "fd9284f1",
			"fromAdmin(string,string,string,string,string[][],string[][],string[][],string[][])": "61bdfd85",
			"getRequests()": "8813ce12",
			"getfromDev()": "303941dd",
			"newPatches()": "c97da229",
			"previousReq()": "7c0a6fc1",
			"reports(string)": "64cceaef",
			"requests(string)": "692d51d2",
			"send_list()": "b87dff89",
			"toAdmin(string,string[][],string[][])": "ac0799e5",
			"unselectedBugs(uint256)": "2548d05d",
			"unselectedFeatures(uint256)": "4d1ba790",
			"uploadedbyDev(string,string,string,string,bytes)": "dba82a9c"
		}
	},
	"abi": [
		{
			"inputs": [
				{
					"internalType": "string",
					"name": "time_rn",
					"type": "string"
				},
				{
					"internalType": "int256",
					"name": "status",
					"type": "int256"
				},
				{
					"internalType": "string",
					"name": "pname",
					"type": "string"
				}
			],
			"name": "approval",
			"outputs": [],
			"stateMutability": "nonpayable",
			"type": "function"
		},
		{
			"inputs": [
				{
					"internalType": "string",
					"name": "time_rn",
					"type": "string"
				},
				{
					"internalType": "string",
					"name": "pname",
					"type": "string"
				},
				{
					"internalType": "bool",
					"name": "status",
					"type": "bool"
				}
			],
			"name": "deployment",
			"outputs": [],
			"stateMutability": "nonpayable",
			"type": "function"
		},
		{
			"inputs": [
				{
					"internalType": "string",
					"name": "time_rn",
					"type": "string"
				},
				{
					"internalType": "string",
					"name": "time_dev",
					"type": "string"
				},
				{
					"internalType": "string",
					"name": "pname",
					"type": "string"
				},
				{
					"internalType": "string",
					"name": "pdesc",
					"type": "string"
				},
				{
					"internalType": "string[][]",
					"name": "bugs",
					"type": "string[][]"
				},
				{
					"internalType": "string[][]",
					"name": "features",
					"type": "string[][]"
				},
				{
					"internalType": "string[][]",
					"name": "bugsUn",
					"type": "string[][]"
				},
				{
					"internalType": "string[][]",
					"name": "featuresUn",
					"type": "string[][]"
				}
			],
			"name": "fromAdmin",
			"outputs": [],
			"stateMutability": "nonpayable",
			"type": "function"
		},
		{
			"inputs": [],
			"name": "getRequests",
			"outputs": [
				{
					"components": [
						{
							"internalType": "string",
							"name": "timeofReport",
							"type": "string"
						},
						{
							"internalType": "string",
							"name": "patchName",
							"type": "string"
						},
						{
							"internalType": "string",
							"name": "patchDescription",
							"type": "string"
						},
						{
							"internalType": "string",
							"name": "vno",
							"type": "string"
						},
						{
							"components": [
								{
									"internalType": "string",
									"name": "bugTitle",
									"type": "string"
								},
								{
									"internalType": "string",
									"name": "bugDescription",
									"type": "string"
								},
								{
									"internalType": "string",
									"name": "bugPriority",
									"type": "string"
								}
							],
							"internalType": "struct bugReport[]",
							"name": "bugRequest",
							"type": "tuple[]"
						},
						{
							"components": [
								{
									"internalType": "string",
									"name": "featureTitle",
									"type": "string"
								},
								{
									"internalType": "string",
									"name": "featureDescription",
									"type": "string"
								},
								{
									"internalType": "string",
									"name": "featurePriority",
									"type": "string"
								}
							],
							"internalType": "struct featureReport[]",
							"name": "featureRequest",
							"type": "tuple[]"
						},
						{
							"internalType": "bool",
							"name": "deployed",
							"type": "bool"
						},
						{
							"internalType": "int256",
							"name": "uploaded",
							"type": "int256"
						},
						{
							"internalType": "int256",
							"name": "approved",
							"type": "int256"
						},
						{
							"internalType": "string",
							"name": "filename",
							"type": "string"
						},
						{
							"internalType": "bytes",
							"name": "patch",
							"type": "bytes"
						}
					],
					"internalType": "struct listOfBnF[]",
					"name": "",
					"type": "tuple[]"
				}
			],
			"stateMutability": "view",
			"type": "function"
		},
		{
			"inputs": [],
			"name": "getfromDev",
			"outputs": [
				{
					"components": [
						{
							"internalType": "string",
							"name": "timeofReport",
							"type": "string"
						},
						{
							"internalType": "string",
							"name": "patchName",
							"type": "string"
						},
						{
							"internalType": "string",
							"name": "patchDescription",
							"type": "string"
						},
						{
							"internalType": "string",
							"name": "vno",
							"type": "string"
						},
						{
							"components": [
								{
									"internalType": "string",
									"name": "bugTitle",
									"type": "string"
								},
								{
									"internalType": "string",
									"name": "bugDescription",
									"type": "string"
								},
								{
									"internalType": "string",
									"name": "bugPriority",
									"type": "string"
								}
							],
							"internalType": "struct bugReport[]",
							"name": "bugRequest",
							"type": "tuple[]"
						},
						{
							"components": [
								{
									"internalType": "string",
									"name": "featureTitle",
									"type": "string"
								},
								{
									"internalType": "string",
									"name": "featureDescription",
									"type": "string"
								},
								{
									"internalType": "string",
									"name": "featurePriority",
									"type": "string"
								}
							],
							"internalType": "struct featureReport[]",
							"name": "featureRequest",
							"type": "tuple[]"
						},
						{
							"internalType": "bool",
							"name": "deployed",
							"type": "bool"
						},
						{
							"internalType": "int256",
							"name": "uploaded",
							"type": "int256"
						},
						{
							"internalType": "int256",
							"name": "approved",
							"type": "int256"
						},
						{
							"internalType": "string",
							"name": "filename",
							"type": "string"
						},
						{
							"internalType": "bytes",
							"name": "patch",
							"type": "bytes"
						}
					],
					"internalType": "struct listOfBnF[]",
					"name": "",
					"type": "tuple[]"
				}
			],
			"stateMutability": "view",
			"type": "function"
		},
		{
			"inputs": [],
			"name": "newPatches",
			"outputs": [
				{
					"components": [
						{
							"internalType": "string",
							"name": "timeofReport",
							"type": "string"
						},
						{
							"internalType": "string",
							"name": "patchName",
							"type": "string"
						},
						{
							"internalType": "string",
							"name": "patchDescription",
							"type": "string"
						},
						{
							"internalType": "string",
							"name": "vno",
							"type": "string"
						},
						{
							"components": [
								{
									"internalType": "string",
									"name": "bugTitle",
									"type": "string"
								},
								{
									"internalType": "string",
									"name": "bugDescription",
									"type": "string"
								},
								{
									"internalType": "string",
									"name": "bugPriority",
									"type": "string"
								}
							],
							"internalType": "struct bugReport[]",
							"name": "bugRequest",
							"type": "tuple[]"
						},
						{
							"components": [
								{
									"internalType": "string",
									"name": "featureTitle",
									"type": "string"
								},
								{
									"internalType": "string",
									"name": "featureDescription",
									"type": "string"
								},
								{
									"internalType": "string",
									"name": "featurePriority",
									"type": "string"
								}
							],
							"internalType": "struct featureReport[]",
							"name": "featureRequest",
							"type": "tuple[]"
						},
						{
							"internalType": "bool",
							"name": "deployed",
							"type": "bool"
						},
						{
							"internalType": "int256",
							"name": "uploaded",
							"type": "int256"
						},
						{
							"internalType": "int256",
							"name": "approved",
							"type": "int256"
						},
						{
							"internalType": "string",
							"name": "filename",
							"type": "string"
						},
						{
							"internalType": "bytes",
							"name": "patch",
							"type": "bytes"
						}
					],
					"internalType": "struct listOfBnF[]",
					"name": "",
					"type": "tuple[]"
				}
			],
			"stateMutability": "view",
			"type": "function"
		},
		{
			"inputs": [],
			"name": "previousReq",
			"outputs": [
				{
					"components": [
						{
							"internalType": "string",
							"name": "bugTitle",
							"type": "string"
						},
						{
							"internalType": "string",
							"name": "bugDescription",
							"type": "string"
						},
						{
							"internalType": "string",
							"name": "bugPriority",
							"type": "string"
						}
					],
					"internalType": "struct bugReport[]",
					"name": "",
					"type": "tuple[]"
				},
				{
					"components": [
						{
							"internalType": "string",
							"name": "featureTitle",
							"type": "string"
						},
						{
							"internalType": "string",
							"name": "featureDescription",
							"type": "string"
						},
						{
							"internalType": "string",
							"name": "featurePriority",
							"type": "string"
						}
					],
					"internalType": "struct featureReport[]",
					"name": "",
					"type": "tuple[]"
				}
			],
			"stateMutability": "view",
			"type": "function"
		},
		{
			"inputs": [
				{
					"internalType": "string",
					"name": "",
					"type": "string"
				}
			],
			"name": "reports",
			"outputs": [
				{
					"internalType": "bool",
					"name": "admin",
					"type": "bool"
				},
				{
					"internalType": "string",
					"name": "time",
					"type": "string"
				}
			],
			"stateMutability": "view",
			"type": "function"
		},
		{
			"inputs": [
				{
					"internalType": "string",
					"name": "",
					"type": "string"
				}
			],
			"name": "requests",
			"outputs": [
				{
					"internalType": "string",
					"name": "timeofReport",
					"type": "string"
				},
				{
					"internalType": "string",
					"name": "patchName",
					"type": "string"
				},
				{
					"internalType": "string",
					"name": "patchDescription",
					"type": "string"
				},
				{
					"internalType": "string",
					"name": "vno",
					"type": "string"
				},
				{
					"internalType": "bool",
					"name": "deployed",
					"type": "bool"
				},
				{
					"internalType": "int256",
					"name": "uploaded",
					"type": "int256"
				},
				{
					"internalType": "int256",
					"name": "approved",
					"type": "int256"
				},
				{
					"internalType": "string",
					"name": "filename",
					"type": "string"
				},
				{
					"internalType": "bytes",
					"name": "patch",
					"type": "bytes"
				}
			],
			"stateMutability": "view",
			"type": "function"
		},
		{
			"inputs": [],
			"name": "send_list",
			"outputs": [
				{
					"components": [
						{
							"internalType": "bool",
							"name": "admin",
							"type": "bool"
						},
						{
							"internalType": "string",
							"name": "time",
							"type": "string"
						},
						{
							"components": [
								{
									"internalType": "string",
									"name": "bugTitle",
									"type": "string"
								},
								{
									"internalType": "string",
									"name": "bugDescription",
									"type": "string"
								},
								{
									"internalType": "string",
									"name": "bugPriority",
									"type": "string"
								}
							],
							"internalType": "struct bugReport[]",
							"name": "bugsSent",
							"type": "tuple[]"
						},
						{
							"components": [
								{
									"internalType": "string",
									"name": "featureTitle",
									"type": "string"
								},
								{
									"internalType": "string",
									"name": "featureDescription",
									"type": "string"
								},
								{
									"internalType": "string",
									"name": "featurePriority",
									"type": "string"
								}
							],
							"internalType": "struct featureReport[]",
							"name": "featuresSent",
							"type": "tuple[]"
						}
					],
					"internalType": "struct fromReporter[]",
					"name": "",
					"type": "tuple[]"
				}
			],
			"stateMutability": "view",
			"type": "function"
		},
		{
			"inputs": [
				{
					"internalType": "string",
					"name": "_time",
					"type": "string"
				},
				{
					"internalType": "string[][]",
					"name": "new_b",
					"type": "string[][]"
				},
				{
					"internalType": "string[][]",
					"name": "new_f",
					"type": "string[][]"
				}
			],
			"name": "toAdmin",
			"outputs": [],
			"stateMutability": "nonpayable",
			"type": "function"
		},
		{
			"inputs": [
				{
					"internalType": "uint256",
					"name": "",
					"type": "uint256"
				}
			],
			"name": "unselectedBugs",
			"outputs": [
				{
					"internalType": "string",
					"name": "bugTitle",
					"type": "string"
				},
				{
					"internalType": "string",
					"name": "bugDescription",
					"type": "string"
				},
				{
					"internalType": "string",
					"name": "bugPriority",
					"type": "string"
				}
			],
			"stateMutability": "view",
			"type": "function"
		},
		{
			"inputs": [
				{
					"internalType": "uint256",
					"name": "",
					"type": "uint256"
				}
			],
			"name": "unselectedFeatures",
			"outputs": [
				{
					"internalType": "string",
					"name": "featureTitle",
					"type": "string"
				},
				{
					"internalType": "string",
					"name": "featureDescription",
					"type": "string"
				},
				{
					"internalType": "string",
					"name": "featurePriority",
					"type": "string"
				}
			],
			"stateMutability": "view",
			"type": "function"
		},
		{
			"inputs": [
				{
					"internalType": "string",
					"name": "time_rn",
					"type": "string"
				},
				{
					"internalType": "string",
					"name": "pname",
					"type": "string"
				},
				{
					"internalType": "string",
					"name": "ver",
					"type": "string"
				},
				{
					"internalType": "string",
					"name": "fileName",
					"type": "string"
				},
				{
					"internalType": "bytes",
					"name": "_patch",
					"type": "bytes"
				}
			],
			"name": "uploadedbyDev",
			"outputs": [],
			"stateMutability": "nonpayable",
			"type": "function"
		}
	]
}